:020000040000FA
:2000000000500020E9000000E1000000C9000000E5000000E5000000E5000000000000002E
:20002000000000000000000000000000E5000000E500000000000000E5000000E50000002C
:20004000091A0000E5000000C9B40000E5000000B110000015150000E5000000E500000081
:20006000E5000000F1B40000E5000000E5000000E5000000E5000000E5000000E500000098
:20008000E5000000E5000000E5000000E5000000E5000000E5000000E5000000E500000038
:2000A000E5000000E5000000E5000000E5000000E5000000E5000000E5000000E500000018
:2000C000E5000000412A0000044B1A68B2F5806F03D01B689B0500D4FEE7704728ED00E00E
:2000E000FEE700BFFEE700BF08B509F055FB0F4B0F4A93420CD2181D0332121A22F003029F
:200100000C49024451F8040B43F8040B9342F9D109480A494FF000028842B8BF40F8042B76
:20012000FADB00F0A5F9FFF7CFFF08BD00000020480200206CD7000048020020342A00201E
:2001400070B50F4D0F4E2C688AB00134F17B22460D482C6002F0BAFC2A680C4902A802F0DE
:20016000D3FC02A80DF016F842F61664084B024602A918683346009406F092FF0AB070BD08
:20018000A8020020AC02002030D300004CD30000900200202DE9F041038884B0B72B0446C1
:2001A0000D4628D0D32B12D02BB100230320238004B0BDE8F08179491A460868852103F05A
:2001C000C7FCB7230120238004B0BDE8F081744B16461B788B4200F0B480724B1B78AB4218
:2001E00023D0714803F048FB58B9D3230120238004B0BDE8F08185294ED0012004B0BDE842
:20020000F081694803F024FB02F026FB67490023A1FB0021090BC1EB0111A0EB412189B20D
:20022000634A644803F0F0F9DFE7002ED9D03378722BD6D104F0CCFA002800F0AA8004F00D
:200240007DFA0546002800F0A480C17C5A4802F03DFC05F1140003F049F92A7F01465748C8
:2002600002F034FC04F060F905460028B9D0544F544E284604F0DCF8E97DC27B384602F085
:2002800025FCA969304602F021FC284604F052F905460028EDD1A4E70025FD2668464A49B4
:2002A000CDE90065CDE9025503F0E2FF29460122684603F09DFE0A224FF07F4C434B444F1D
:2002C0001E605D601146C3E902C7424802F0FEFB414802F0FBFB4FF00108404D05F1600600
:2002E0002B7E1BB195F82A70012F46D92035AE42F6D1002242F61661104606F009FF384E5C
:2003000005463060002832D043F6225335482B8202F0DCFB306807F0ABF832683248138A54
:20032000558A190A2A0A41EA032142EA052292B289B202F0CBFB4FF4F0511B4803F07EFA5C
:2003400053E72A4B1B789B077FF547AF00222849284B294F09681B883868CA54274B01305C
:200360001A6838600346264802F0B0FB35E7254800F03AFF258002201AE705F11A0007F08E
:2003800077F80A2000F028FF002FAFD185F82A80ACE71D4800F028FF64E700BFC4080020D2
:2003A000322A0020312A002094020020898888884101000070020020D8D20000ECD2000033
:2003C00010D3000024D3000028210020AC020020FE000001F8D1000028D20000B01F00205B
:2003E0009002002074D200009CD2000018250020242500201C210020A4020020A8020020E4
:20040000B8D2000040D20000FCD20000F0B5002706463C463D4683B0304600F0F7F9019536
:20042000019B9C4206DD00BF019B01330193019BA342F8DB304600F0F3F90195019BC4F5AB
:20044000C8749C4206DD00BF019B01330193019BA342F8DB0137B7F5487F06D0B7F5C87FB4
:20046000CCBFC7F548743C46D6E703B0F0BD00BF2DE9F041744C86B02368012173485B68B3
:2004800098470122236811461B687048984709F073F801F0D1FA01F069FA00F0DBF901F035
:2004A000A1FA00F0A9F9012369496A486A4A03600B6018461368FFF7A9FF09F061F800F04C
:2004C0006BFD00F0D7FC03F07DFB00F035FE03F0C9FA41F2342002F0C5F900F0E7FF03F0AD
:2004E000FBFB5E4800F080FE4BF2AC7200215C4802F0ECFA5B4800F077FE09F045F85A4C16
:200500005A4D10F0040F14BF27462F4609F044F801280CBF26462E4609F036F810F0020F2B
:2005200014BFA046A84609F02FF810F0080F08BF2C4632464346009439464D4802F0C6FA49
:2005400000214C4803F06AFA03F024F802F0D6FF0220FFF75BFF484802F0B8FA474B484CED
:20056000186800F041FE474802F0B0FA464B186800F03AFE454802F0A9FA2168444802F03F
:20058000A5FAE469A04720B1A0470146414802F09DFA00260A2000F01FFE09F08DFF04A8E9
:2005A00008213D4D3D4F039600F056FE9DF816209DF8174004AB03CB44EA0224D7F82C801C
:2005C0002860696002204AF6CD31C04721460320C04719210120C047082204A97B6B0B2088
:2005E0009847BB6A03A90120984703992C4802F06DFA2C4B21462C481C8002F067FA2B4B2B
:200600006A6829685A60196009F038FB3146284803F004FA0220FFF7F9FE3146254803F05A
:20062000FDF9254802F03EFF00F094FD0120FFF7EDFE03F031FA044600F0C0FD14F0FF0F7E
:20064000F7D101F05FF8F4E7D801001000400340080009400C4009402C20094084D3000071
:20066000ACD30000C4D300007CD3000080D30000D8D30000D40000200CD4000048D6000025
:20068000E4D6000014D40000C0D600001CD4000024D4000028D40000082A0020ECD400002C
:2006A0004CD40000781F002060D40000282100204C01002010000020F0D100002DE9F04121
:2006C00004880646772C2FD07E2C26D024B1002303203380BDE8F08103F098F92D4F2E4BA3
:2006E0002E4D3A6818702C6082B12346A0462C4C04F8038093680021802098472B680133EE
:2007000057F823202B60002AF2D1DAB2254B1A70772333800120BDE8F0811F4B1B788B42FB
:200720001CD00120BDE8F081DFF878801B4D98F800201D4F00233B602B60002AE8D0184CB4
:20074000E256002A18DB2B6898F80020013393422B60F5DB3B68002BECD1D9E70F4D104C9A
:20076000DFF84080104F2B683A68E15C013201F07F01E1543A60E7E7064A074952F82320A3
:200780000978002003F0E4F90028ECD17E23012033809FE734000020302A0020C002002058
:2007A000A41F0020881F0020BC02002010B40E4B1C78B4B10D4A136898424FF0000304D1D8
:2007C00006E052F8041F884202D00133A342F8D107490848CA5C62F07F02CA5410BC03F0D2
:2007E000E3B92346F4E700BF881F002034000020A41F00201000002008B500F071F80022F4
:20080000014B1A7008BD00BF891F0020034A137803431846137000F07DB800BF891F00200B
:20082000034A137823EA00031846137000F072B8891F002010B5064C042023685B699847A4
:20084000236804205B6B98470128F9D110BD00BFB8010010F0B593B008F08EFE0746FFF74D
:20086000E9FF194B4FF4A0601B68DB6998470121164B174A196013689907FCD500F0E2F92F
:20088000144801F067F84822684613490CF060FB009C621C0FD06D46104E336820469B6BD0
:2008A0009847336820469B694FF40051984755F8044F631CF1D10FB113B0F0BD13B0BDE868
:2008C000F04008F05DBE00BFB801001028200860282008402000002078D40000B4010010BC
:2008E000094B1A687AB9012210B5084C1A6023680620DB6B984723680720DB6B9847C022AA
:20090000034B1A6010BD7047C4020020B4010010A0200240C022074B074908701A60C2079F
:2009200044BF402243F8102C830702D58022034B1A607047A02002408A1F0020902002409C
:200940008138012808D808B5044B0D201B685B689847C0F3804008BD00207047B4010010A3
:200960008138012808D808B5044B0E201B685B689847C0F3804008BD00207047B401001082
:2009800028B1012806BF054BD86800207047044B18686FEA503000F001007047C8020020EF
:2009A000C020024008B100207047034B18686FEA903000F001007047C0200240802870B507
:2009C00014460AD0812807D1E1B9BDE87040184B10461B685B6B184770BD0123144D154902
:2009E00093402A680B60936B204698472B6820460021114A1B689847E0B21049BDE87040CD
:200A000000F0DABF01230A4D0A4993402A680B60936B204698472B6820461B68064A00217F
:200A200098472B682046BDE870401B6B184700BFB4010010E020024000400720590A000014
:200A400008B50D22FFF7BAFF012008BD08B50E22FFF7B4FF012008BD0D2838B50AD00E2867
:200A600000D038BD4FF08052BDE838404FF4804100F07ABD0E4C204603F0CEF80028F0D0F7
:200A80000421204603F0B4F80A4B1D68C5F3403525B900F03DFAC4E9020538BD00F038FA55
:200AA000A368C31AE3600448BDE83840FFF77EBEC8020020C0200240C0D4000030B50421C6
:200AC00000244FF480151A4A1A4B126883B0ADF8004001920DEB01001D6000F0CFF8E0B16E
:200AE0000221684600F0EAF8134B1D60D0B19DF80030EF2B04D0C22B02D0204603B030BD7F
:200B00009DF80100A0F11103012B0ED9143801288CBF0020012003B030BDFF20064B1D60F9
:200B200003B030BDFF2003B030BD0120F8E700BFE8D40000A02002409020024030B50522DB
:200B40004FF4801583B0114B02AC04F8042D1D6000F0DAF82046012100F090F820B910E04B
:200B60009DF80730DB0706D501210DF1070000F0A5F80028F4D14FF48012054B1A6003B0F9
:200B800030BD034B1D6003B030BD00BFA02002409020024030B583B0FFF7D0FF08B903B0F9
:200BA00030BDB9224FF480150A240C4B02A800F8012D01211D6000F061F8094B1D60FFF791
:200BC0007DFF631E0028EAD013F0FF04F7D14FF48012034B1A6003B030BD00BFA02002406A
:200BE0009020024010B50A2182B0124800F09EF8114B14201B68114CDB6B98474FF4801396
:200C0000AB210F4A02A8236000F8011D1360012100F034F808B1FFF791FF4FF48012074B55
:200C20001A60FFF74BFFA0F10100B0FA80F0400902B010BD00093D00B40100109020024089
:200C4000A020024008B5FFF7CDFFFFF7A3FFBDE8084000F0C7B800BF08B5064B02201B68AD
:200C60005B6B9847012809BF034B0020186800F0010008BDB801001078200840F0B583B0B9
:200C800004460E46FFF7E8FF074688B186B10A4D26442B6814F8011B5B684FF080409847FF
:200CA0002B6801A9DB684FF080409847B442F0D1384603B0F0BD00BFC4010010F0B583B0D5
:200CC00004460E46FFF7C8FF0746B8B1B6B10D4D264409E02B684FF08040DB689847019B9F
:200CE00004F8013BB44209D02B6800219B684FF08040984701A90028ECD10746384603B04B
:200D0000F0BD00BFC401001010B582B0FFF7A4FF40B1054C236801A91B694FF08040984729
:200D20000028F7D102B010BDC4010010F0B5254D07462B6885B002205B690E4698472B6897
:200D400002205B6B984701280446F8D12B684FF48070DB6998471C4B1C4A1C6013689B0741
:200D6000FCD54FF0030C08250023194919480A68044622F00F0200680A60C1F80CC0CDE955
:200D800000751A46076814494FF08040B847134B29461B6800965D6C09224FF0FF334FF02A
:200DA0008040A8470E4A136843F002031360236803A91B694FF0804098470028F7D105B0C8
:200DC000F0BD00BFB8010010282008602820084014000040C4010010006CDC02B401001066
:200DE0000400004010B5174B4FF480701B681B6A98470121144B154A196013689B07FCD527
:200E0000134C082023689B6B984723684FF400519B6908209847236809209B6B984723688D
:200E20004FF400519B690920984723680A209B6B984723684FF40051BDE810409B690A2036
:200E4000184700BFB80100102820086028200840B401001010B5064C042023685B6998473D
:200E6000236804205B6B98470128F9D110BD00BFB80100100020002170B51B4A1B4BC2E9FA
:200E800000011B6804205B6B9847012801D0FFF7E1FF164B00201B68DB6998470121144B8D
:200EA000144A196013689B07FCD5134A13491368096823F4807323F00103114C13600B6864
:200EC0002046104998470423312640F22120012223600D4D0D4903F1864303F510132E60C7
:200EE00008601A6070BD00BF48020020B801001028200860282008400C000140C80100108B
:200F000000000140002100043C0001400800014010B40949094A0B68146808688342FAD14D
:200F2000DA010023064902EB5462C1E9002310BCD1E90001704700BF082009400C20094011
:200F40004802002010B50B490B4A0B68146808688342FAD1DA010023084902EB5462C1E92E
:200F6000002302F093FC00B910BDBDE8104002F05FBC00BF082009400C2009404802002036
:200F800010B508F0F9FA034B1C6808B908F0F8FA204610BD082009402DE9F04108F0ECFA5B
:200FA0000124002580464FF480314FF480701A4E1A4B1B4F32683D601C60186019601368A4
:200FC000284623219847336820461B6824219847336825211B6802209847124A1249136841
:200FE00043F4E02313600D6008F084FA0F4B1049104A1B6800F50070086014603C601B6970
:2010000014209847B8F1000F01D0BDE8F081BDE8F04108F0B5BA00BF840100100420094020
:20102000000024430020094008200940B00100101C200940A0022443431E012B10B419D9DD
:20104000042801D010BC704700231A4610F004001CBF0E4C216013B101210D4B196012B159
:2010600001220C4B1A600028ECD001220A4B1A6010BC7047012803BF084A03461160002309
:2010800010F00202E2D0064C2160DFE72020094080022443A0022443C002244318200940DC
:2010A0001C200940014B1868704700BFD802002008B509F0DDFE184B1860FFF743FF174B69
:2010C0001B686BB9164B1B68E3B9164B1B6833B100204FF480321449144B08601A6008BDA9
:2010E0004FF48072114B1A6008F004FA00F205200F4B20F4FF7020F001001860084B1B689C
:20110000002BE2D0002001220A49084B08601A6002F05AFDD9E700BFD8020020A00024435E
:2011200080002443C0002443C0022443042009401C20094080022443012203490348044B94
:2011400008601A60704700BF00000840FFFF0F00000C084038B508F00FFA124AB0FA80F02A
:201160001368012B0BD001230F4C104D1049114A400925600B601360C3070FD438BD0E4CB5
:2011800009490A4D146040090D60094C094940F0020023600B601360C307EFD5BDE8384097
:2011A00008F0EEB9000C084000000840FFFF0F000C0008400401004351E5CC1A01220349C0
:2011C0000348044B08601A60704700BF00000840FFFF0F000C00084010B50446C0B200F003
:2011E00079F9204610BD00BF70B506460024451E04E015F8010F00F06DF9013430460BF096
:20120000C9FFA042F5D80A2000F064F900F076F90128FBD0204670BDF8B50646B0B1007828
:20122000B0B1B9B101317518741C04E014F8010B30B1AC4204D000F04DF9A71B002CF5D10B
:2012400000F05CF90128FBD03846F8BD0746F7E70746F5E70F46F3E710B40B4B0B4C1A789C
:201260000133FF2A0DD1A342F9D1094A39B11144013801390B78914200F8013FF9D110BC5B
:201280007047014AF2E700BFC8FF0100D0FF0100F012005038B50C4D02202B685B6998472C
:2012A0002B6802205B6B984701280446F8D12B684FF40070DB699847044B054A1C6013689A
:2012C0009B07FCD538BD00BFB801001028200860282008402DE9F04340F2F275DFF8DC80C9
:2012E00083B0FFF7D7FFD8F800302A4EDB682A4898473368294C5B69152098472368DFF899
:20130000C090274F23F4FE63D9F8002023F0020323603D60D36B0320984708201222214960
:20132000D9F8003008600092D3F840900322132302211948C847D8F800206023D2F8048068
:2013400019494FF4E1321448C047142140F2011340F2013C154A164811600268154942F060
:20136000100202600868144A002818BF634613603D600B6853B115202368326843F050031C
:201380002360136903B0BDE8F043184703B0BDE8F08300BFB0010010001000403810004041
:2013A0004410004090200240006CDC02341000402C100040DC02002030100040D0010010FE
:2013C000B401001008B5064B02201B685B6B9847012809BF034B0020186800F0010008BD5B
:2013E000B80100106C20084038B50446FFF7EAFF18B1244A13681907FCD4032C03D0224B29
:201400001B6803B138BDFFF7DDFFA0B11F4B20481B68DB6898471F4B15201B685B69984741
:2014200040F2F2701C4A1D49136823F4FE6323F00203136008601A4D4FF400702B681B6A34
:201440009847032C09D12B684FF400709B6A98472B684FF400701B6B98470121114B124AF5
:20146000196013689B07FCD5032000F08FFA022000F08CFA132000F089FABDE838401220DC
:2014800000F084BA18100040DC020020D001001000100040B00100103810004044100040AA
:2014A000B8010010282008602820084010B508F063F80446054800F04DFA0022044B1A6052
:2014C00004B110BDBDE8104008F05AB840000020DC02002010B50446FFF774FF08B9FFF7FE
:2014E000F9FE044B2146BDE810401B680248DB69184700BFD00100100010004008B5FFF737
:2015000061FF18B1024B1868C0F3C00008BD00BF1810004070B5FFF7BDFE40F2F2710C4BB4
:201520000C4A1B68116013F0500F0DD00A4C0B4E0B4D06E0336828461B699847094B1B68F2
:201540001BB92368DB06F5D570BDC0B29847EFE7401000404410004018100040D0010010C0
:2015600000100040DC0200202DE9F0474023002742F0005282B042EA0105CDE900730646E9
:2015800007F0FAFF01204FF480714FF48032434B3C461F60424B434F186019601A603B6855
:2015A00020463F211B6801349847042CF7D100243C4F3B6820463F219B6801349847032C78
:2015C000F7D1394B1B68FFF7F9FD384802F09AFB044630B1A3680BB1032098472468002C9D
:2015E000F8D1731C0AD00021314B324A43EA86031960136830462A461B6898470024012762
:201600002D4EDFF8E4903368C9F800409B6907209847684609F042FC00F086FA00F034FAEB
:20162000264827490368326823F0030303600B68244D23F00F030B60936938209847384626
:201640002C6009F04BFCDFF8A4A01F481F4A2049204B2C60DFF85080CAF8004007601460EF
:201660001D4A0C60C9F800401C60D8F800301B491368096823F0030313604B681848032107
:201680009847184A33682C60CAF8004017609B6BD8F80020984702B0BDE8F087000024435F
:2016A00004200940840100102C200940E0020020001A4442B4010010B8010010001009400A
:2016C00008100940401009408801044340012243440122430800094024220840D801001028
:2016E00000400340181009400C40094020042243034A136823F00403136030BF704700BF1E
:2017000010ED00E070B507F037FF02F017FA18B1BDE8704007F034BF7F4802F0F3FA0225C2
:20172000044648B1636823B19847854228BF0546EDB22468002CF5D109F09AFB774B064636
:201740001B6843B1764B1B681B1A022B38D4A3F28F23002B3DDB02F099F8F8B102F09EF822
:201760000446FFF7D5FB241A002CD1DDFFF79AFC00EB4420831BA3F28F23002B31DA013D0D
:20178000012DC5D8831B082B00F1B58006F580310B1A11EA230138BF014604E0012D40F017
:2017A000AD8006F580310220FFF746FC5D4A136823F00403136030BFBDE8704007F0E0BE6E
:2017C000002D00F0A38002F061F80028A0D00025C4E7022DBFD102F059F80028E1D0012515
:2017E000BCE7012DCED0022D92D101462846FFF723FC494802F086FA0446002870D006253E
:20180000A3680BB1022098472369246825EA0305002CF5D1FFF7D2FC6B0764D425B1424B0E
:2018200028461B689B69984700F07EF9002009F055FB3E493E4A0B683B4823F003030B607B
:201840001368016843F00F0313608B69392098470023384A38491360184613600B6008F0F3
:2018600049F8062D43D0354C354D364E2B682368326823F0030323605368032132489847CE
:20188000294B1B689B6B98472B6808F04FF900212E4A336811602C485B680121984701219A
:2018A00023682B4A43F00303236011602B6808F06FF909F0DFFAFFF745FBFFF77FFC164831
:2018C00002F020FA044628B1E36803B198472468002CF9D107F054FEBDE8704007F050BED6
:2018E000FFF76CFC06250022194B1A6097E7022007F0E8FDB7E706F1080154E7022D7FF468
:2019000007AF711E2846FFF797FB72E701F0BEFF00287FF423AFFBE6E0020020800224434C
:201920001820094010ED00E0B8010010001009400810094040100940200422432422084016
:201940002C200940D801001000400340800104430C4009400146014802F0D6B9E002002016
:201960000146014802F016BAE002002010B5054802F0C4F9BDE81040034B20211B68032028
:201980001B681847E002002084010010431C0ED010B5074B04461B684FF4C0421B680021C4
:2019A00098470022034B43EA84031A6010BD7047B4010010001A444238B504460D4607F040
:2019C000DBFD01230549064AA3400B6042F8245000B138BDBDE8384007F0D2BDE0200240E6
:2019E000E40200200021064B03F1800243F8041F9342FBD1034B10201B681B69184700BF57
:201A0000E0020020B0010010F8B500240126084B084F1D681D6006FA04F32B42E0B203D096
:201A200057F8243003B198470134202CF3D1F8BDE0200240E40200200022412300B585B0BE
:201A400002A8CDE9022309F029FA042008F006F9032810D00321042008F0D8F8042008F093
:201A6000FDF80328FAD100901C234FF040520021044807F0F7FE02A809F066FA05B05DF875
:201A800004FB00BF00A00C400022412300B583B06846CDE9002309F001FA042008F0DEF8C1
:201AA000022808D00221042008F0B0F8042008F0D5F80228FAD1684609F046FA03B05DF870
:201AC00004FB00BF0022412300B583B06846CDE9002309F0E3F9012008F0C0F8012803D0B1
:201AE0000121032008F092F8684609F02DFA03B05DF804FB0022412300B583B06846CDE978
:201B0000002309F0CBF9012008F0A8F8012803D0044B986B07F01CFD684609F015FA03B065
:201B20005DF804FB4800001010B54123002482B06846CDE9004309F0B1F90320214608F0AE
:201B400065F8012008F08AF818B1044B986B07F0FFFC684609F0F8F902B010BD4800001011
:201B600008B509F031FA30B1044B5B88022B14BF0220012008BD022008BD00BF640300203C
:201B800030B583B009F020FA18B1134C6388022B08D001A9104809F01FFA012805D00020D0
:201BA00003B030BD012003B030BD09F061F90A4C00F1400504E009F05BF9401B002809DA4E
:201BC00060880228F7D1A0F10200B0FA80F0400903B030BD6088F6E76403002010B501245F
:201BE00088B002A840F60202182109F059FC114A9DF81830126803F0F80391880E4A6FF3CF
:201C0000C303ADF81A1002A801A98DF818308DF81640079209F0E0F9A04202D0002008B03C
:201C200010BD02A809F024FA001BB0FA80F0400908B010BD940000206800002008B5FFF724
:201C4000CDFF012801D0002008BDFFF799FFC0B208BD00BFF8B50E4D00200E4F2C680E4EE0
:201C600006E02379022B06D024682B68A34209D02379032BF5D13B782BB124682B680120A3
:201C8000A342F5D1F8BD304601F08EFF0120EBE76C0600208D1F0020F801002008B5B429EC
:201CA0000A46014628BFB42202480BF051F9002008BD00BF7A06002030B583B009F0EAFB07
:201CC000044609F081F908B903B030BD01A90A4809F082F90128F7D109F0CAF800F1400594
:201CE00004E009F0C5F8401B0028EDDA638803F44063002BF5D0E7E7010001040B280BD0A9
:201D00000C2801D001207047042A07D131B10B4B00201B680B607047082A01D00220704707
:201D20000029FBD0064A4B1E073112F8010903F8010F8B42F9D10020704700BFEC03002063
:201D40009303002010B542F20343002484B001A902A8CDF80A40ADF80E40ADF8083009F00A
:201D60003BF920B19DF90A30803302D0204604B010BD9DF80C0000F00C00A0F10400B0FA46
:201D800080F0400904B010BD30B583B009F01CF918B1184C6388022B05D0012003B030BD08
:201DA000FFF7D0FF18B109F00FF90028F8D101A9114809F011F909F05BF800F1400507E034
:201DC0006088022809D109F053F8401B002803DA09F0FAF80028F3D1608842F20243984261
:201DE000DBD042F20743C01AB0FA80F0400903B030BD00BF64030020010001040B2810B599
:201E000002D00124204610BD082A13D191B1114A01F1080313F8010D8B4202F8010BF9D132
:201E200009F0D2F818B10C4B5B88022B05D00024204610BD0224204610BDFFF7A5FF012867
:201E400014BF03240024FFF79BFE012818BF0324D8E700BF8C0300206403002030B585B0E0
:201E600009F0B2F8F0B1114B5B88022B1AD14FF00002002442F2034563F301028DF80C20DC
:201E80009DF80C0000F00303022B0CD101A902A8CDF80A40ADF80E40ADF8085009F09CF8C1
:201EA0000028EDD1FF2005B030BD00BF640300202DE97848044609F087F820B1184B5B8886
:201EC000022B02D00020BDE8788807F055FB05463CB1144A144B12681A609DB10120BDE8FA
:201EE0007888104B4FF0000C1E6800230E4C16F1804022684CF10001994208BF904205D35E
:201F00002660EAE707F03CFB0120DCE708F0B0FF064A07491368086001331360F0E700BFF1
:201F20006403002004300440F4030020F8030020F003002008B509F009FB012806D009F0AB
:201F400043F818B1094B5B88022B01D0002008BD09F03AF818B1FFF7F5FE0028F6D1FFF7A1
:201F60007DFFFF28F2D0C0F3801008BD6403002008B502E0FFF7E6FE18B109F025F80028ED
:201F8000F8D1FFF701FF09F073F9FFF7CDFD00220C4B0D4819794280022908BF1A710B4B68
:201FA0001A79022A04BF00221A71094B1A79022A04BF00221A71074B1A79022A04BF002279
:201FC0001A7108BD2C04002064030020BC0400204C050020DC05002008B509F0B7FA0128F8
:201FE00001D0FFF7C5FF012008BD00BFF8B509F0ADFA01282ED0FFF765FD08F0E5FF18B140
:202000001D4B5B88022B25D0012588241B4A1C48577946791B491C4B65F3830765F383069B
:20202000577146714F795E7965F3830765F3830610600160C480D480CC804F710B601A6065
:20204000DC805E71FFF756FD09F0B2F9A84203D00020F8BD0120F8BD0C4B1878003018BF12
:20206000012009F0BFF9FFF7B9FD0128F0D1BDE8F840FFF785BD00BF640300202C0400204D
:20208000BC0400204C050020DC0500208D1F002030B585B0072800F2A980DFE800F0101FD8
:2020A0002A2D305A5F04524C217708F08DFF10B16388022B79D00024204605B030BD0129AA
:2020C00000F08480019100296BD109F03FFA0128F1D0FFF74DFF01990C46EDE7A1F10B0357
:2020E0000F2B5ED8424CC9B2A37B8B42E3D0A173DBE73F4C6186D8E73D4C2186D5E731F0B5
:2021000007024ED13A4CC1F34005237E394861F30003DBB243F0020365F38203657E03F027
:20212000870362F3C71362F3C7150278C1F380019142657623760170B7D1228B2E4B03A9F4
:2021400018465A8008F048FF002814BF00240324B2E731F0010324D1CCB2ADE701F11503F3
:202160001A2B1ED86FF014030C24244A01E052F83430994230DD14F1FF34F8D208F024FF7C
:20218000002898D010221D4B02A903EBC404A38803A8ADF80E30ADF80C20002408F01CFFF3
:2021A0008AE70224204605B030BDFFF7EDFD012814BF0324002409F009F9012812D0FFF75D
:2021C000DFFC01283FF478AF032475E7FFF70EFF01283FF470AFF7E7084B094A03EBC40367
:2021E0001360CBE70020FFF763FEE8E7012463E7640300208D1F0020E40300202CD50000AA
:2022000094000020002900F0A380F0B50C4685B0102800F29F80DFE800F00E1B20252A41C9
:20222000444A5081879D9D8C90940900052300200B6005B0F0BD08F0C7FE30B1524B588895
:20224000A0F10200B0FA80F0400920600020F0E74D4B00209B7B0B60EBE74B4B00205B8E67
:202260000B60E6E7484B00201B8E0B60E1E70023454A0B60137E03F001030B60127E52079E
:2022800044BF43F002030B60404B1B78002B5DD00B68002043F004030B60CAE700200860B1
:2022A000C7E73B4B00201B681B680B60C1E7364B002093F91C300B60BBE708F085FE002888
:2022C0004AD0314B5B88022B46D100274FF000030222002562F38303CDE9025542F203462A
:2022E0008DF80C300BE001A902A8CDF80A50ADF80E50ADF8086008F06FFE002837D09DF886
:202300000C3003F00C03082BEDD0002F34D19DF90A302360803319D103208AE71D4B00204F
:202320001B785BB20B6084E71B4B00201B780B607FE70B2300200B607BE71A2300200B605A
:2023400077E76FF0140300200B6072E7002070E70220704701206CE7FFF748FE012808BFD5
:202360000746B3D06FF07F030320236061E780238DF80A30002FF5D009F0E8F80128C6D0D0
:20238000FFF7F6FDC3E700BF640300208D1F0020940000208C1F00208B1F002070B588B0F2
:2023A000064608F011FE002848D03A4B5B88022B44D1002508F05CFD6FF01F04241A07E0C3
:2023C000FFF7C0FC012843D108F052FDC44241D508F0FAFD0028F3D102A842F60142182172
:2023E00009F05EF800222C4B2C4CF6B28DF817602178069304929DF81430891A18BF01219C
:2024000062F3030301208DF8143009F023F802A801A908F0E1FD30B3207801E0002836D0AF
:20242000BDF80A3003F44063002BF7D0BDF80A40A4B2B4F5105418BF012416E0FFF7D6FD04
:20244000012803D00124204608B070BD0546B1E70028C1D01DB109F079F8012813D1022409
:20246000204608B070BD20780124003018BF012009F004F8002DE6D009F068F80128E2D020
:20248000FFF776FDDFE7FFF773FD0224E8E7FFF72FF9C1E7640300207A0600208D1F0020F9
:2024A00010B50C46B42C2246014628BFB42204480AF04EFD2046BDE81040FFF76FBF00BFEA
:2024C0007A06002010B509F041F801281CD008F07BFD18B11B4B5B88022B1BD0FFF786FD3D
:2024E000012804460AD1FFF7B9FCFF2822D109F02DF8012809D0FFF73BFD06E009F026F87E
:20250000012801D0FFF734FD0124204610BDFFF719FC18B108F058FD0028F8D1FFF79EFCA0
:20252000FF28F1D000F0030010F1FF3418BF0124204610BD00F0030010F1FF3418BF01243A
:20254000D5E700BF640300202DE9F047594E80460F46356808F08CFC574C241A03E008F091
:2025600087FCC44208D52B79022BF8D0032B06D000242046BDE8F0872B79032BF8D1D6F849
:20258000009099F80820032A06D999F80850EDB2A5F10804BC420ADD0024D9F8003089F831
:2025A000084089F8044033602046BDE8F0874046224609F109010AF0CBFCEB1C19F80330FB
:2025C0003E4F5BB23B70043519F805203C4D02F03F0209EB0403D3F80D802A7008F0F4FCB6
:2025E00018B1384B5B88022B60D0FFF7FFFC4FF0010908F0E9FC78B1324B5B88022B0BD1A6
:202600000020FFF755FCB9F1000F05D008F09EFF012801D0FFF7ACFC2B4BB8F1404FD3F81F
:20262000009036D86FF4BF704FF0FF3100224B46DFF8A4C0DCF800C0B0EB0C0961EBEC7A17
:2026400019EB08004AF1000110EB020841EB03094FEA092143F60952002341EA18614FEAFE
:2026600008200AF0C1FA194B194A1B7810604BB93978042049B289B207F0F4FE29780320F7
:2026800007F0F0FE0022336819681A7231601A716FE708F0EDFB0F4B1B68C3F17E4303F5EF
:2026A0007203C34248BF09F1FF39BBE74FF000099FE700BF74060020FAFEFFFF8C1F0020DD
:2026C0008B1F002064030020F80300208D1F0020EC030020F00300200C1E002010B508F099
:2026E00073FC18B1144B5B88022B1DD0FFF77EFC012811D10020FFF7DBFB044608F026FF78
:20270000012816D144B1BDE8104000230B4A4FF487310B4800F078BF0023BDE81040074A69
:202720008021074800F070BF0020FFF7C1FB0446E8E7FFF71DFCE5E764030020DD2600003A
:20274000FC0300202DE9F0470025354F3548FFF701F908F00BFE3846902229460AF0D0FC91
:202760009022294630480AF0CBFC902229462F482F4C0AF0C5FC902229462E480AF0C0FCE4
:202780002D4E2E4B29467E22A01C4FF0070A4FF002091F60C6E900750AF0B2FCA623FF21AC
:2027A00001224FF0190E4FF0B90C42F601086F2742F202002661224E84F8199084F818A02F
:2027C00066612377268B1F4BA4F8008084F80EE084F80FC0E776A1765E801971627384F87F
:2027E00037201880FFF702FC012803D02C462046BDE8F0870446144808F060FE2046FFF7AE
:2028000057FB2B46114A4FF48731114800F0FCFE2946104801F002F92046BDE8F08700BF68
:202820002C04002054000020BC0400204C05002064030020DC0500206C06002074060020CF
:202840001C040020E403002024D50000DD260000FC030020F801002008B500F08BF880B29B
:2028600008BD00BF00F014B938B50C4D04202B685B6998472B6804205B6B984701280446A8
:20288000F8D12B6840F20140DB699847044B054A1C6013689B07FCD538BD00BFB8010010C1
:2028A0002820086028200840034B1B68002B14BF01200220704700BF30070020F8B50388C1
:2028C0000446002B2ED0B3F5847F05D1184B1B788B4205D00120F8BD002323800320F8BDF8
:2028E000144D2B6873B1144B144A1B6812685B68022017460026984730182B6847F10001AB
:2029000098472E600E4B40F201401B689B6A984701210C4B0C4A196013689B07FCD50B488E
:20292000FFF71EF84FF4847323800120F8BD00BF4602002030070020CC01001004800240B7
:20294000B801001028200860282008409800002008B5064B04201B685B6B9847012809BF6B
:20296000034B00201868C0F3400008BDB80100103C2008402DE9F041284B1B68D3B1284813
:202980000023024612F8011B49B90133042BF9D100274FF0000838464146BDE8F0810021CD
:2029A000204AC15402EBC303D3E9007838464146BDE8F081FFF7CCFF00282BD01A4A1B4BE8
:2029C00012681A420ED11A4A0121134611601A68002AFCD110464FF4807106F09DFD01223C
:2029E000144B1A6006F0C8FD06460F4A1368DB07FCD5114B114A1B6812685B68022015467C
:202A000000249847271845F10008002EC3D106F0B7FDC0E7FFF728FFD0E700BF3007002039
:202A200034070020500200200880024001000080F09F0240A8025042CC01001004800240CE
:202A400038B500240D4D0E4A2C6013680D4923F00103096813604B693120984722462046A9
:202A60004FF4807106F058FD0122074B2A6019782246BDE83840054801F06AB8A802504226
:202A80000C800240B001001046020020AC00002010B5074C2378802B00D010BD00F0B6FFD3
:202AA000002120700348BDE8104000F0B7BF00BF46020020AC0000200AB90020704708B575
:202AC00008461146FEF7A8FB002008BD0FB400B583B004AB53F8041B04481A46019300F0E0
:202AE0004DF803B05DF804EB04B07047BC00002038B50446154600680AF02AFA2268002091
:202B00002A44226038BD00BF0EB430B586B009AB53F8041B084D01901A4601AC04A8CDE9C1
:202B20000335059400F02AF80022019B1A7006B0BDE8304003B07047F12A0000102970B5BC
:202B40000C46054613D90C4E01E0102C08D92B681022314668689847103C0028F5D070BD43
:202B60002246D5E90030BDE87040034918470029F6D1084670BD00BFB0D500002DE9F04FFB
:202B80008246894690464FF0000B8FB099F80030002B00F0D980252B08BF4D461BD04C46E3
:202BA00003E0252B00F0D4802C466378651C002BF7D14D4500F0C880DAE90030A5EB090681
:202BC000494632469847002840F04F816378B344002B00F0B9806A7805F10109002A00F0C5
:202BE000B3800021A2F12003102B1BD8DFE803F0171A1A141A1A1A1A1A1A1A111A0E1A1A61
:202C0000090041F0100119F8012FEBE741F00101F9E741F00601F6E741F00801F3E741F0E9
:202C20000201F0E7A2F13103082B40F295802A2A00F0C18000242E2A00F09D804FF0FF33FA
:202C40006C2A00F0A580682A00F0AB80782A00F29B81DFE812F079009901990199019901C2
:202C60009901990199019901990199019901990199019901990199019901990199019901B4
:202C8000990199019901990199019901990199019901990199019901990199019901990194
:202CA0006F019901990199019901990199019901990199019901990199019901990199019E
:202CC000990199019901990199019901990199019901990199019901680199019901990185
:202CE00061015A0153019901990199019901990199019901990199019901990199019901F1
:202D00009901990199014C0199019901990199019901990199019901450199013E01370171
:202D200030010F01DB00990137019901990199019901D20092018B019901990184019901F9
:202D40007D0199019901760158460FB0BDE8F08F4D457FF431AF3EE7002404EB840402EB37
:202D6000440419F8012F303CA2F13003092BF4D92E2A7FF463AF99F8012009F10100A2F17A
:202D80003003092B24D92A2A00F0AF81814655E799F801206C2A29D009F1010941F0600181
:202DA00054E799F80120682A00F0988109F1010941F040014AE7D8F8004099F80120002CF6
:202DC00008F10408B8BF41F0010109F1010932E7002303EB830302EB430310F8012F303BBA
:202DE000A2F13005092DF4D9814629E799F8022041F0800109F1020928E709F10109D8F8E4
:202E0000003008F10408C3F800B0BFE601F4E06242F4007241F48137B2F5806F09F1010907
:202E200033D040F2B580B2F5C06F00F04A81B2F5E06FE4D0B2F5A06F7FF4A8AE012C38BF4A
:202E40000124D8F80030013C8DF82030FB0708F1040840F10883DAF80030012208A9DAF8D0
:202E600004009847002800F0F8814FF0FF300FB0BDE8F08F01F4E06242F40072B2F5806F18
:202E800041F4007709F10109CBD1D8F8006008F10408002E00F0DE8135782DB1354615F821
:202EA000012F002AFBD1AD1B002BC0F2A8809D4228BF1D46A3E001F4E06242F4007241F45F
:202EC0000247A9E701F4E06242F4807241F42457A2E701F4E06242F4A06241F4A0679BE754
:202EE00001F4E06242F4007241F4C13794E701F4E06242F4807241F4B2478DE701F4E06213
:202F000042F4007241F4A13786E701F4E06242F4007241F484477FE701F4E06242F400726B
:202F200041F4424778E701F4E06242F4007241F4E13771E701F4E06242F4C06241F4C06705
:202F40006AE701F4E06242F4807241F4C85763E701F4E06242F4807241F410675CE701F4E0
:202F6000E06242F4806241F4806755E701F4E06242F4407241F440774EE701F4E06242F4F2
:202F8000807241F4885747E70F4601F4E06243E7B2F5807F4ED0B2F5407F7FF4F7ADBC4BFF
:202FA000D8F8001017F4804FBA4E08F1040818BF1E460A4600230DF1330E002900F09E8026
:202FC0007146100940EA03704FEA131C02F00F0563460246705D01F8010D52EA0300F0D151
:202FE000BEEB010500F08B80033578203022232301F8010C01F8022C01F8033CCE1EAC4280
:203000008CBF641B0024FA0740F1F0813146DAF800302A46DAF80400984700287FF425AF12
:2030200021465046AB44FFF789FD00287FF41DAFA344ABE5002BB4BF012327F0100717F44F
:2030400000520393069207F0E0035ED0402B00F0F18100F20D81002B00F0B681202B40F0CE
:20306000EF8198F9002008F10408D317002A73F10001C0F2B381CDE904230023079307F436
:20308000C053B3F5805F59D10DF136030193DDE90423134300F0BF81DDE90423019DD008CB
:2030A00040EA4370DE0802F0070133460246303105F8011D52EA0301F1D1019B5B1B01936E
:2030C00048E0DAF8003001227349DAF80400984700287FF4CAAE0BF1010B57E599F8022028
:2030E00041F0200109F10209B0E599F80220D8F8003009F1020908F10408A1E57146302397
:20310000042501F8013C01396FE7402B00F09B8100F2CE80002B00F04C81202B40F08381A2
:203120000023069A08F10408079218F8042CCDE9042307F4C053B3F5805FA5D0B3F5C05F40
:2031400000F00781B3F5006F00F0DB8000230DF13605019341F60803019903983B408142F0
:2031600041F20802C0F0B980934200F0178100220391029241F60802934240F0AB80DDE94B
:203180000423134300F0A680444A17F4804F444B08BF134602260493069B7BB1079B002B2C
:2031A00040F0F88007F00603022B00F038813D4A062B049B04BF134601260493039B33444B
:2031C0009C428CBFE41A002417F00103039306D1F90640F1E680029A22441C460292DAE9DB
:2031E00000303EB104993246984700287FF43DAEDAE90030029F019A102F934440F22D8111
:20320000102229499847103F00287FF42EAEDAE90030102FF4D83A462349984700287FF401
:2032200024AEDAE90030019A2946B344984700287FF41BAE029B5B449B46039B002B3FF46C
:20324000F7AE21465046FFF779FC00287FF40DAEA3449BE4154E062526E6214650460BF112
:20326000010BFFF76BFC00287FF4FFADA3448DE4602B00F0A980802B40F0E28008F1070362
:2032800023F0070303F10808D3E90023EEE600BFD0D50000E4D5000010D60000FCD5000086
:2032A000F8D5000004D60000C0D5000008D60000602B7ED0802B40F0B68008F1070323F0F4
:2032C000070303F10808D3E90023CDE90423069B07932EE7002604965EE7039901989342C5
:2032E000A1EB000102917FF445AF00290B4608BF012302930026DDE901321344CDE90336E8
:203300004AE70DF13605DDE9042352EA0301019500F08180CDF808B01646BB461F463046DA
:2033200039460A22002309F05FFC30323046394605F8012D00230A2209F056FC06460F46AE
:2033400056EA0703EBD15F46DDE9013B5B1B019300E7504B17F4804F4F4E0DF1360518BFAD
:203360001E46DDE9042352EA0301019553D0110941EA03714FEA131C02F00F0063460A46E8
:20338000315C05F8011D52EA0301F0D1019B5B1B0193DFE6414B012604930FE70123029320
:2033A000A8E721465046FFF7C9FB00283FF417AF5BE5D8F8003000221946069B08F104083F
:2033C000CDE904120793B4E6D8F8002008F10408D317002A73F10001BFF64DAE524263EBED
:2033E0004303CDE9042301230793A2E621465046FFF7A4FB00287FF438AD3146DAF80030D9
:203400002A46DAF80400984700287FF42EADAB44A344FFF7BBBB0023019D01939AE6204B8F
:2034200001260493CAE60023002207930023CDE904237EE6B8F9002008F10408D31715E620
:203440000022002317E60023069A08F10408079238F8042CCDE904236BE6029A002A3FF442
:20346000E2AE1746D7E621465046FFF767FB00287FF4FBAC0122DAF8003008A9DAF804005F
:203480009344984700287FF4F0ACA344A344FFF77DBB00BFD0D50000E4D5000000D6000050
:2034A00098D2000010B50446006830B1002100F0B5FA54F8040F0028F8D110BD10B5416007
:2034C0000446FDF75DFD206010BD00BF10B50446FDF756FDD4E90031034A0B44C01A9042BC
:2034E0008CBF0020012010BDFEFFFF7F10B5D0E900431C44FDF744FD201A10BD704700BF25
:20350000F0B5038883B005465BB14A2B04D188291BD0012003B0F0BD002303202B8003B0E6
:20352000F0BD194800F0EEFB044630B1A168201D00F084F92468002CF8D10122134B1A703A
:203540004A2301202B8003B0F0BD0F48019200F0D9FB04460028F3D0019A031D9A4205D083
:203560002468231D002CEBD09A42F9D1084E2146054800F00FFCD4E90523376832600BB11B
:20358000E06998473760DBE7380700208E1F0020C408002010B50024054B06481C7000F08F
:2035A000ADFB2146BDE81040034800F037BA00BF8E1F002038070020C400002070B504469D
:2035C0000D48049D0078C4E90623656130B9A1600A482146BDE8704000F096BB084D094BFF
:2035E0002E68201D2B6000F029F92E602146BDE87040024800F088BB8E1F00203807002068
:20360000C4080020C400002010B5044C82B024680094FFF7D3FF02B010BD00BFC408002081
:2036200070B5094B04461B783BB1084D084B2E6804302B6000F00CF92E602146BDE870400C
:20364000044800F061BB00BF8E1F0020C4080020C40000203807002070B5094B04461B7801
:203660003BB1084D084B2E6804302B6000F0FAF82E602146BDE87040044800F045BB00BF3A
:203680008E1F0020C4080020C40000203807002010B50A4B04461B783BB9C0E903332146FD
:2036A000BDE81040064800F075BB043000F000F92146BDE81040024800F06CBB8E1F002000
:2036C0003807002010B5FDF723FC0B4B1B689A68D3E900142144091A4AB1D2E9003423442F
:2036E0001B1A9268994228BF1946002AF5D1034B0844186010BD00BF400700203C07002022
:203700002DE9F8430388054673B3592B27D1872930D082291ED14FF000092D4FDFF8B880C3
:203720003C68BCB1002603E0A368264693B11C46204600F071FA0028F6D022468821E0684A
:2037400000F006FA30B3404600F02EFAA3682646002BECD1592301202B80BDE8F88300230E
:203760002B800320BDE8F883194A0120136059232B80F2E7164F39680029EBD0CB689A426B
:2037800003D014E0CB68934210D189680029F9D13960DFE7E060A368BEB1B3603B68C4F80A
:2037A00008907BB1FFF78EFF3C68BAE739608B68002BCFD0D3E90204944214BF1946886075
:2037C0000346F5E7034A1360C4E73B60E7E700BF400700203C070020D400002010B5044664
:2037E000104800F0E1F91049E3680A684BB142B194420FD0134601E09C420BD09B68002BCC
:20380000FAD10A4BA2601B680C60E360BDE81040FFF758BF054B1B68E360BDE81040FFF751
:2038200051BF00BFD400002040070020C4080020014800F0B9B900BFD400002010B5044605
:2038400000F0D6F92046BDE81040FFF7C7BF00BF10B5044600F0D4F92046BDE81040FFF7F6
:20386000BDBF00BF10B5044600F0D0F92046BDE81040FFF7B3BF00BFC068B0FA80F0400938
:20388000704700BFD0E9002010447047024B1868003018BF0120704740070020024B1868EE
:2038A00008B1024B18687047400700203C07002010B5114B04461A68824213D072B193684F
:2038C000984208BF134605D043B19A68A24201D01346F9E7A2689A60FFF7F4FE0023C4E979
:2038E000023310BD82681A60002AF5D1034B1A600023C4E9023310BD400700203C0700200E
:203900002DE9F843234F3D68854208D0002D38D02B4601E0002B34D01B689842FAD180B38F
:203920001D4E837B89460446D6F80080D3B10023837365B1AC4207D0AB7BDB0704D52246F6
:203940008721284600F02AF82D68002DF2D1A3683BB14C4505D034600022832104F10C0002
:2039600098473D68A54212D04DB12B68A3420AD02BB11A68A24207D01346002BF9D1C6F885
:203980000080BDE8F8832B4622681A60F7E72B683B60F4E7C8080020C408002070B586683C
:2039A0007EB1044602200A4BA0731C6004F10C000D46B0470238012804D9832D02D0012357
:2039C000A37370BD21462046BDE87040FFF798BFC4080020002238B50A490B4B0C681A7093
:2039E0007CB1012501E024685CB1E37B002BFAD0E581204600228221FFF7D0FF2468002C99
:203A0000F3D138BDC8080020921F0020024B1878421C1A70704700BF901F002070B50F4DA1
:203A20002C68844206D034B1234600E01BB11B689842FBD170BD0028FCD003460A46012058
:203A400000211C60064C987326689981184681212B60FFF7A3FF266070BD00BFC80800203F
:203A6000C408002030B48A250023064A064815700649074A074C03700B601360237030BCBE
:203A8000704700BF901F0020911F0020C8080020C40800208F1F00202DE9F041224D2B780E
:203AA0000BB1FFF797FF214E3378BBB12048214F0278013B02EB4201890001327C1802F038
:203AC0001F020270A068DBB233707F5CD4F8048040B1812F1DD0827BD2071CD428781844A0
:203AE000BDE8F081144A14682CB9F7E7A37BD90709D424689CB12B78002BF7D0FFF76AFF6B
:203B0000A37BD907F5D5424639462046FFF746FFEFE70123837342463946FFF73FFF33785F
:203B200028781844BDE8F081921F0020911F00208F1F002044070020C8080020024A034B0F
:203B400010781B7818447047911F0020921F002070B40C4D2C78202C11D00B4B0B4E1B7806
:203B6000234403F01F0303EB43039B0001342C70F418C4E90120F154002070BC70470120E6
:203B800070BC7047911F00208F1F00204407002038B5837B034CDB07256801D5FFF7FEFEC8
:203BA000256038BDC408002018B1837B013B012B00D970470123024AC3731370704700BF41
:203BC000921F002007F04EB910B5084C206858B1D0E90131002222609847236823B1BDE8FA
:203BE0001040186807F040B910BD00BFCC08002010B541600446FDF78BF9206010BD00BF51
:203C0000D0E9003213440360704700BF10B50446FDF77EF9206010BD10B50446FDF778F94E
:203C2000D4E90032C3F10103184482422CBF0020012010BDF8B504880746672C0BD0792C2B
:203C400004D0D4B100233B800320F8BD852936D11C4E002333601C4D1A4C05E00A2826462E
:203C6000236811D07E2B25DD284600F0C5F8431CF4D167233B800120F8BDFFF7C7FE134ABB
:203C8000104B10701C60E6E70025114A0F49D5540978013328462360FFF75AFF0D4B2A4642
:203CA00018688521FFF754FF0028D2D179233B800120F8BD06495A1CC8542260D4E701205E
:203CC000F8BD00BF5009002054090020312A0020D0080020C408002008B505490548802221
:203CE00000F082F8BDE8084000210348FFF796BE5C09002054090020E4000020002303602B
:203D0000704700BF0068704710B404685CB1A1421CD023680BB906E01346994212D01A6835
:203D20001C46002AF8D100230B6002680AB906E01A461368002BFBD1116010BC7047016066
:203D400010BC70470B6814B12360ECE70B680360E9E700BF30B4046864B1A14217D0236833
:203D600025460BB906E01346994207D01A681D46002AF8D10C60016030BC70470B682B60DD
:203D800000230B6004680C60016030BC70470B680360F5E710B404685CB18C4211D0236890
:203DA0000BB906E013468B421A6804D01C46002AF8D110BC704734B1226000221A6010BC36
:203DC0007047234622680260F7E700BF03682BB100201B680130002BFBD17047184670475C
:203DE00000B10068704700BF0023013A0160027143718371704700BF10B4817942790479EE
:203E0000521A224207D003464A1C00682240405C9A7110BC70474FF0FF30FAE72DE9F843B8
:203E20001646002206FB0105099FA8423A609DF820801CD2044699464FEAD80807E04246FD
:203E4000494609F053F878B13444AC4207D22378A01C002BF3D13C603444AC42F7D33B6872
:203E6000012023B1BDE8F8833C60BDE8F8830220BDE8F8832DE9F041174D82B00091044677
:203E80000E4690461F4601950346202203211348FFF7C4FF01281BD12B68187020682B68EF
:203EA000D4F804C0A168E268C3F802002868C3F806C0C3F80A10C3F80E20089B8674436152
:203EC000099B80F813800777836102B0BDE8F081002002B0BDE8F081F4090020AC20002018
:203EE000F8B507460C4D0D4E05F120043560803514F8203CA4F11E0033B114F80E2C3946EC
:203F0000D20808F0F3FF28B134602034AC42EFD10020F8BD0120F8BDAC200020F4090020BA
:203F2000802210B5074C82B00346CDE90024032120220548FFF772FF10B9206802B010BD88
:203F40000020FBE7EC090020C81F0020F0B4124A124F11460024134648F2FE0602F1600578
:203F60003A6008E09A7C82420AD02033AB4219464FF001040AD21A78002AF6D0421CF1D1AA
:203F80005A88B242F1D11CB1396001E03B600023F0BC1846704700BFC81F0020EC090020E8
:203FA000802270B5104D82B00346CDE900250446122205210D48FFF731FF012811D12B68CA
:203FC000187020682B686668A168E268C3F802002868C3F80660C3F80A10C3F80E2002B03F
:203FE00070BD002002B070BDF00900204C200020F0B504468020234D83B0CDE900050E46AF
:2040000017462346202203211F48FFF707FF012834D12B68187022682B68D4F804E0D4F82F
:2040200008C0E168C3F802202A68C3F806E0C3F80AC0C3F80E10D774BEB910750123FF2176
:2040400040F2FF2000274FF080769374627B0F4B5A73E2891860C3E9017618461973DA815D
:20406000FFF79EFF286803B0F0BD002302F1180013753146FFF722FA2A68DFE7002003B053
:20408000F0BD00BFEC090020C81F0020DC090020802210B5074C82B00346CDE9002405215E
:2040A00012220548FFF7BAFE10B9206802B010BD0020FBE7F00900204C20002070B50446EB
:2040C00040F2FF224FF08070FF210025094BE67B1A605E73228A9860197318465D60DA8173
:2040E000FFF7D6FF044B186000B105700023237070BD00BFDC090020F009002008B1FFF799
:20410000DDBF704738B5124B124C1846236003F1600504E020682030A842206010D20378E7
:20412000002BF7D0037D002BF4D11830FFF7CEF90028EFD020680028EDD0FFF7BFFFE9E740
:2041400000F060FBBDE838400348FFF781BB00BFC81F0020EC0900200C2100202DE9F04FFD
:2041600048F2FE070B88BB4253D00B78FF2B50D000233D4C3D4E22469A4604F1600934600F
:2041800003E020324A45326037D21478002CF8D0947C012CF5D15488BC42F2D0002401F18B
:2041A000FF3E02F1010C03E05FFA88F4802C1AD01EF801BF1CF8015F04F10808AB45F3D072
:2041C00004F108088BEA05055FFA88F84FEA450C15F0800F04F1010E5FFA8CF503D15FFA59
:2041E0008EF44445F2D1A24598BF134602F1200298BFA2464A453260C7D34BB353F8024FB1
:2042000059689A68DB68046041608260C360BDE8F08F154A154E0024114648F2FE07134695
:2042200002F16005326005E02033AB4219464FF001040CD21A78002AF6D09A7C012AF3D167
:204240005A88BA42F0D1002CD8D03160D6E733600023038043808380C3800381438183810F
:20426000C381BDE8F08F00BFC81F0020EC0900200B684A688360037AC26083F00203037267
:20428000704700BF70B5094EB0684508FEF7E4FA0446FEF7E1FA2402B268A4B22044B0FB35
:2042A000F2F302FB1300284470BD00BFB01F0020F0B52F4C83B001F03DFC00F093F8602248
:2042C00000212C4808F01CFF2046F422002108F017FF4FF4A063264640271822202044F8BC
:2042E000043C2549254B264D06F80479B5601A7000250870FFF7C6FF48F2FE0C42F21072C1
:20430000204CF0603946CDE900552B46C4E900C5326135752A462046FFF7ACFD1A4A04F169
:20432000080310685168012203C3237A294683F002032046237240F2FF26FFF759FE4FF0F6
:2043400080732046E360C4E901552660FFF728FE4FF000732046C4E90065C4E90253FFF7FA
:204360001FFE0C21094803B0BDE8F040FFF766BAB41F0020AC200020A9200020A820002054
:20438000C0270900DC090020282100200C2100202DE9F047054610480F469046FFF7B2FCB3
:2043A000C0B10446DFF83490DFF834A00BE0D9F800304246394628466668B0472046FFF77A
:2043C0000FFD044630B1012DF1DC5046FFF7FEFC0346EEE7BDE8F087EC0A0020F00A0020BB
:2043E000480A002008B50B4807F0B6F80A48FFF785FC0A4B0A49186805F020FD094807F04B
:20440000ABF80948FFF77AFCBDE808400748FFF775BC00BF20010020F40A0020000100209A
:2044200025450000F4000020480A0020EC0A002048B108B5044A4168106805F0A1FEBDE818
:20444000084001F0C3BB70470001002070B5054620482946FFF79EFC6B6805F1080658685F
:20446000FFF750FC48B3044604E02046FFF7B8FC044610B363689D42F7D16B682146586848
:20448000FFF788FC6B685868FFF73CFCD0B12946114807F091F82146104807F08DF8104A83
:2044A00028461368013B1360FFF7C2FF3146BDE8704002460320FFF76BBF304602F0D8FF17
:2044C0000024DAE76A68074B5168186805F0F4FDDDE700BFF40A002020010020140100209D
:2044E000F00A002000010020C8B14368BBB110B504461846FFF706FC50B1406818B143686F
:204500000BB1FFF7A3FF6068FFF7FCFB0028F4D1034B2146BDE81040186805F0CDBD704745
:2045200000010020FFF7E0BF0148FFF7EBBB00BFF40A002008B1FFF753BC704708B501F0E0
:204540004DFB38B1044B0146186805F099FD003018BF012008BD00BF000100202DE9F04175
:2045600007461B48FFF7CEFB044670B30026B04694F8245004F10801B5424FEAD50207D364
:20458000384608F0B3FC18B9802D0DD02E46A0462046FFF725FC04460028E9D1B8F1000FE0
:2045A00003D14046BDE8F081A0460948FFF7AAFB8045F6D041460648FFF7ECFB41460448A9
:2045C000FFF7C8FB4046BDE8F0818046E9E700BFF40A00202DE9F84F0546104617468946E9
:2045E00001F0FCFA00286BD080462846FFF7B6FF044670B1FFF71CFF30B10146102238463E
:2046000008F074FC002849D0636813B12046FFF71DFFDFF8CCA0DAF800300A2B50D0DFF879
:20462000C4B04146DBF8000005F02AFD0646002837D0284806F0A2FF0446002840D0014645
:204640002548FFF787FB254806F098FF0346D8B3446001467068FFF757FBDAF80030314623
:2046600001336660DBF80000CAF8003005F052FD4FF0000C28686968AA68EB6804F1080623
:204680000FC684F824903A462946C4F818C00220C4F81CC0C4F820C0FFF77AFE2046BDE8C3
:2046A000F88F034641460422DBF8000005F040FC064628B10023C0E90030FFF71FFBB8E7A9
:2046C00000242046BDE8F88F214602481C4606F073FFE3E720010020F40A0020140100204B
:2046E000F00A00200001002018B143680BB1FFF7ADBE704710B504460E48FFF703FB40B1ED
:20470000A04202D106E0844204D0FFF769FB0028F9D110BD21460748FFF73CFB21460648B3
:2047200006F04AFF221D1146BDE810400120FFF72FBE00BF480A0020F400002038B505462E
:204740000B48FFF7DFFA78B1044604E02046FFF747FB044640B110222946201D08F0C6FB70
:204760000028F3D1204638BD0024204638BD00BF480A0020F8B50F460546FFF7DFFFC0B1B0
:20478000064628686968AA68EB68341D0FC447B9012333772A4629460020FFF7F9FD3046B4
:2047A000F8BD394606F11400FEF788FE00233377F0E7054806F0E2FE06460028EFD00146FE
:2047C0000248FFF7C7FADCE7F4000020480A002038B50B48FFF796FA044670B1251D2846AE
:2047E00001F0DAF908B1437C2BB92046FFF7F8FA04460028F2D1284638BD0546FBE700BFC7
:20480000480A002038B50F48FFF77CFA70B104460C4D237F04F1140013B9FEF757FE30B908
:204820002046FFF7DDFA0446002CF2D138BD2046FFF760FF2846FFF765FA0446002CE8D16A
:20484000F4E700BF480A0020F0B4561E0E44B14219D2023A22F001070B1D1F448C1C14F86F
:20486000025C14F8013C023403EB05239BB2184480B2834284BF013080B2BC42EFD122F02F
:204880000102023211448E4207D133781B02184480B2834284BF013080B2F0BC704700BF01
:2048A00030B5124B124D1C782A796B79C4EB0222134483B09BB2ADF80630BDF8063005F1D6
:2048C00008011844202280B2FFF7BEFF04F12801BDF806202944FFF7B7FF18B140BA80B245
:2048E00003B030BD4FF6FF7003B030BD941F00203021002002204FF0000CF8B52D4D2E4F6F
:204900002A782E4C2832BB185E782070F6000736864242DB1318F95C3B44012912D018D3DA
:20492000632907D1BCF1000F3ED102F0BFFE98B90120F8BD01F0C001802918D0C02925D051
:2049400040291ED05B7802301844C0B24FF0010CDEE70130C0B2F9E722782B7818491344A4
:204960000B445B7802321A4422700020F8BDBCF1000F17D102440221042006F031FF0220A3
:20498000F8BDBCF1000FD3D02070D1E7BCF1000F0ED13B7EFF2BCBD0ECE7BCF1000F05D13D
:2049A0000020F8BD2070E5E72070BEE72070F7E72070EEE7941F002030210020951F0020A6
:2049C0005821002070B4C478134A0C44E4B2D47083780E0A3344DBB2937045789E425570DB
:2049E0000078107003D90135EDB2557085B1C9B28C420BDA0133DBB293703BB9537801332E
:204A0000DBB2537013B913780133137070BC704701301070EBE700BF2421002010B5084C95
:204A2000014620681430FFF7CDFF064A2368507814789178D2781C7558759975DA7510BD97
:204A400028250020242100203A20FFF729BF00BF08B5FFF72DFC06F0BFFF01F023FA0021CE
:204A60000E4B03F1280223F8021F9342FBD100210B4B03F5F07283F8251030339342FAD15E
:204A80004FF480600021074A074B108003F5A072198220339A42FBD108BD00BF1227002022
:204AA0002C2500207A1F002040270020F8B5114D2C7844B1104F04F127033E88B34203DB8A
:204AC00000233B802B70F8BD0C4BA6F128021919121B184608F0B2FA03460021341BA4B220
:204AE000A4F1280210123C8003F8232C03F8240C2970F8BD941F00201C210020582100208D
:204B0000F0B50746DFF888E01E4CBEF800600136B6B2B6F5FA4F2BD2350A45EA0625ADB25C
:204B2000194A94461346188A2033A842EFD09C42F9D10023AEF80060108A203228B1013377
:204B40000A2BF9D100263046F0BD5C010CEB04063582718287B1354638687968BA68FB684C
:204B60000FC50A4A0CEB0403127930461A75F0BD10254FF48056D3E74CF80470C6E90177EB
:204B8000F760EEE78028002040270020B01F00207A1F002010B4084C0023224602E0013339
:204BA000142B06D032F8021B8142F8D1002224F8132010BC704700BF142700202DE9F04FAA
:204BC000042885B07ED0AA4ADFF8D0B2DFF8C892DFF8CCA20328DBF80050C9F80020CAF872
:204BE000002013D0022800F0B58005287DD012F83C3CA2F13C0403F0F003602B00F056815C
:204C00009C4F9D4E9D4BDFF89C8265E095F8250000F00F0003287FD00228964F964E58D155
:204C2000A2F13C04402360223380954B84F8350084F83420E3632B7DDFF86CC284F83030D9
:204C40006B7D84F83130AB7D84F83230EB7D84F833302B7E84F82C306B7E84F82D30AB7ED6
:204C600084F82E30EB7E84F82F302B8A23856B8A638595E80F008CE80F006146ACF1100079
:204C8000FFF76CFA95F82530D9064CBF00234FF48043E3860622002133887A48283B0579B3
:204CA00063711B1223711046E571A271A163FFF7F7FDC04320876023236000233B7005B07F
:204CC000BDE8F08F6B4F6C4E6F4C2388002B40F09B806A4BDFF8CC81002232801A7088F8A9
:204CE00000203A7005B0BDE8F08F684B1B681B8A002B85D000230821634C5F4E5D4F0C3A1C
:204D0000C9F80020CAF80020CBF8003023803380397002F075FBD8E7AB8B002B7FF470AFCA
:204D20000823544F544E3B70574C02F069FB3B7813F0200200F0AE82002314222380544CCB
:204D400085F8253084F835203C233380502384F8343070E700274F49474ECA78474B013299
:204D6000494CD2B2CA7037801F70278062B98A780132D2B28A703AB94A780132D2B24A70FF
:204D800012B90A7801320A7095F8252002F0FD0105292CD0A2B3A98B002900F0E68095F898
:204DA00026104F1E85F8267051BB95F82710082900F0E982571E012F40F2E28204298C46A7
:204DC0004FF0030728BF4FF0040C02F00F02013107FA0CF7013A85F8271085F82670072AE8
:204DE0000ED8DFE802F0A3A7AA9D0D9D0D9D95F826200132D2B2782A85F8262000F0898047
:204E00001C4FDFF8A08067E7002011251F4A204C126803F1080149BA92F814C0A185E08554
:204E2000118A303321859BB2508AA3F1280184F807C04FEA212C338084F804C06085617177
:204E4000A57104F118060FCA86E80F00314604F10800FFF783F9104B04F13C0228461A6077
:204E6000FFF71EFDC04380B2002849D0E08522E76C210020182500201C210020941F002003
:204E800002040040B01F00203C2700202025002030210020940C00202425002028250020EE
:204EA00020210020931F0020482100202379844E61791B0230885D18854225DC207A2831E9
:204EC0000B44FF2833801FD000217E4D363A7E4BDFF810822A60A279197088F80010002A44
:204EE00058D10122009388F80020FFF703FD0128009B00F0448143D302284BD1734FDCE6E4
:204F00004FF6FF73E385D6E6704F6F4BDFF8D481E2E600226D4F85F82520DFF8C881DBE6C8
:204F20006A4F6B4C112384F835300DE7674F684C122077E6654F664C74E60423634F3B70BB
:204F400002F05EFA2388DAF80020C9F80020002B00F0B881AB8B002B00F0B48118225C4CCD
:204F60003C33338084F83520F0E602F00F02032A7FF446AF0823554F3B7002F041FAD6E66D
:204F80001A7802F1280121444878083202EBC00229601A704F480093FEF7C2FF009B00289F
:204FA00000F0A8811F462A6811783C2900F26B81DFE811F0550169016901690169016901E5
:204FC000E70069016901690169016901690169016901690169016B006901690169016901B3
:204FE000690169016901690169016901690169016901690169016901690169016901690111
:205000006901690169016901690151004E0069016901690169016901690169016901690125
:205020006901690169016901DB004E003D0098F80030980740F1C481590600F1248143F065
:20504000400388F80030FFF755FC012840F014813B461E4F40E698F8003013F0040C40F011
:205060001281387843F0040300F128022244D17888F80030002940F06284517800F1080335
:2050800003EBC1032A603B708EE70097FFF70EFD1120E28DA071009B002A40F0AF81658D54
:2050A000002D6CD00C490D4F208D0D4A0B460090116001F5A07407F1040C07F1080818E06E
:2050C0001C2100201C250020941F00201825002030210020482100204027002038210020E8
:2050E00020250020931F00202033A342136080F06C81198A0029F7D08D42F5D1598A11B1A4
:2051000000988142F0D1196829B9596819B9996809B9D968B1B1386819688842E4D1DCF8A3
:205120000000596803F1040E8842DDD1D8F800105EF8040F8142D7D1A748DEF8041000683B
:205140008842D1D1002202213388A44C303B3380A34FA44BCBF8002022803970C9F80030D5
:20516000CAF8003002F04CF9AFE53A200097FFF797FB4FF6FF729042009B00F04981984F35
:20518000AAE50097FFF792FC06221046A271FFF787FB4FF6FF729042009BF0D1628D0192F6
:2051A000002AECD0228D0292002AE8D08E4FCDF80C803D46984604E08C4B30359D4200F264
:2051C0006D8195F825300093002BF5D02A8A019B9A42F1D16A8A029B9A42EDD110222946C2
:2051E000834807F083FE0028E6D10246019094F835007B4F41074346CBF80050DDF80C80E4
:205200003A7000F10784318894F834C0009A4FEA1C1C2839A1EB8C0102F00F0C89B2BCF1B5
:20522000020F318000F00084BCF1010F00F0D18111B9820700F0D3816969E26A8A4200F0C8
:20524000CE81830707D5BCF1010F3FF471AEBCF1020F00F06983102384F8353074E598F8F3
:205260000030D9070FD443F0010388F80030FFF741FB01283FF4ECAEC0F0978002283FF408
:205280003DAE2A6890E6121B0121042006F0A8FA534F12E513F010010CD00120042111230D
:2052A0002280544C85F82720A88385F8251084F8353049E5228882B9DAF8003085F8272051
:2052C000C9F800303B789B077FF503AD3C221023484C328084F8353038E5D80760D5A9834F
:2052E000EB8B9A4288BF23802388AB83002285F8272028E640480093FEF7CAFE009B00280A
:205300007FF450AE207E2189FF2800F0998048F2FE05228BAA4200F0BD80A94200F019812C
:2053200079B9618969B9A18959B9E18949B9218A39B9618A29B9A18A19B9E18A00293FF459
:205340001EAF82B9628B72B9A28B62B9E28B52B9228C42B9628C32B9A28C22B9E28CB2F5CD
:20536000807F3FF40CAF3388B3F5A06F00F2F780E379012B40F22581013BE371184F9CE48E
:2053800005297FF41BAD00228023154F85F825203B7002F035F81423164C84F83530D3E4BE
:2053A000AB8B002B9CD02380A0E73B7803F1280222445178083303EBC1032A603B70F3E5FC
:2053C00043F0020388F800303DE600220421012006F006FA92E500BF442100203C27002026
:2053E00018250020602100202C250020DC2600203821002030210020482100200093FFF720
:205400004FFA4FF6FF729042009B7FF4B8AE46E61A78B5490093885C01F086FE009B1A7872
:205420002832A1184978A05C06F0B6F90128009B3FF4A5AE3288AD4F002A7FF43EAC4BE441
:2054400048F2FE0291427FF49AAE228B002A7FF496AE628B002A7FF492AEA28B62B9E28B77
:2054600052B9228C42B9628C32B9A28C22B9E28CB2F5807F3FF483AEFF283FF480AE9C48B2
:205480000093FEF72DFD0246002800F05182974F009B21E491427FF472AEF0E794F8352083
:2054A000434602F03F02022ADDF80C8060D08F4F94F8352050073FF50FAC4FF03C0C41F2B4
:2054C000504094F8333094F8325094F82F1094F82E20013184F82F30A6F800C094F82D3046
:2054E00094F831C0A08684F82E5094F82C0094F83050C9B284F8331084F8322084F8313066
:2055000084F82DC084F8300084F82C5061B90132D2B284F832203AB90133DBB284F831304E
:2055200013B9013084F83000714DB4F82880B4F82AE0A5F1100C9CE80F00A4F82A80A4F8D3
:2055400028E085E80F0060462946FEF707FEFFF7A1BB002A93D1628B002A8DD17DE74FF4BC
:20556000A0620021022006F03BF9604FFFF7A5BB0022604901E0142A99D031F81200019D8B
:205580000132A842F7D100254FF0300E2A4602E00A2A00F029820EFB02F0391891F825C0A9
:2055A0000132BCF1000F00F0D381BCF1070FEFD12DB191F826C095F826108C45E8D93D183E
:2055C000E6E700220320114606F00AF9474FFFF774BB00F03F0EBEF1020F7FF429AEC006A1
:2055E00001D5A98BC1B90CF1FF3CBCF1070F3FF673AB01A252F82CF0375A00009F5600004A
:205600003F5800000F580000E1570000C9570000575200006D56000005F118000093FFF731
:20562000D1F9354994F8300091F800C0009B844566D095F8252002F00F01013900920729B3
:205640003FF64AAB01A252F821F000BFB75600008B5600003F5800000F580000E15700003F
:20566000C9570000575200006D5600003A78D4077FF532AB0021102285F8251000933A707E
:2056800001F0BEFE009BFFF727BB3978CA0706D594F8351001F03F01122900F0D5812022C8
:2056A00000933A7001F0ACFE0021DBF80020009B82F82510FCE63A78D10740F1BC810321B6
:2056C00040220023308885F825103A70AB8318B142233B70FFF7A2F90023084C238001F08E
:2056E0008FFEFFF724BB00BF58210020182500204821002014270020242100203C270020C7
:2057000094F831E04878704593D18A7894F832E0009272458DD1C97894F833E0714588D1DD
:2057200095F827E0687685F818C0AA76E97695F82400BEF1000F21D195F8261095F822C090
:20574000411AA1EBDC01C9B20CEB01004FFA81FCBCF1000FBCBF49424FFA81FC95F8231004
:20576000C0B2A1EB91016144C9B285F8220001EBD00085F8240085F82310C0B24FF0010E0D
:205780004FF0000C95F8252085F8260002F00F010139009287F800E0A5F81CC007293FF63E
:2057A0009BAA01A252F821F0BF5600008B5600003F5800000F580000E1570000C95700005A
:2057C000575200006D5600003A78D0077FF584AA0721002285F8251085F82620FFF77CBA47
:2057E0003088002840F0848094F83520D2077FF573AA0722002385F8252085F82630012048
:20580000FFF70CF910233B7001F0FAFD23E5308818B10093FFF702F9009B94F8352039788D
:2058200012F0010201F0010176D0002970D00023072285F8263085F82520AB83DFE794F860
:205840003520D00720D50099C9061DD4AA8B002A7FF442AA3088013080B2FFF7DFF83B7875
:20586000328843F01001397012B143F012033B7001F0C6FD012108220023A98385F82520BA
:2058800085F82730FFF74EBB9006318810D5628F94F83AE094F83BC0D9F8000052BA92B2C2
:2058A0004CEA0E2C1044A1EB0C02C9F80000328030883A7848B10099C90606D442F002023C
:2058C00000933A70FFF7AAF8009B94F8360094F83720298C02EB002292B2914202D3002AD9
:2058E00018BF11463A78E98394073FF4F5A9F3E60093FFF793F894F83520009B12F0010F75
:205900007FF477AF3288002A7FF4A5ACFFF7E4B9062385F8253072E70029F3D00521AA8320
:2059200085F82510FFF7D8B940F00200FFF77AB90221012005F054FF6B4FFFF7BEB900F12F
:205940002A026146042005F04BFF674FFFF7B5B90D464FF4806040F2031103224FF0010CCA
:20596000019F624B2F82029F68846F82604FA984EA840FCB85E80F007978BA78FB7897F8E6
:2059800000E0697694F82C7094F82D10AA76EB7694F82E2094F82F306046AA75A5F81CC0D3
:2059A00085F818E06975CBF800502F75EB75FFF735F894F8343003F0F002502A11D90022FF
:2059C0001B09053B9B00A11891F83C704FB1012F1ED0022F91F83D000AD010B1024493420F
:2059E000F1DC414FFFF7A4BA002DB2D1FFF7C7BB0428F2D191F83E2091F83F303A4F43EA4A
:205A00000223402B28BF4023EB832B84FFF790BA0132E4E7202185F825200093397001F021
:205A2000EFFC009BFFF758B900F03F0EBEF1120F7FF4FEABD3E594F8352002F03F02022AB8
:205A40007FF44AA9FFF774BA94F8341001F0F000502817D909090539019A8900A01890F8EF
:205A60003CE0BEF1000F0DD0BEF1010F39D0BEF1020F90F83DC025D0BCF1000F02D0624439
:205A80009142EBDC032194F82C2094F82D0085F825102A7594F82E1094F82F206875A975C6
:205AA000EA7501200093FEF7B9FF00224221114C009BAA8332801A702280397001F0A0FC68
:205AC000FFF735B9BCF1040FD6D190F83E1090F83F2042EA0122402A28BF4022EA832A84A1
:205AE000D0E70132CCE700BF1825002038210020940C00203C270020054A030C02EA0022C5
:205B00005BBAC0F307209BB2104343EA0040704700FFFF0050B110B5044601F063FF044B22
:205B20002146BDE81040186804F0C6BA704700BF2C01002008B504F0AFFD034B03491868DB
:205B4000BDE8084004F07AB92C010020155B0000F8B50C4A05461E461068079B9DF81820DB
:205B600004F0E6F9044650B12F686968AA68EB68076041608260C360467401F033FF2046EA
:205B8000F8BD00BF2C010020024B0146186804F0F7BA00BF2C01002070B505460A4E30681F
:205BA00004F09AF955B90CE010222946204607F09DF938B12146306804F056F90446002833
:205BC000F2D10024204670BD2C010020024B0146186804F055BA00BF2C01002008B5FFF728
:205BE000DBFF30B1034B01461868BDE8084004F0C7BA08BD2C01002070B5054610200E466D
:205C000004F04AFC0849044604F078FC00B170BD32462946204604F0ABFC32462946204634
:205C2000BDE8704001F0BABEACD600002DE9F04F8F4C85B0E3798F4DFF2B06D08E4E002388
:205C400033802B7005B0BDE8F08F2B7803F12C0020440279FF2AF1D0884A1A445278002A6D
:205C6000ECD14FF0140C844E854F3188DFF8248240338B4287F800C0C8F8002069DA234423
:205C80005A78002ADBD0DFF8109204F1080A1A78012A2BD12289C8F8003042B9628932B9B8
:205CA000A28922B9E28912B9228A002A46D053F8020F02AA596803C25046FFF76DFF0246EE
:205CC000C9F8000028B3FFF75FFF83460028B6D0D8F8000008220230594607F007F908BBD8
:205CE000D9F800305A7C0AB902225A7428783A782C30831823445B78318802EBC302D2B2A6
:205D000013188B423A7023DA23445A78002ABED195E7052302A9CDE9003002235046FFF70C
:205D200017FFE3E75846012202A904F041FA002885D00222D9F800305A74D7E7628A002AA4
:205D4000B5D1A28A002AB2D1E28A002AAFD176E720440430FEF7E4F84A4F386000283FF47C
:205D60006EAF23897BB963896BB9A3895BB9E3894BB9238A3BB9638A2BB9A38A1BB9E38A86
:205D8000002B3FF45CAFDFF814814046FEF7C8F800287FF454AF40F2FF23228B9A420BD19C
:205DA000638B4BB9A38B3BB9E38B2BB9238C1BB9638CB3F5807F48D0DFF8E4904846FEF77E
:205DC000AFF83B68844698427FF439AF98E80F0089E80F002B784B4418330FCB88E80F0095
:205DE00060208821E0224FF0000E40F20228264B218584F82C20636020605CF8020F234FD6
:205E0000DCF80410DCF80820DCF80C3085F800E00FC71F4BA7F80EE019685B68C4F8421012
:205E2000C7F80630A4F82AE0A4F84080C4F84AE0FEF70AFE5022C0432B783280A7F118020C
:205E400002EB030BABF80200FCE694F82430FF2BB2D198E80F0008F1100C8CE80F002B7869
:205E6000D7F800C0434428330FCB88E80F00B7E730210020941F00201C2100205821002080
:205E8000961F00204C0D002000283AFF6021002028210020540D0020500D002038210020D2
:205EA00048210020014805F095BC00BF4001002008B5034801F026F9024B034A1A6008BDB9
:205EC0002D690000580D00200100FD0070B413780C7A83F002039C4220D0214D0B892C6898
:205EE0001BB94B89B3F57F4F0CD0012201F10803824004F1080603CB2E6020606160D0B2A4
:205F000070BC70478B89FE2BEFD10223CA8903FA00F024F8022B2C60C0B2F1E74C7A53788C
:205F20009C42DAD18C7A93789C42D6D1CC7AD3789C42D2D10C7B13799C42CED14C7B53790D
:205F40009C42CAD18C7B93799C42C6D1D379CA7B9A42C2D1032303FA00F0C0B2D0E700BF45
:205F60002814002010B5124C0220A17904F07AFAA379112B09D0062B07D03A2B0FD0BDE8DC
:205F800010400021012004F06DBA238D618D0120BDE81040994228BF194604F063BA218DC0
:205FA0000120BDE8104049BA89B204F05BBA00BF302100200E4B1A78012A01D00020704796
:205FC00010B459880288914202D0002010BC70474288998802309142F7D1D98830F8022FD8
:205FE0009142F2D1428819899142EED11846EDE7580D002008B50146102004F041FA044BA4
:2060000000219B6803489847BDE80840FBF7D6B80CD700001960000010B50C461146204695
:20602000FFF7EAFD044B1B6813B19B6820469847024B1C6010BD00BF640D0020301400205B
:206040002DE9F843184D00222B469C78713334B101320C2AF9D14FF0FF30BDE8F883C2EBEC
:20606000C20402EB041405EB040888F80110074604F052F9DFF838900C4B99F800101E681F
:20608000401A88F802002F550E4404F045F999F800200334821A3146281906F059FF98F802
:2060A0000200BDE8F88300BF6C0D002038140020971F00202DE9F04780461646002A3DD17D
:2060C000664D89462E46738A17464FF0020A4FF0FF342BBB631C2ED0BAF1010F06F1B806E0
:2060E00019D1621C14D0B82606FB04F6AF190F20A7F81290A7F8108004F0CEF90146384694
:2061000004F0F6F906F1180028444021FDF770FD2046BDE8F087738A4FF0010A002BD9D0C2
:2061200006F11800FDF778FD002843D1611CD3D1738A002BD0D1CAF10204CDE7474D2B8A03
:20614000834208D0B5F8C830434524D04FF0FF342046BDE8F0876B8A002BF3D00F2004F087
:206160009BF90146284604F0C9F90028EAD00024E7B238463146FFF763FF00282BDB0028DE
:20618000E4DDB82303FB0455AB8A64B21844A8822046BDE8F087B5F8CA30002BD6D00F2012
:2061A00004F07AF901462E4804F0A8F901240028CCD0DDE72B4BCAF10200778203F24C51BB
:2061C000C0B29A781AB11A78824208BF9F7071338B42F6D17EE76B8AE3B1002C39D022487F
:2061E000FDF71AFD0028B1D0002210461D4B6A8203F24C519A781AB11A780AB99A70013020
:2062000071338B42F6D10028A0D031463846FFF717FFB4E7B5F8CA30002B97D0002C95D147
:206220001248FDF7F9FC002890D00022104694460C4BA5F8CA2003F24C519A782AB11A7852
:20624000012A04BF83F802C0013071338B42F4D1D9E7B5F8CA30002BE2D177E7B81200201F
:20626000701300206C0D0020D0120020881300202DE9F84315090F2D0646994602F00F044A
:2062800022D00F2C0DD022462F46C5BBA046C2F11002F019002106F033FF9CBB15BBBDE8CE
:2062A000F88335BB1024DFF88490D9F8007038687968BA68FB6830607160B260F3603C44C7
:2062C000C9F80040BDE8F8830F2C11D01027A0463A463D46304606F03BFE07EB08020F2A87
:2062E000DBDCD4E749463046BDE8F843FDF7C0BF10254FF010082A4644462F46EAE72A4698
:20630000A046E7E7DFF82490C8F11000D9F8007030443946224606F01BFE022CCFD10A2DC5
:20632000CDD8FF22FE23F2723373C8E7281400202DE9F04F002589B00F20DFF83493C04CD5
:2063400004F0AAF804F07AF989F80050257003F0CFFFBC4E3060042004F08CF83368BA4945
:206360001A8800B252BA92B20860111201F0F801C02964D0E0290FD02278A846995C0095ED
:2063800001F0E0006028AB46B04F76D0412900F0168109B0BDE8F08F588893F804A02378F6
:2063A000C2F30A0B40BA053380B2524659462370FFF780FEB0F1FF3F8046EAD0B823A44A49
:2063C0002F4603FB00239B8A01225B4534BF002301230092019303F09FFF23788342D8D83E
:2063E00003F09AFF237899F80090C41A09EBCA0A984AA244BAF57A7F1460CAD837B13168A8
:2064000007EB09001944224606F0A2FDBBF1000F40F03281009B002B00F04081019B002B4B
:20642000B7D08D4BA3F800B08C4C236823B1FFF799FD23685B68984700F08AFEA9E75888DA
:206440002378C2F30A0B40BA043380B22A4659462370FFF72FFEB0F1FF3F804699D0B827C2
:206460007B4A336807FB00270122009222782237995C01F0E000602888D1981845780232A3
:206480001344DFF8F0A16AB2002ACAF80030BCBF0133CAF80030C806019201F0080200F117
:2064A000B780DAF80030002A00F0018160223A7093F800C0D81C4FEA9C0202F030020CF0A5
:2064C0000F0C42EA0C027A70B3F80130CAF800007B8011F00403029306D1DAF8003013F863
:2064E000012BBA71CAF8003011F0030100F0FD805B4B5B5CFB716A06C5F3011340F1128118
:20650000019A002AC0F22F810022002B40F0E581194607F108020392524A0F20D25C0591EC
:20652000049203F0B9FFDDE9042103460398FFF79FFE05F0030205F0040315F0080500F0C0
:20654000DC80B3B94849531E0988012BADF81C1007D8DAF8003013F8011B8DF81D10CAF867
:206560000030424900238A5C07F1180007A9FFF77FFE99F80020DAF8003002F1280189F8D4
:206580000010029929B1197801F0F801F02900F00D8132689B1A2370BBF1000F00F0D78080
:2065A000ABF128031A127B713A71BB79112B4FF0000300F0C5800193009D9A460BE73946E8
:2065C000501CC0B2034403F12000D3F800A0D3F804E0D3F808C0DD6810338342C1F800A02F
:2065E000C1F804E0C1F808C0CD6001F11001ECD10025019518685B6808604B6099F80030BE
:2066000029322833AA46227089F80030009DE2E6002A47D1DAF8003018461B78C3F38303BB
:2066200043F060033B7010F801CB7A804FEA9C0303F0300343EA8C13CAF800007B7048E7A5
:20664000971F0020381400202C14002030210020B8120020341400201C210020640D0020E7
:2066600060D6000064D6000040D600006CD60000981F00202814002045B1B822A14909EB71
:20668000040302FB08129BB293821384019B002B40F0DE80009B002B7FF47BAE9A4B4C44B7
:2066A0001C80C1E6602200233A807B8011E7184633F8012F9B78A7F80120FB7010F804EB57
:2066C00097F801C04FEA9E0303F030020CF00F0C42EA8E1203F00F0343F0600342EA0C02B3
:2066E000CAF800003B707A70F3E6DAF8003013F8012BFA71CAF80030FDE6002B49D0019B11
:20670000002BC0F2E3802B46804D2978012902D1697899422DD000237D4A9A4601931360D3
:20672000009D58E67B4A0F20D25C039203F0B4FE039A0346784907F10800FFF799FDF8E611
:206740001A460193BB889246BB85009D43E603F0E3FD237899F80020C31A1344283B1A1242
:206760007B713A7121E7217832680A4492781209CBE66A49664B8A5C102001921D6003F0A6
:206780008BFE019A0346A91C07F11800FFF770FDEFE6604B10209D5C03F07EFE2A46034683
:2067A0005D4907F11800FFF763FDE2E61121B971187800F0F301F03900F00400032900F2FA
:2067C0009C80DFE801F03B322302597802330909A1F5756189B2090241F0F001398513F89E
:2067E000011C01F00F01A1F5756189B2090241F0F0017985CAF8003020B933F8021BF98518
:20680000CAF80030303289F80020C2E659780433A1F5805189B2090241F0F001398533F81B
:20682000021C7985CAF80030E6E7B3F801100433398513F8011CA1F58051D6E7B3F80110C4
:206840000533398533F8021C7985CAF80030D3E7B82303FB08F32B4F314D03F122013B44ED
:206860001A8C39442F48A3F814B0EE1E06F070FB06F24F5A02E07135554510D015F8012CD5
:20688000002AF8D015F8033C9845F4D115F8020C244B294603EBC00006F05AFBEBE7B82379
:2068A00000225FFA88F803FB087711467A821E4AB3781BB13378434508BFB1707136964214
:2068C000F6D1009B002B3FF4E9AEAAE5217833680B449B7803F00F0316E70C480178012943
:2068E0007FF419AF417891427FF415AF084A811C106007F1080203920EE60023009D01935C
:206900009A4668E5B81200201C210020580D0020680D002068D6000044D6000064D6000057
