:020000040000FA
:2000000000500020E100000079B60000C90000007BB600007BB600007BB600000000000004
:200020000000000000000000000000007BB600007BB60000000000007BB600007BB60000FC
:20004000812000007BB60000619E00007BB60000D5140000D91B00007BB600007BB600005F
:200060007BB60000819E00007BB600007BB600007BB600007BB600007BB600007BB600000A
:200080007BB600007BB600007BB600007BB600007BB600007BB600007BB600007BB60000D8
:2000A0007BB600007BB600007BB600007BB600007BB600007BB600007BB600007BB60000B8
:2000C0007BB60000B52C0000044B1A68B2F5806F03D01B689B0500D4FEE7704728ED00E04C
:2000E00008B508F0D5F80C4A0C4B0D498B420DD30C480D494FF000028842B8BF40F8042B3B
:20010000FADB00F04BFCFFF7DFFF08BD52F8040F43F8040BEAE700BF4FD5000000000020BF
:200120007402002078020020D62A002010B5038804464BB1662B0DD1084B1B788B4207D1DF
:20014000104600F0BBFB01E000F01CFC66232380012002E000230380032010BDCC2A0020DF
:200160002DE9F047002581462E46204CDFF88880DFF888A009EB060219F80630577807EB84
:200180000327BFB2A7B9002D14DB05D001350236102EEFD1BDE8F0872068154AC0F580715E
:2001A00040440BF0E6FB2368012502332360EEE7002D17DC216808EB0100C1F580712EB17E
:2001C0000C4A0BF0D6FB23680133236020683B46C0F58071524640440BF0CBFB2368184448
:2001E0002060D4E74FF0FF35F0E700BFA0020020EFD00000F0D00000FC1A0020F2D0000082
:20020000F8B5838D0446DC2B52D013D8A42B07D0D62B00F09C80002B40F08580A4238385E1
:200220003322694904F12C0006F070FA012820D80020F8BD40F2511293425ED0B3F5A97FD8
:2002400069D040F2031293426DD160480BF06AF95E49024604F12C0006F058FA0128E7D9C4
:2002600000225B4D5B4B28681A600BF0DDFC286030E0594955480BF0F7F80E22554B1A6025
:20028000564B186808F018FB554B1860544B514D18684E4E00284AD12868524AC0F58071AC
:2002A00030440BF066FB2B6812332B60DC23A38546480BF037F94549024604F12C0006F03E
:2002C00025FA0128B4D90022424B1A6003F0A4FE3F4B18603E4E3F4D30683C4F00284DD108
:2002E0002868414AC0F5807138440BF042FB2B6806332B6040F25113A38534480BF012F9F2
:200300003249024604F12C0006F000FA01288FD94FF4A973A3850F22344904F12C0006F02C
:20032000F5F9012884D900230320A38581E7FFF717FF28682E4AC0F5807130440BF019FB36
:200340002B680133D32B2B6010D9D623A3851F480BF0E8F81D49024604F12C0006F0D6F96D
:2003600001287FF665AF00221A4B1A601C4D1B4B296818680CF03EFA286087E70830FFF792
:20038000EFFE28683368C0F580711A4A93F8243038440BF0EEFA2B6818442860306803F0FB
:2003A0002DFEFFF7DDFE28683368C0F580719B69114A38440BF0DDFA2B68184440F203138C
:2003C0002860A38541E700BF70D00000FC1A0020B8020020A0020020A4D000005801002087
:2003E000B4020020B3D00000D8D00000DFD00000C4D00000C6D00000D0D000000048704784
:200400000102000045F23F02064B10B51A800223054C238001F00AFA0023044A238013700C
:2004200010BD00BF2C25002018250020EA1D0020F8B504880546B4F5CF7F17D004D8CCB180
:20044000002303202B8014E040F2AF139C4253D0B4F5DE7FF4D12B4B1B788B4240D12A4B9B
:200460009A423DD11E200BF0CAFE39E0852911D00120F8BD254B20461C70254B5B6998479E
:20048000244B22461868852103F074FA4FF4CF732B80EDE71C4B012181209B6898471B4B88
:2004A0001B7803B31A4B01205B6998471A480BF03CF90024194E06F11A07A3191A7E62B12E
:2004C00093F82A30012B08D820200BF027F9381906F0AEFB0A200BF021F92034602CECD104
:2004E0004FF4DE73D4E780210D480BF05AFAFFF789FF40F2AF13CBE709480BF06DFA002869
:20050000CDD1B5E7C62A002044CF0000FC1B002024D00000A4090020F5D00000AC230020D2
:20052000A4020020034630B5154A85B000F1100553F8041BAB4242F8041BF9D103466C46B8
:20054000224618685968083303C2AB421446F7D101240C4B0C4968461C700BF041FB002180
:200560002246684603F080FB69461E2007F0CCFB18B1402202490BF098FC05B030BD00BFE6
:200580007C160020FC1B00202425002008B54FF4E13001F03FF80448002103F013FABDE8BE
:2005A0000840024801F03CB95C000020B10500007FB52D4C23782546212B2DD161782B4848
:2005C00002F0B4FB00232A4A13802A4A13706278502A12D1CDE902336B4654F8020F616860
:2005E00003C3254802F0A2FB684606F021FB0A200BF094F86846FFF795FF204C204A04F1C5
:200600001005234603CBAB42106051601C4602F10802F6D104B070BD3F2BEED16178194816
:2006200002F084FB63784D2B17D1212323700023154E16499A5D0133140902F00F02645C47
:20064000525C05EB4300082B05F813404270F1D11222074B1A8001F0E9F80023044A1380CC
:20066000044A1370C9E700BF2C25002067D1000018250020EA1D00208DD100003425002036
:200680008C1600209DD1000024250020BDD1000008B510220C490D480AF092FD80B90C4884
:2006A00002F044FB084806F0C3FA0A4802F03EFB094806F0BDFA0A200BF030F8002008BD59
:2006C00001F0B4F8FAE700BF342500208C1600202DD1000061D100004425002070B5038938
:2006E00004469E2B13D004D87BB100230320238115E0A32B24D0BA2BF7D10A2104F1080086
:2007000006F062F8012834D808E09E230381202104F1080006F058F8012801D8002070BD54
:2007200004221C4904F152000AF02AFF30B11022194B02201A7000232381F0E7A323238199
:2007400004F108052021284606F03EF80128E5D994F852302F2BEAD194F8533004F16C063C
:20076000202B09D10D4B1B88A4F86C30012384F87430BA232381C0E728460BF08BFA0023A4
:20078000204480F85130022204F1520130460AF041FFEBE752D20000B82500200AD3000010
:2007A00038B5838D0446632B0D4604D0762B11D0C3B96323838528460AF0B4FE29460246E0
:2007C00004F12C0005F0A2FF012801D8002038BD7623A3851B22054904F12C0005F096FF54
:2007E0000128F3D900230320A385F0E736D2000010B5B0F850300446882B2FD007D8ABB193
:20080000862B20D000230320A4F8503022E08E2B3FD08F2BF6D1236F20469847012818D999
:20082000002310222367204B1A70EBE703676D30FFF7E4FD206748BB1C4B1B88A4F86C3068
:200840008623A4F850301A492046FFF7A9FF012801D8002010BD8823A4F85030A38D53B182
:20086000562B0AD0002310210F4AA3851170A4F850300220EEE75623A38558220D4904F14E
:200880002C0005F043FF0128E3D9EBE78E23A4F8503009492046FFF783FF0128D9D98F23B4
:2008A000A4F85030B7E700BFB8250020CED10000ADD20000DDD1000057D200002DE9F04186
:2008C0002D4D04462B78A84613F0300601D11A0608D594B1002323672146BDE8F04127481D
:2008E0000BF00EB913F0400732D024480BF0F4F8044620B9202388F80030BDE8F081204B00
:20090000014604F15205186805F0DCFF1922294604F108000BF0C3F9294604F12C001922CB
:200920000BF0BDF9A4F85060266784F874604FF4A06120460BF061F82046FFF7CFFE94F82A
:200940007430012BD9D12046BDE8F041FFF750BF0028CFD01B070BD50BF061F80028EBD0DC
:2009600020232767214605482B700BF0C9F8E3E70BF04FF8E0E700BFB825002020000020CC
:20098000C825002008B54FF4A04005F085FFBDE8084001480BF090B8200000202DE9F041F1
:2009A000764C86B0236801215B68754898470122236811461B68724898470BF0A4FE01F084
:2009C00077FB01F00FFB00F0C3F901F047FB00F093F901206B4B6C4C1860A3F58043043BAE
:2009E000186003F5005324331B680AF047FE0BF08EFE00F0EBFC00F089FC0AF0FCFF00F063
:200A0000C9FD02F051FF41F234200AF094FF01F07FF803F06DF85D480AF087FE4BF2AC727B
:200A200000215B4802F082F95A480AF07EFE07F035FB594D10F0040F14BF26462E4607F0E3
:200A400035FB01280CBF27462F4607F027FB10F0020F14BFA046A84607F020FB10F0080F96
:200A600008BF2C463A464346009431464B4802F05DF900214A4802F0A5FF02F041FD0AF0DB
:200A80008FFF02200AF0FAFD464802F04FF9464B464C18680AF049FE454802F047F9454BBA
:200AA00018680AF042FE444802F040F92168434802F03CF9E469A04720B1A04701464048CF
:200AC00002F034F900260A200AF028FE08F0D0F8082104A8039600F081FD9DF816309DF87B
:200AE0001740384D384F44EA032404AB03CBD7F82C802860696002204AF6CD31C047214627
:200B00000320C04719210120C04708227B6B04A90B209847BB6A03A90120984703992B48A2
:200B200002F004F92A4B21462A481C8002F0FEF8294A2B6813606B68536007F0C7FD3146C3
:200B4000264802F03FFF02200AF098FD3146244802F038FF23480AF019FF00F031FD01207E
:200B60000AF08CFD02F0B8FE044600F01FFD14F0FF0FF7D101F020F9F4E700BFD80100108D
:200B8000004003400C40094016D300001DD3000042D3000059D300001AD300006DD30000F6
:200BA00000010020A0D300000CD0000040D00000A7D3000024D00000AED30000B5D300003E
:200BC000B8D30000CE2A002064CF0000DBD300009C160020ECD300002425002078010020FE
:200BE0002C000020E8CE00002DE9F04104880646772C20D07E2C3DD0002C4ED102F04CFE03
:200C0000284D294B294FDFF8B08018702C602B6857F823202AB9264A1370772333800120EF
:200C20003EE008F8034093680021802098472B6801332B60EBE700231E4A1360194A1360C0
:200C4000184B1B4A1B6812789A4204DC194B1B68002BF0D1E1E7184AD256002A19DA134A64
:200C6000002052F82320104B197802F083FE28B97E23D3E70C4B1B788B42D0D1094B0E4929
:200C80001A688B5C03F07F038B540A4A136801331360044A13680133D1E7002303800320A3
:200CA000BDE8F081B0030020C62A002050000020FF1B0020AC030020C72A002010B40A4B98
:200CC0000A491A780023934203DA51F82340A04208D107490748CA5C62F07F02CA5410BC71
:200CE00002F088BE0133EEE7FF1B002050000020C72A00202C00002008B500F06DF8002278
:200D0000014B1A7008BD00BF001C0020024A13781843107000F07AB8001C0020034A137855
:200D200023EA0000107000F071B800BF001C002010B5064C042023685B69984723680420FA
:200D40005B6B98470128F9D110BD00BFB8010010F0B593B00BF0D7FC0746FFF7E9FF184B62
:200D60004FF4A0601B68DB6998470122154B1A60154A13689907FCD50AF0BEFC134801F042
:200D800025F94822124968460AF04CFA114EADF1040555F8044F631C05D17FB913B0BDE8E7
:200DA000F0400BF0B4BC336820469B6B984733684FF400519B6920469847EAE713B0F0BDF9
:200DC000B801001028200860282008403C000020FCCE0000B401001010B5094B1A686AB961
:200DE0000122084C1A6023680620DB6B984723680720DB6B9847C022034B1A6010BD00BF1F
:200E0000B4030020B4010010A0200240C022074B1870074B1A60C20744BF402243F8102C07
:200E2000830742BF8022034B1A607047011C0020A0200240902002408138012808B507D857
:200E4000044B08461B685B689847C0F3804008BD0020FCE7B401001030B9064B18686FEABD
:200E6000503000F001007047012806BF024BD86800207047C0200240B803002030B9044BC3
:200E800018686FEA903000F00100704700207047C0200240802870B5144602D0812815D091
:200EA00070BD01239340164A164D13602B6820469B6B98472B68204600211B68124A984722
:200EC000E0B21249BDE8704001F0B2B80D4D99B1012393400A4A204613602B689B6B984735
:200EE0002B68094A1B680021204698472B681B6B2046BDE8704018472B685B6BF8E700BFF9
:200F0000E0200240B401001000400720110F00000D2838B51CD1134C20460AF080FD60B1E7
:200F2000042120460AF069FD0F4B1D68C5F3403525B900F035FAC4E9020538BD00F030FAFA
:200F4000A368C01AE0600948BDE83840FFF7B6BE0E28F2D1BDE838404FF080524FF4804169
:200F600000F064BEB8030020C020024044CF000073B5042100244FF48015174BADF80040BF
:200F80001868164B01901D600DEB010000F0B2F8134E10B93560FF2017E00221684600F039
:200FA000C7F835600028F6D09DF80030EF2B01D0C22B0CD19DF80100A0F11103012B08D92D
:200FC000143801288CBF0020012002B070BD2046FBE70120F9E700BF09D40000A02002404A
:200FE00090200240052337B54FF4801502AC04F8043D0E4B1D6000F0BDF80121204600F035
:2010000079F880B101210DF1070000F091F828B94FF48012064B1A6003B030BD9DF80730A1
:20102000DB07EFD4F4E7024B1D60F5E7A02002409020024037B50A210F4800F0ADF80F4B39
:2010400014201B684FF48014DB6B9847AB230C4D02A82C6000F8013D0A4B01211C6000F067
:2010600049F808B1FFF7BEFF2C60FFF781FF431E5842584103B030BD00093D00B401001082
:2010800090200240A020024037B5FFF7ABFFB8B1B9234FF4801402A800F8013D0A4B0B4D27
:2010A0001C60012100F026F82C600A24FFF760FF30B1013C14F0FF04F8D14FF480132B6026
:2010C00000F0C6F803B030BDA02002409020024008B5064B02201B685B6B9847012809BF85
:2010E000034B0020186800F0010008BDB801001078200840F7B504460D46FFF7E9FF064630
:2011000018B10A4F2544AC4202D1304603B0F0BD3B6814F8011B5B684FF0804098473B689E
:2011200001A9DB684FF080409847ECE7C4010010F7B504460E46FFF7CBFF054658B10C4F83
:201140002644B44207D03B6800219B684FF08040984718B90546284603B0F0BD3B6801A97C
:20116000DB684FF080409847019B04F8013BE8E7C401001013B5FFF7ABFF40B1054C2368A1
:2011800001A91B694FF0804098470028F7D102B010BD00BFC4010010F0B5244C0746236853
:2011A00085B05B6902200E469847236802205B6B984701280546F8D123684FF48070DB6950
:2011C00098471B4B1B4A1D6013689B07FCD51A4A08251368194C23F00F0313600322184B69
:2011E00018491A602368CDE900751F6800234FF080401A46B847144B09221B6800965E6CE9
:2012000029464FF0FF334FF08040B0470F4A136843F002031360236803A91B694FF08040BF
:2012200098470028F7D105B0F0BD00BFB8010010282008602820084014000040C40100108C
:2012400020000040006CDC02B40100100400004010B5174B4FF480701B681B6A9847012277
:20126000144B1A60144A13689B07FCD5134C082023689B6B984723684FF400519B69082007
:201280009847236809209B6B984723684FF400519B690920984723680A209B6B9847236886
:2012A0004FF40051BDE810409B690A20184700BFB80100102820086028200840B40100108B
:2012C00010B5064C042023685B699847236804205B6B98470128F9D110BD00BFB801001009
:2012E00010B50749074C0B6820680A689342FAD1DA010023044902EB5062C1E9002310BDF5
:20130000082009400C200940780200200020002110B5194B194CC3E90001236804205B6B5C
:201320009847012801D0FFF7CBFF23680020DB6998470122124B1A60124A13689B07FCD502
:20134000114A124C1368124923F4807323F001031360104B20461B681B689847042331224A
:2013600023600D4B1A6040F2212243F8342C01220A4B1A6010BD00BF78020020B801001027
:2013800028200860282008400C0001400000014000210004C80100103C0001400400244399
:2013A00008B5FFF79DFF024BD3E9000108BD00BF7802002010B50BF0A6F9034B1C6808B9C4
:2013C0000BF0A5F9204610BD082009402DE9F0410BF099F9012400254FF480721B4B1C4FAC
:2013E0001C4E3D601C601A604FF480321A60336880461B68232128469847336824211B68A9
:2014000020469847336825211B6802209847124A136843F4E0231360104B1D6006F0FEFDD5
:201420000F4B00F5007018600E4B14201C600E4B3C601B681B699847B8F1000F03D1BDE860
:20144000F0410BF064B9BDE8F08100BF04200940000024438401001000200940082009402B
:201460001C200940A0022443B0010010431E012B10B501D904281AD110F001021CBF0C4BA5
:20148000196010F002031CBF0A4C216010F004001CBF094C216012B10121084A116013B1FB
:2014A0000122074B1A6010B10122064B1A6010BD182009401C200940202009408002244349
:2014C000A0022443C0022443014B1868704700BFC803002008B50BF06DFA154B18600AF0BC
:2014E00012F9144B1B686BB14FF48072124B1A6006F094FD00F2052020F4FF700F4B20F04C
:20150000010018600E4B1B683BB100220D4B1A600122094B1A6002F08BFA0B4B1B6833B171
:2015200000220A4B1A604FF48032034B1A6008BDC8030020A0002443042009401C20094054
:201540008000244380022443C0002443C0022443820742BF0122034B1A60C30701D50BF05B
:20156000D6B87047000C084008B50BF0CCF8074B1A68012A09BF064A00231A600223002855
:2015800014BF184643F0010008BD00BF000C084051E5CC1A034B044A1A600122C3F8002CD2
:2015A000704700BF00000840FFFF0F00024B034A1A600122DA60704700000840FFFF0F00E3
:2015C00008B5FFF7D1FFFFF7F1FF0122024B1A60BDE80840FFF7BCBF0401004310B50A4BF8
:2015E0000A4A1C78FF2C08D101339342F9D1084B19440138994202D110BD034BF8E7013961
:201600000A7800F8012FF5E7C8FF0100D0FF0100F0120050014800F0A3BA00BF7918000074
:201620002DE9F047038805469BB1B3F5A57F40F0DE8082294FF0010018D16F4B6F4F704ED7
:201640001870398830880024814211D16D4B1C8008E06B4A13806C4A1380684A138001228B
:201660006A4B1A704FF4A57301202B80BDE8F0873ED3224623464FF0C0094FF0DB0ADFF803
:2016800098E1DFF898818E4401EB020C1FFA8CFCBCF19B0F02D88C2C5BD9002400224FF0D2
:2016A000C0084FF0DB09DFF870E1DFF870C191B288423FD98C2C3CD812F80E10002B6AD091
:2016C000DD2963D104F80C900134A4B2002368E0BAB113F8012FDD2A05D104F80CA00134E2
:2016E000A4B200221FE0DC2AFBD104F80C90F6E7DFF824E14FF0C009F0464FF0DB0ADFF817
:201700001CC11EF80130DB2B16BF0022012204F80C3001F101039BB218BF013403F1FF33D8
:2017200018BFA4B24344013189B2884202D98D2CCED10024013080B29C2804BF00233380A7
:20174000314B18BF3080328819888A424BD13A803DE01EF802C073B1BCF1DD0F05D104F805
:2017600008A00134A4B200230CE0BCF1DC0FFAD104F80890F5E7BCF1DB0F05D004F808C024
:201780000134A4B201327FE70123FBE7DC299DD104F80C8098E7DB2905D004F80C1001347F
:2017A000A4B2013283E70123FBE701339BB29C2B4FF0000000D103469942C8D01CF8030005
:2017C000C028F2D1124833803A8002F013F90D4B1C80002C3FF446AF0E4B1B6803B19847E2
:2017E00005F08CF83EE71046DFF82CC0E3E70023038003203AE700BFCA2A00209E160020D7
:20180000A216002018250020A01600209E1C00205C000020CC030020021C00202C250020C9
:20182000014B1860704700BFCC03002070B5C02009F0A5FF00240E4D0E4E2A88A3B29A421F
:2018400004D8C02009F09BFF002070BDA05DC02807D1DB2009F093FFDC2009F090FF0134F0
:20186000EBE7DB28F9D109F08AFFDD20F5E700BF182500202C25002038B5204B1A781D4694
:20188000022A07D0032A25D1C02804BF01221A70002032E000F12402D2B2012A06D90322CE
:2018A0001A70174B1A88174B1A80F1E701232B70144B1A88511C89B29C2908BF0021198018
:2018C00011490C881988A14208D103222A700C4A1288E9E7DB28EBD10223E8E70B49C0284F
:2018E0008854D5D1064908889042DDD08442084808BF0A8002F07EF8012038BD9E1C002049
:20190000A2160020A01600209E160020021C00205C00002008B5084B15201B685B69984720
:20192000064A136823F4FE6323F00203136040F2F272034B1A6008BDB0010010381000406D
:201940004410004008B5064B02201B685B6B9847012809BF034B0020186800F0010008BD06
:20196000B80100106C20084038B50546FFF7EAFF18B11E4A13681907FCD4032D03D01C4BAD
:201980001B68002B30D1FFF7DDFF30B1194B1A481B68DB689847FFF7BDFF184C4FF40070B1
:2019A00023681B6A9847032D09D123684FF400709B6A984723684FF400701B6B9847012246
:2019C0000F4B1A600F4A13689B07FCD5032000F019FB022000F016FB132000F013FBBDE8CC
:2019E0003840122000F00EBB38BD00BF18100040D0030020D001001000100040B80100107B
:201A0000282008602820084038B50C4C022023685B699847236802205B6B9847012805462B
:201A2000F8D123684FF40070DB699847044B054A1D6013689B07FCD538BD00BFB8010010F6
:201A4000282008602820084037B5264CFFF7DCFF2368254DDB6825489847FFF75BFF2B68A8
:201A60000320DB6B98470822214B02211A6012222B6800921D6C032213231C48A8472368D0
:201A80004FF4E1325C681B4960231848A0471422194B40F201311A60184A136843F0100363
:201AA000136040F20113164A1068002818BF0B4601F1804101F62F510B6040F2F271114BBF
:201AC0001960136863B115200F4A136843F0500313600E4B1B681B6903B0BDE83040184775
:201AE00003B030BDD0010010B40100100010004090200240006CDC02341000402C10004014
:201B0000D00300204410004038100040B001001010B50AF0F8FD0446054800F057FA002247
:201B2000044B1A601CB9BDE810400AF0F0BD10BD6C000020D003002010B50446FFF702FF19
:201B400008B9FFF781FF044B2146BDE810401B680248DB69184700BFD00100100010004043
:201B6000124B10B51860124C124BA8B9186123684FF400709B6A984723681B6B4FF4007050
:201B8000984701220C4B1A600C4A13689B07FCD5BDE81040FFF758BF02221A6123684FF4BF
:201BA00000705B6A98472368DB6AE7E7D0030020B80100106C0000202820086028200840EB
:201BC00008B5FFF7BFFE18B1024B1868C0F3C00008BD00BF1810004070B5FFF715FF40F23F
:201BE000F2710C4B0C4A1B68116013F0500F05D00A4C0B4D0B4E2368DB0600D570BD2B68A2
:201C000030461B699847084B1B68002BF3D0C0B29847EFE740100040441000401810004074
:201C2000D001001000100040D00300202DE9F3474023002442F0005242EA0107CDE90043F8
:201C400006460AF060FD0122434B444D1C60444B1A604FF480721A604FF480321A602B6869
:201C600020461B683F2101349847042CF7D100243A4D2B6820469B683F2101349847032CC5
:201C8000F7D1384D2B68FFF791FC374809F0D8FE0446002C59D1731C0AD0344B3A4643EA5E
:201CA00086031C60324B21461B6830461B68984700244FF00108DFF8E4A02E4ECAF800409B
:201CC000336807209B699847684607F063FE00F02FFA09F056FD284A284F1368382023F025
:201CE000030313609368DFF8B89023F00F03936033689B6998473C60012007F06BFE204B33
:201D00003C60C9F80040C3F800801E4B1E4A1C605C601E4BCAF800401C602B6813680321C9
:201D200023F0030313601A4B1A481B685B689847194B3C60C9F80040C3F800802B683368C1
:201D40009B6B984702B0BDE8F087A3680BB10320984724689DE700BF00002443840100103C
:201D6000042009402C200940D4030020001A4442B4010010B801001000100940401009404A
:201D800088010443400122432422084008000940D801001000400340181009400C4009407C
:201DA00020042243034A136823F00403136030BF704700BF10ED00E0F8B50AF0A4FC01F0CB
:201DC000CFFD002844D1744809F03AFE02240646002E41D10AF0EEFD704B05461B6863B1D9
:201DE0006F4B1B681B1A022B04D4A3F28F23002B03DA0126B44228BF344601F0ADFC0028DD
:201E000000F0A18001F0B0FC0646FFF7C9FA361A002E2ADDFFF758FB00EB4626721BA2F2C9
:201E20008F22002A80F294800122A242104628BF204601280CD1002A00F08780721B082AB1
:201E400016D505F108010220FFF710FBFFF7AAFFBDE8F8400AF05BBC736823B19847844294
:201E600028BF0446E4B23668B2E700221646DCE705F580318A1B11EA220138BF3146E2E77E
:201E8000AB680BB1022098472B692D6824EA03046DE0002C74D100F04BF9002007F09AFD94
:201EA000404A3920136823F003031360936843F00F0393603C4B1B689B69984700203B4B72
:201EC000186018603A4B186006F068FA062C02D1022006F08DF8374C374D384F2B6823686F
:201EE000032123F0030323603B6835485B6898472D4B1B689B6B98472B6806F045FB002295
:201F0000304B01211A603B682D485B689847236843F003032360012333602B6806F064FB0A
:201F200007F024FD09F0EFFBFFF740FB1A4809F087FD044614B90AF0EAFB89E7E36803B131
:201F400098472468F6E7012C20D105F580317AE7012C3FF473AF022C7FF47AAF31462046E6
:201F6000FFF784FA0C4809F06BFD06240546002D86D1FFF71BFB14F0040F134E89D03560CD
:201F8000094B20461B689B69984784E7022C7FF45FAF691EE3E700BFD40300208002244317
:201FA0001820094000100940B80100104010094020042243242208402C200940D801001050
:201FC00000400340800104430C4009400146014809F053BDD40300200146014809F03ABD11
:201FE000D403002010B5054809F027FDBDE81040034B20211B6803201B681847D4030020B8
:2020000084010010431C10B504460BD0064B4FF4C0421B6800211B6898470023034840EAAE
:202020008400036010BD00BFB4010010001A444238B504460D460AF066FB0123054AA3408D
:202040001360054B43F8245018B9BDE838400AF05EBB38BDE0200240D80300200023194659
:20206000054A42F823100133202BFAD1034B10201B681B69184700BFD8030020B0010010FB
:20208000F8B500240126084B084F1D681D6006FA04F32B42E0B203D057F8243003B198479D
:2020A0000134202CF3D1F8BDE0200240D80300201FB50022412302A8CDE9022307F06AFCAD
:2020C000042006F0F3FA032810D00321042006F0C7FA042006F0EAFA0328FAD100901C232C
:2020E0004FF04052002104480AF023FB02A807F0A3FC05B05DF804FB00A00C4007B5412335
:2021000000226846CDE9002307F044FC012006F0CDFA012803D0054B986B05F0ABFF684665
:2021200007F08AFC03B05DF804FB00BF4800001013B5412300246846CDE9004307F02AFCF0
:202140000320214606F08CFA012006F0AFFA18B1044B986B05F08EFF684607F06DFC02B05C
:2021600010BD00BF480000100021034A1368197219711B68136070475807002008B507F09D
:2021800099FC20B1024B5888831E5842584108BD5804002073B5FFF7F1FF0446D0B901A90C
:2021A0000D4807F08FFC012811D10B4C0AF002FC254600F140066388022B04D00AF0FAFB71
:2021C000801B0028F7DB6C88A31E5C425C41204602B070BD0120FBE75804002000B589B0C8
:2021E00040F60202182102A80AF0EDFB114B01A91B6802A89B88ADF81A300F4B07939DF812
:20220000183003F0F8036FF3C3038DF8183001238DF8163007F056FC012808D102A807F0B8
:2022200091FC431E5842584109B05DF804FB0020FAE700BFC0000020940000200020F8B54F
:202240000A4D0B4E2C680B4F2379032B02D02379022B05D1337813B9384601F0CBFB0120D8
:2022600024682B68A342EFD1F8BD00BF50070020A11C00202402002008B5B4290A4601465B
:2022800028BFB422024808F0CDFF002008BD00BF5E07002037B507F037FD044607F00AFCEC
:2022A00090B101A9094807F00DFC01280CD10AF081FB00F14005638803F4406323B90AF0D5
:2022C00079FB401B0028F6DB03B030BD010001040B280DD1082A16D1A9B10C4A4B1E073115
:2022E00012F8010D03F8010F8B42F9D1002070470C2806D1042A06D129B1054B1B680B6025
:20230000F4E7012070470220704700BF88040020E004002013B5FFF731FFC8B109F077FAF1
:202320000028FBD101A90F4807F0CCFB0AF042FB00F14004FFF722FF20B10AF03BFB001B4B
:202340000028F7DB084B588842F20243984201D1012004E042F20743C31A5842584102B0E6
:2023600010BD00BF01000104580400200B2810B51BD1082A1BD1D1B10F4A01F1080313F86A
:20238000010D8B4202F8010FF9D1FFF7F7FE80B1FFF7C0FF012814BF03240024FFF7FAFE88
:2023A000012818BF0324204610BD0124FBE70224F9E70446F7E700BF7F04002070B50546BC
:2023C000FFF7DCFE58B10AF09EF9104C0646104B35B11B6823600EB90AF099F9012070BD03
:2023E0001D68002315F1804043F1000100232268994208BF904207D20AF0DCFA054B064AD0
:2024000018601368013313602560E4E7E804002004300440E4040020EC04002010B507F07A
:2024200059FD012823D009F0F2F904460028FAD1FFF770FF07F0B0FCFFF77AFE0D4B5C805F
:202440000D4B1A79022A08BF1C710C4B1A79022A04BF00221A710A4B1A79022A04BF002292
:202460001A71084B1A79022A04BF00221A71012010BD00BF5804002010050020A00500202C
:2024800030060020C006002038B507F023FD012801D1012038BD09F090F9FFF76FFE0028DE
:2024A000F7D101248820194A194B51795D7964F383015171174964F383055D711960D880A5
:2024C0001360154B4D79D0801A605A7964F3830564F383020B604D71C8805A71D880FFF781
:2024E0000DFE0AF07DFAA04201D00020D2E70B4B1878003018BF012007F0B4FBFFF76EFEBE
:202500000128F2D1BDE83840FFF744BE10050020A005002030060020C0060020A11C0020A7
:2025200073B50C46072800F29280DFE800F0041435383B64698D012905D1FFF7A5FF01285A
:2025400028D1002404E0002940F08380FFF766FF204602B070BDA1F10B030F2B79D83E4BCA
:20256000CCB29A7BA242ECD09C73FFF707FE0028E7D0FFF7CFFE01280CBF002403240AF043
:202580003DFA012802D10020FFF718FFFFF702FE0128DDD00324DBE72F4B5986E5E72E4B88
:2025A0001986E2E731F0070153D12B4AC4F34000137E64F30003DBB243F0020360F3820372
:2025C00003F0870361F3C7131376537EC4F3800461F3C7135376214B19781C708C42C4D1D8
:2025E0001F48138B01A9438007F06CFA00280CBF03240024ACE731F001032AD1CCB2A7E70F
:2026000001F115031A2B24D8164B0C251E4653F83510EA008C4213DC1344134A136007F024
:2026200049FA00288DD0102306EBC505ADF80430AB88694601A8ADF8063007F043FA80E70A
:2026400015F1FF35E3D2EAE7034B19778DE701247EE702247CE700BF58040020A11C00203D
:20266000D8040020A4CF0000C0000020F0B50C4685B0002900F08D80102800F28C80DFE8BC
:2026800000F0091216191C3134383C81858A8A787A7C7F00FFF772FD003018BF01202060F7
:2026A000002005B0F0BD3D4B9B7B2360F8E73B4B5B8EFAE7394B1B8EF7E70023374A0B602E
:2026C000137E03F001030B60127E520744BF43F002030B60324B1B78002BE1D00B6843F0E6
:2026E0000403E2E700200860DBE72E4B1B681B68DBE72A4B93F91C30D7E7FFF73FFD40B949
:20270000FFF7C2FE012819D06FF07F0323600320C7E700254FF000020221002642F203478F
:2027200061F38302CDE902668DF80C209DF80C3003F00C03082B03D0ADB112E00546E9E7AD
:2027400001A902A8CDF80A60ADF80E60ADF8087007F0B8F90028E9D180238DF80A30002DAD
:20276000D2D0FFF75BFE9DF90A302360803397D1CDE70B2399E71A2397E76FF0140394E7EC
:20278000052392E7084B1B785BB28EE7074B1B788BE7022085E7012083E700BF5804002085
:2027A000A11C0020C0000020A01C00209F1C0020F0B589B00646FFF7E1FCC0B9FFF764FED7
:2027C000012858D105460AF0F5F86FF01F073F1A09F01DF8012804460BD10AF0EBF8C74254
:2027E000F6D4002D32D10224204609B0F0BD0025E9E70028F5D142F60142182102A8F6B204
:202800000AF0E1F88DF817601C4B1D4E0693317804949DF81430003118BF012164F30303DD
:2028200001208DF8143007F04FFA01A902A807F049F988B901243078003018BF012007F0B4
:2028400057FA002DD0D0FFF7E9FDCDE7FFF7E6FDC9E712B9FFF7A6FA3278BDF80A3003F450
:202860004063002BF5D0BDF80A40A4B2B4F5105418BF0124DFE70124B6E700BF5E0700209B
:20288000A11C00202DE9F047454C0746884625680AF090F8434E361A2B79022B03D10AF0D3
:2028A00089F8C642F8D42B79032B05D12468237A032B03D8FFF758FC00266CE0257AEDB2EF
:2028C000A5F108064645F5DC04F109013846324608F0A8FCEB1CE35CDFF8E4805BB288F859
:2028E00000300435635D304F03F03F0334443B70D4F80D90FFF742FC00284FD1FFF7C4FD3C
:202900000124FFF73BFC28B10020FFF757FD0CB1FFF784FD254BB9F1404FD3F800A00BD9F6
:202920000AF048F8224B1B68C3F17E4303F57203C34248BF0AF1FF3A6FF4BF744FF0FF3542
:202940001C4B1B68E11A65EBE37211EB090442F10005002214EB020945EB0A0A4FEA0A21D8
:20296000002343F609524FEA092041EA196108F0A5FA114B1860114B1B7853B998F8001093
:20298000042049B289B206F049F93978032006F045F9FFF7E9FB3046BDE8F0870024B0E776
:2029A00058070020FAFEFFFF9F1C0020EC040020E404002020150020E0040020A11C002079
:2029C000A01C002070B5FFF7D9FB58B9FFF75CFD012816D0002380210B4A0C48BDE87040FB
:2029E00000F0C4BD00240020FFF7E8FC05460CB1FFF714FD002DEDD00023034A4FF48731E4
:202A0000EBE70446EFE700BFC5290000F004002070B500252E4C2F48FFF7D8FA07F006F90A
:202A200090220021204608F0D5FC902200212A4808F0D0FC90220021284808F0CBFC9022D7
:202A40000021274808F0C6FC264E274B34601C60264C7E222946A01C756008F0BBFC19223A
:202A6000A273B9226F21E273214A42F6010362610722E176A62122760222238001232177B5
:202A800042F202016276FF22637384F83730194B26611980218BA27659801A71FFF7F4FCBB
:202AA0000128044612D1144807F0D4F92046FFF785FC4FF4873111482B46114A00F056FD60
:202AC0002946104800F07EFF204670BD2C46FBE71005002080000020A005002030060020EB
:202AE000C0060020500700205807002058040020A21C0020D80400209CCF0000F004002025
:202B0000C529000024020020034B1B68002B14BF01200220704700BF1408002038B5064B7F
:202B200002201B6800241D46044B1B685B689847201845F1000138BD04800240CC010010EE
:202B400038B503880446FBB1B3F5847F21D1134B1B788B421BD1124D2B682BB1FFF7DEFF1F
:202B60002B68984700232B600E4B40F201401B689B6A984701220C4B1A600C4A13689B079B
:202B8000FCD50B48FFF728FA4FF484732380012002E000230380032038BD00BF7202002008
:202BA00014080020B80100102820086028200840C400002008B5064B04201B685B6B984792
:202BC000012809BF034B00201868C0F3400008BDB80100103C20084038B50C4C04202368FD
:202BE0005B699847236804205B6B984701280546F8D1236840F20140DB699847044B054AE2
:202C00001D6013689B07FCD538BD00BFB8010010282008602820084070B51F4B1B689BB12E
:202C200000231E4A995C49B10021D1541C4A02EBC303D3E900452046294670BD0133042B55
:202C4000F0D100240025F6E7FFF7B4FF08B9FFF7C3FF144C144A216811420DD10122134B72
:202C60001A601A68002AFCD110464FF4807105F0E5F901220E4B1A6009F045FD06462368FC
:202C8000DB07FCD5FFF74AFF04460D46002ED2D109F03DFDCFE700BF14080020B21C002002
:202CA000800200200880024001000080F09F0240A802504238B500240D4D0E4A2C60136850
:202CC000312023F0010313600B4B1B685B699847224620464FF4807105F0B0F901232B604E
:202CE000064B224619780648BDE8384000F042BEA80250420C800240B001001072020020D0
:202D0000D800002010B5074C2378802B08D100F0C3FD002120700448BDE8104000F052BEE2
:202D200010BD00BF72020020D80000200FB407B504AA52F8041B0448019200F035F803B036
:202D40005DF804EB04B07047E80000201FB51446074ACDE90001029221461A4602A8CDF8BC
:202D60000CD000F021F80022009B1A7004B010BD4BB9000070B505460C460A4E102C07D86D
:202D800074B12B68224668680649BDE8704018472B68102231466868984710B9103CEDE76C
:202DA000204670BD34D400002DE9F04F0746144600258FB00791079B1B78B3B1DDF81C8076
:202DC00000E0B046464616F8013B0BB1252BF8D1079B98450ED0A8EB03094A463B680799A3
:202DE0007868984728B14FF0FF3528460FB0BDE8F08F4D4498F80030002BF6D098F8013074
:202E0000002BF2D04FF0000A314611F8012B33462B2A16D00AD8202A16D0232A17D0A2F143
:202E2000310008283FD84FF0000918E02D2A04D0302AF4D14AF0100A01E04AF0010A0E46C2
:202E4000E2E74AF0060AFAE74AF0020AF7E74AF0080AF4E70A2303FB0929A9F1300933468A
:202E600016F8012BA2F130010929F3D91A782E2A35D159785A1CA1F13000092828D8002606
:202E800011781346A1F13000092802F101021AD91A786C2A40F092805A786C2A22D14AF075
:202EA000800A023321E02A2A0AD1D4F800900B46B9F1000F04F10404B8BF4AF0010AD5E748
:202EC0004FF00009D2E70A2303FB0616303ED7E72A2903D1266802330434D9E713464FF004
:202EE000FF36D5E701334AF0600A1A78642A00F0928000F28580462A00F0AF8071D8252AC9
:202F000000F0C08066D8002A3FF46FAF013307930AF4E063B3F5806F00F0568200F2B58033
:202F2000B3F5807F00F0EA80B3F5407F7FF443AFAF4B1AF4804FAF4A18BF1A460DF1330389
:202F400000211E462068043450EA010C40F07482F61A04BF302203F8012C4FF0780208BFF2
:202F600003F1FF3303F8012C4FF0300208BF012603F8022C23220336B1458CBFA9EB060919
:202F80004FF000091AF0010AA3F1030803F8032C06D149463846FFF7EDFE00287FF423AFD9
:202FA0003B68324641467868984700287FF41BAF3544BAF1000F00F03682ACE1682A94D1EC
:202FC0005A78682A02D14AF0200A6AE701334AF0400A8AE7412A4CD0452A97D14AF4424AB4
:202FE00094E7582A33D004D8472A8FD14AF4A13A8CE7612A3AD0632A88D14AF4A06A85E769
:203000006E2A3CD00AD8662A24D029D3672A2AD0692A7FF47BAF4AF4245A77E7732A2BD03D
:2030200007D86F2A10D0702A7FF470AF4AF4407A6CE7752A05D0782A7FF468AF4AF4C85AC1
:2030400064E74AF4106A61E74AF4885A5EE74AF4B24A5BE74AF4007A58E74AF4844A55E705
:203060004AF4024A52E74AF4813A4FE74AF4C13A4CE74AF4E13A49E74AF4806A46E74AF4D6
:20308000E06A43E74AF4C06A40E7B3F5C06F2BD0B3F5E06F00F0DF81B3F5A06F7FF48BAEB1
:2030A000B9F1010F38BF4FF0010923681AF0010604F104048DF8203009F1FF3807D1414618
:2030C0003846FFF757FE00287FF48DAE45443B68012208A97868984700287FF484AE002E97
:2030E00000F0A181414617E13B68012242497868984700287FF477AE01355CE6002EACBF5E
:203100002AF0100A01261AF400520AF0E003069243D0402B3AD009D8002B3AD0202B11D0B5
:2031200000220023CDE90023002319E0602B30D0802BF5D1073424F0070303F10804D3E944
:20314000002303E094F90020D3170434002A73F10001E7DA524263EB4303CDE90023012325
:2031600005930AF4C053B3F5805F00F0EB80B3F5C05F00F0EC80B3F5006F40F00381DDE910
:2031800000230DF1360BCDE9022348E0B4F90020DAE722680434D317D8E7402B1FD009D896
:2031A000FBB1202B14D00023002205930023CDE90023D6E7602B14D0802BF4D1073424F070
:2031C000070303F10804D3E90023CDE9002304E022780023CDE900230434069BC0E7228889
:2031E000F7E72368002219460434CDE90012F4E754D40000BDD1000076D40000DDE9020141
:203200000A22002307F05AFEDDE9020130320BF8012D00230A2207F051FECDE90201DDE9A0
:2032200002231343EAD10DF13603A3EB0B030293029B41F608029E4288BFF61A41F208039D
:203240000AEA020298BF00269A4202D1002E08BF012641F60801029B8A42334440F09680C8
:20326000DDE900120A4300F091807D491AF4804F7C4A08BF0A464FF002080092069A82B1FA
:20328000059A002A40F087800AF00602022A00F08780062A744A009904BF11464FF0010820
:2032A0000091434499458CBFA9EB03094FF000091AF00103059304D11AF0100F74D04E446B
:2032C0009946D7E90030B8F1000F05D042460099984700287FF487ADB246029B1D44BAF122
:2032E000100FD7E9003066D8BAF1000F05D052465E49984700287FF476AD3B68029A594638
:2033000078684544984700287FF46DAD059B3544002B00F0888049463846FFF72BFD002821
:2033200000F081805FE502F0070130310BF8011DD10841EA4371D8080A46034652EA03016B
:20334000F1D170E7DDE900230DF1360BF6E7484B1AF4804F0DF1360B464918BF1946DDE915
:20336000002352EA03003FF45EAF02F00F00085C4FEA131C0BF8010D100940EA03700246CF
:203380006346EEE70DF1360B002350E74FF00008CDF8008072E74FF00108374A009280E76F
:2033A0004FF00108354AF9E749463846FFF7E2FC002886D017E510222C49984700287FF4EA
:2033C00012ADAAF1100A8AE7D4F800B00434BBF1000F2CD0D84698F8003008F1010223BBE5
:2033E000A8EB0B08002E02DBB04528BFB046C1458CBFA9EB08094FF000091AF0010606D124
:2034000049463846FFF7B6FC00287FF4ECAC3B68424659467868984700287FF4E4AC454487
:20342000002E7FF478AF4D44C5E49046D3E7DFF850B04FF00608D5E700F00F0C12F80CC039
:203440004FEA111E03F801CD4FEA101C4CEA017C6046714678E5236804341D60ABE400BFDB
:2034600065D4000068D400006DD4000044D4000054D40000BDD100006BD40000ACD300000A
:203480006FD40000F8B5038806461546CBB14A2B2BD188291FD1174808F0D2FA0446C4B19A
:2034A000231D9D421FD12146124808F0D3FA124D62692F682A60A2690AB1E06990472F60B7
:2034C00007E00C4808F0BCFA044634B901220B4B1A704A23338001200AE0A168201D08F060
:2034E00060FA2468F1E72468D9E7002303800320F8BD00BF18080020A4090020B61C002086
:2035000010B50024054B06481C7008F096FA2146BDE81040034800F055BA00BFB61C0020B9
:2035200018080020F000002070B50446E3610B4B049D1B78C4E905526BB1094D094B2E689E
:20354000201D2B6008F02DFA2E602146BDE87040054808F092BAA160F7E700BFB61C002019
:20356000A4090020F00000201808002013B5034C24680094FFF7D8FF02B010BDA4090020DE
:2035800070B5094B05461B783BB1084C084B26680430236008F00EFA26602946BDE87040B2
:2035A000044808F06ABA00BFB61C0020A4090020F00000201808002070B5094B05461B787E
:2035C0003BB1084C084B26680430236008F0FBF926602946BDE87040044808F04EBA00BFD2
:2035E000B61C0020A4090020F00000201808002010B5084B04461B7843B1043000F0BEF8F9
:203600002146BDE81040044808F024BAC0E90333F6E700BFB61C00201808002010B50E4C60
:20362000236813B90D4A136010BDFDF7B9FE2168D1E9002313448A681B1A1AB91844074B8C
:203640001860F1E7D2E900142144091A8B4228BF0B469268F1E700BF200800201C080020A1
:20366000014800F0C7B900BF000100202DE9F8430388054653B1592B47D1872920D1002029
:2036800024490B6863B918B10B6001E0214A1360592301202B80BDE8F88301203346F1E761
:2036A000D3E902649442F8D000B10B6099680029EED0C86890420ABF89680B469960F5E764
:2036C0008229E5D1134F4FF00009B84600263C68002CDDD0204608F0A2F998B122468821EB
:2036E000E06800F047F958B9E060A3682EB1B360C4F80890FFF792FFE8E7C8F80030F7E78C
:20370000FFF7AEFF2646A468E2E7002303800320C1E700BF2008002010B50446FFF7A0FFA9
:20372000E3680B4A0BB1136833B90A4B1B68E36013681460A36004E0A34206D1054A126850
:20374000DA60BDE81040FFF769BF9B68ECE700BF20080020A4090020024B1868003018BF9E
:203760000120704720080020024B186808B1024B18687047200800201C08002010B50B4A79
:2037800004461368834208D183681360FFF746FF0023C4E9023310BD1346002BF8D09A680D
:2037A000A242F9D1A2689A60F0E700BF2008002038B5836804460D469BB10A4804600220E0
:2037C000A07304F10C0098470238012801D9832D05D121462046BDE8384000F005B8012378
:2037E000A37338BDA40900202DE9F8431C4F89463D682C46844204D00CB9BDE8F883246844
:20380000F8E7002CF9D0174EA37BD6F8008063B10023A3738DB9A3683BB14C4505D034607F
:203820002A46832104F10C0098473B68A3420ED123683B60C6F80080DFE7AC4204D02246D9
:203840008721284608F0D1F82D68E3E71346002BF0D01A68A242F9D122681A60EAE700BF2A
:20386000A8090020A4090020002238B50125084B1A70084B1C6804B938BDE37B2BB1E5816F
:20388000002282212046FFF793FF2468F3E700BFBA1C0020A8090020024B1878421C1A70C4
:2038A000704700BFB81C00208A22064B1A700023054A1370054A1370054A1360054A1360CC
:2038C000704700BFB81C0020B71C0020B91C0020A8090020A40900202DE9F0411B4D2B78A6
:2038E0000BB1FFF7C1FF1A4C22789AB10C21194E194F3378013A59430133781803F01F03B4
:2039000017F801803370D0E90170227090B9134B1E6826B92B7820781844BDE8F0812B785C
:203920000BB1FFF7A1FF30463A46414608F05DF83668EEE7B8F1810F08BF01233A4608BF8D
:203940008373414608F051F8E4E700BFBA1C0020B91C0020B71C002024080020A809002024
:20396000024A034B10781B7818447047B91C0020BA1C0020F0B50B4E3378202B0FD00C2590
:20398000094C0A4F24781C4404F01F046C433D19C5E901200020013339553370F0BD01203F
:2039A000FCE700BFB91C0020B71C00202408002038B5034C256808F018F8256038BD00BF27
:2039C000A409002030B40A4C0A4625682B4683420CD04BB950B101210560817320608381ED
:2039E000812130BCFFF7E4BF1B68F0E730BC7047A809002038B1837B013B012B9FBF012301
:203A0000014AC37313707047BA1C0020024610B5064853600468029B11609360026014B94B
:203A2000084608F0C3FF002010BD00BFAC09002010B5084C206858B100232360D0E90131C2
:203A40009847236823B1BDE81040186808F0AEBF10BD00BFAC09002070B505880446672D5D
:203A600009D0792D2FD0002D33D1FFF715FF1B4B18701B4B1D601B4E194D08E00A282B6840
:203A80000ED07E2B03DC5A1C2A60174AD054304608F06FF8431CF1D16723238001201BE0FC
:203AA0005A1C2A600025104A2846D5540B4B1978FFF760FF0D4B2A4685211868FFF75AFF77
:203AC00018B97923E9E78529E8D10022044B1A60D1E700230380032070BD00BFCB2A0020D5
:203AE000B0090020B4090020BB1C0020A409002008B505490548802208F034F8BDE8084041
:203B000000210348FFF75EBF3B1D0020B4090020100100202DE9F341154D0446CDE90015DF
:203B20000E4690461F46202203460321114808F030F801282B4618D12A6804F11001107033
:203B400020462A68023250F8044B884242F8044BF9D11868089B86744361099B80F8138015
:203B60000777836102B0BDE8F0810020FAE700BFC4090020A8240020F8B507460B4E0C4DD6
:203B80002E6060362C68B44201D30020F8BD237833B1A27C3946D208A01C07F011FB10B158
:203BA00020342C60EEE70120F0E700BFA8240020C4090020802313B5074C00930194034691
:203BC00020220321054807F0E4FF10B9206802B010BD0020FBE700BFBC090020C4230020DB
:203BE00030B548F2FE040B490B4A1160603113688B4202D30023184630BD1D783DB1451C8A
:203C000002D09D7C854202D15D88A542F3D020331360ECE7C4230020BC090020802337B57C
:203C20000F4D0093044603460195122205210D4807F0AFFF01282B460FD12A6804F1100106
:203C4000107020462A68023250F8044B884242F8044BF9D1186803B030BD0020FBE700BF23
:203C6000C0090020482400208023F7B5214C0093054603460E4617460194202203211E48DA
:203C800007F087FF012832D12A46236805F1100118702368023352F8040B8A4243F8040BC2
:203CA000F9D12068C774DEB9012303750122236812489A7440F2FF2303800023438083806E
:203CC000C38003814FF480734381FF2303736B7B4373EB89C381FFF7A1FF206803B0F0BDB9
:203CE000002331460375183008F093FEDEE70020F4E700BFBC090020C4230020A41600209C
:203D0000802313B5074C00930194034612220521054807F03EFF10B9206802B010BD0020A9
:203D2000FBE700BFC00900204824002038B50546C8B140F2FF230C48002403804FF4807337
:203D40004381FF230373EB7B448043732B8A8480C4800481C381FFF7D3FF044A106008B122
:203D600007F03AFF2C7038BDA4160020C009002038B50E4D0E4C256060352068A84206D3B8
:203D800000F0F8FABDE838400A4807F013BE037843B1037D33B9183006F0A2F810B120680E
:203DA000FFF7C4FF236820332360E6E7C4230020BC090020082500202DE9F84F48F2FE034B
:203DC0000A8805469A420F462ED00A78FF2A2BD000241C49A04689469B461B4A0A6002F150
:203DE000600AD9F8006056450AD314BB2C806C80AC80EC802C816C81AC81EC81BDE8F88F51
:203E000033786BB1B37C012B0AD173885B4507D0B11C384607F0EDFE80459CBF34468046A6
:203E20002036C9F80060DCE70120FFF7D9FE0446DBE7A31C123453F8042BA34245F8042B7E
:203E4000F9D1DBE7BC090020C423002070B5094EB068450807F06AFD044607F067FD2402E0
:203E6000B268A4B22044B0FBF2F302FB1300284470BD00BFAC23002073B5304C01F06CFA8C
:203E800000F096F8602200212D4807F0A3FA00212046F42207F09EFA20222A4B40261A7025
:203EA0001822294B00251A704FF4A06344F8043C264B04F80469A360FFF7C8FF42F2107392
:203EC000236148F2FE03E0602575214C2A46238065802B46A580E5803146CDE90055204601
:203EE000FFF718FE20461B4907F07AFE29460122FFF7BAFE40F2FF264FF480732046E381E6
:203F000026806580A580E58025816581A581FFF785FE4FF40073204626806580A580E58030
:203F200025816581A581E381FFF778FE0C210A4802B0BDE8704007F034BD00BFB0230020DF
:203F4000A8240020A5240020A4240020C0270900A416002024250020082500202DE9F047D7
:203F6000054610480F46904607F06AFD0446DFF83890DFF838A00CB9BDE8F087012D0DDC85
:203F8000504607F08FFD03464246394628466668B047204607F08DFD0446ECE7D9F8003080
:203FA000F2E700BF4C0B0020500B0020680A002008B50B4807F080FD0A4807F03EFD0A4B88
:203FC0000A49186804F064FC094807F075FD094807F033FDBDE80840074807F02EBD00BFAB
:203FE0004C010020540B00202C01002031BC000020010020680A00204C0B002008B540B1A3
:20400000044B4168186808F023FCBDE8084007F036BE08BD2C010020014807F011BD00BF5A
:20402000540B002008B507F02CFE38B1044B0146186808F0FAFB003018BF012008BD00BF8B
:204040002C0100202DE9F04180460027FFF7E4FF3C46054685B964B1124807F0F1FC8442E2
:2040600007D021460F4807F0F5FC21460D4807F011FD2046BDE8F08195F82460BE420AD398
:20408000F20805F10801404607F09AF818B9802E06D037462C46284607F0C6FD0546D9E7A1
:2040A0002C46D9E7540B002038B5044600283FD04368002B3CD001461E4807F0CBFC6368C9
:2040C000586807F0BDFC054668B343689C4226D163682946586807F0BDFC6368586807F05E
:2040E000AFFC28B963685968134B186804F07CFC2146124807F004FD2946114807F000FDE9
:20410000104A20461368013B1360FFF777FF04F108010246BDE838400320FFF71FBF284681
:2041200007F0C7FCCFE704F1080002F081FDCFE738BD00BF540B00202C0100204C010020FF
:2041400040010020500B002010B5044680B1406870B107F075FC30B9064B2146BDE810407C
:20416000186804F041BC4068FFF79EFF6068F0E710BD00BF2C0100202DE9F84F80461046A2
:204180008A46914607F07DFD834618B900242046BDE8F88F4046FFF755FF044660B1FFF796
:2041A0002DFF014628B11022484607F009F80028EDD02046FFF778FF284F3B68142BE5D035
:2041C000274E5946306808F030FB054668B9034604225946306804F08BFB05460028D5D06C
:2041E00000236860036007F028FC1E4807F074FC04460028CAD001461B4807F04BFC1B4832
:2042000007F06AFC20B92146164807F079FCBDE744600146686807F030FC3B686560013319
:20422000294630683B6004F0F5FB434604F1080508F110062A4618685968083303C2B342B8
:204240001546F7D1002284F824A0A261E261226241464A460220FFF781FE98E7500B002067
:204260002C0100204C010020540B00204001002038B505460D4807F0E3FB044600B938BD4A
:20428000AC420ED12146094807F0E4FB2146084807F036FC221D1146BDE838400120FFF719
:2042A0005DBE204607F005FCE7E700BF680A00202001002038B50546084807F0C1FB0446A0
:2042C00008B9204638BD10222946201D06F078FF0028F6D0204607F0ECFBF0E7680A0020DC
:2042E000F8B505460F46FFF7E5FF044640B9134807F0F2FB0446E0B10146114807F0CAFBDE
:204300002B46261D05F1100C324618685968083303C263451646F7D16FB1394604F11400AA
:2043200008F077FB002323772A4629460020FFF715FE2046F8BD0123F5E700BF2001002033
:20434000680A002038B50A4807F07AFB002504460CB9284638BD251D284601F031F810B1FE
:20436000437C002BF5D1204607F0A3FB0446EFE7680A002038B50D4807F062FB04460B4DA8
:2043800004B938BD237F63B904F1140005F0A8FD38B12046FFF76CFF284607F051FB04465F
:2043A000EEE7204607F085FBF9E700BF680A002037B5114B114D1C782B7905F10801C4EB8E
:2043C00003226B7913449BB2ADF80630BDF806302022184480B207F02DFC04F12801BDF8A7
:2043E0000620294407F026FC18B140BA80B203B030BD4FF6FF70FAE7EA1D00202C2500204F
:2044000002200021F8B5284F284D3A78284C283253195E782070F6000736864202DA71B373
:2044200020702CE0131805EB030CEB5C012B11D00CD3632B13D003F0C003802B21D0C02BD5
:2044400028D0402B2CD179B120700DE00130C0B20121E2E7831C9CF801001844F7E701B1A7
:20446000207002F0F1FC08B90120F8BD22783B78104913440B445B7802321A4422700020D3
:20448000F3E701B1207002440221042005F012FE0220EAE701B120702B7EFF2BE4D0F2E7D9
:2044A00002309CF80130D8E7EA1D00202C250020EB1D002054250020F0B5C578124B0D445D
:2044C000EDB2DD7082780F0A3A44D2B29A70447897425C7006781E7005D9601CC0B25870D0
:2044E00008B901361E70C9B28D420BDA0132D2B29A703AB95A780132D2B25A7012B91A78A3
:2045000001321A70F0BD00BF2025002010B5094C0146236803F11400FFF7CEFF064A23687B
:2045200011781975517859759178D2789975DA7510BD00BFC82500202025002008B5FFF76C
:204540009BFC05F0A1FE01F0B5F8002319460F4A22F813100133142BFAD1002319460C4866
:204560001A183033B3F5F07F82F82510F8D14FF48062084B08481A80002319461A182033AE
:20458000B3F5A07F1182F9D108BD00BFB4270020CC250020B4160020E0270020F8B5104E4B
:2045A000357845B10F4F05F127033C88A34203DB00233B803370F8BD0B4BA4F12802521B9B
:2045C0005919184606F0A4FE641BA4B23C80283C221200F8242C00F8234C0023EAE700BFE8
:2045E000EA1D002018250020542500200023064A32F81310814203D1002122F81310704732
:204600000133142BF4D17047B42700200023054A32F8131011B922F8130070470133142BD0
:20462000F6D17047B427002004282DE9F74FAD4E00F02081AC4FAD49AD4DAE4A03283C683B
:204640000D601560B94688465ED194F8253003F00F03032B14D1A38B002B40F082800822CE
:20466000A54B1A7002F0B0FAA34B1A78A34B12F0200100F09D8500221A8084F8252096E08E
:20468000022B6ED1002305F8073C9D4B93F8352042F0020283F835209A4ADA634022328048
:2046A000602283F83420237D954D85F83030637D05F1180785F83130A37D85F83230E37D18
:2046C00085F83330237E85F82C30637E85F82D30A37E85F82E30E37E85F82F30238A2B852F
:2046E000638A6B8594E80F0087E80F00394605F10800FFF761FB94F82530DB064CBF002315
:204700004FF47053EB8625E3022840F09F8000237D4A33801370794A13807C4AD3780133E6
:20472000DBB2D37063B993780133DBB293703BB953780133DBB2537013B91378013313706D
:2047400094F8253003F0FD02052A13D194F826300133DBB2782B84F8263002D1002384F8E9
:2047600025300023684A33801370694A1370624A13705BE1002BF4D0A28B5F49002A5ED01C
:2047800094F82620501E84F82600002AE9D194F82720082A04D0581E01280CD8052A0AD1ED
:2047A000002384F8253080230B7002F00DFA544B142200F0C4BC042A15464FF0030028BFF7
:2047C000042503F00F03A8400132013B84F8260084F82720072BC4D801A252F823F000BF62
:2047E000534E0000014800000B4800003B510000634700003B510000634700003B51000084
:2048000000223F4B83F835203FE704230B7002F0DBF9384B1B68C8F80030384B1B88002B47
:2048200000F0E684A38B002B00F0E28418223C333380334B83F83520314B502231E703F0CC
:204840000F03032B8DD108230B700BE7052863D1304B1B681B8A002B83D000230C3D1560BF
:20486000264A3B60138008223380234B0D601A7002F0AAF9214B1A88002A3FF472AF02F144
:2048800030031F4C9BB23380283B19126371214B08321B6852BA2171197DA2850022E17120
:2048A0001121E2851A8AA17122855A8A04F1180562850FCB85E80F00294604F10800FFF76D
:2048C0007BFA0A4B04F13C021A6007F0D5F9C04380B2002800F0B081E0856022084B1A606A
:2048E000A1E000BF18250020C8250020C4250020682500201C250020B8250020DC270020D7
:204900002C25002002040040EA1D0020E51D0020E91D0020C025002015F83C3C3C3D03F07B
:20492000F003602B7FF41DAF2B796A791B023188981888423FF715AF2832134433802B7AE0
:20494000FF2B3FF40EAF9D4BAA1D1A6000229C4F9C4C3A702270AA799A464AB90123237026
:20496000FFF74EFD01283FF4FCAE47D302285AD09548FFF71FF9002840F0A6809248FFF749
:20498000BFF9002840F0A080287E2B89FF2848F2FE014ED02A8B8A4200F097848B424BD09B
:2049A0007BB96B896BB9AB895BB9EB894BB92B8A3BB96B8A2BB9AB8A1BB9EB8A002B3FF48D
:2049C000D0AE82B96B8B73B9AB8B63B9EB8B53B92B8C43B96B8C33B9AB8C23B9EB8CB3F560
:2049E000807F3FF4BEAE3388B3F5A06F12D94FF4A0620021022005F05DFB14E03B7803F14C
:204A000028022A44CAF800205278083303EBC2033B70ADE7EB79012B03D80022032011461E
:204A2000E9E7013BEB710022684B1A7003B0BDE8F08F8B427FF495AE2B8B83B96B8B73B941
:204A4000AB8B63B9EB8B53B92B8C43B96B8C33B9AB8C23B9EB8CB3F5807F3FF482AEFF2831
:204A60003FF47FAE5848FFF787F8024600287FF478AE02210120BEE7BBF13A0F5DD006D8CF
:204A8000BBF12C0F3FF46DAE521B01214BE0BBF13B0F3FF466AEBBF13C0FF5D123789807F3
:204AA00004D55906F0D443F0400324E043F0020321E03B7803F128022A44CAF8002052785C
:204AC000083303EBC2033B70DAF8002092F800B0BBF12B0F19D0CFD8BBF1060F00F0B080BA
:204AE000BBF1110F46D0BBF1000FCDD12378D907CAD443F001032370FFF782FC01283FF4C8
:204B000030AED6D302288ED0DEE7237813F00401BAD13A7843F00403237002F128032B4487
:204B2000D87810B12A32042065E7CAF800305B78083202EBC3023A70C6E707F097F84FF6C5
:204B4000FF7398427FF40DAE3B78214AD05C01F0C1FE3B782833EA18E85C517805F088FA4D
:204B6000012802BF002333803B703388002B3FF4F8AD58E7FFF712FDEB8D85F806B0A3B9C1
:204B8000B5F82AA0BAF1000F3FF4EBAD114B124FB5F828B01F601D46104B07F5A0772C68F3
:204BA000BC421DD30022042164E707F065F84FF6FF7398427FF4D5ADE2E700BFBC25002012
:204BC000EA1D0020E91D002044250020B825002054250020C0250020E027002034250020C4
:204BE000228AAAB1924513D1628A0AB15A450FD122682AB962681AB9A2680AB9E26852B1A9
:204C0000184610222146009306F0DAFA009B10B120342C60C3E702203388B149303B338065
:204C20000023B04A0870B049C8F800200A60AF4AC9F8003013801BE64FF6FF73E3854CE6CD
:204C4000FFF7ACFC85F806B007F013F84FF6FF7398427FF486ADB5F82AA0BAF1000F3FF4E6
:204C600080ADB5F828B0BBF1000F3FF47AADA04C234694F82520009282B1228A52450DD161
:204C8000628A5A450AD1102221469A48019306F097FA019B0246002800F0E280964A303476
:204CA0009442E6D995F8352002F03F02022A08D10022924931F8120050455DD00132142ADA
:204CC000F8D195F835305A073FF54BAD3C23338041F25043AB8695F8333095F8310095F848
:204CE0002F1085F82F3095F8323095F82E2095F8304085F82E30013195F82D3085F82D0031
:204D000095F82C00C9B285F8322085F8313085F82C4085F8300085F8331061B90132D2B28B
:204D200085F832203AB90133DBB285F8313013B9013085F830002B8D6A8D6E4C2A856B8560
:204D400004F1100594E80F0085E80F0029462046FFF732F806236A4CA3716A4B1B79E371BD
:204D60003388283B1A12637100232271A36306F080FFC0432087B0E500244FF0300C22469E
:204D80000CFB02F0191891F82570002F4ED0072F07D12CB191F8267094F826108F4200D908
:204DA0001C1801320A2AEBD1002C3FF4DAAC514BA4F810A00FCB84E80F004FF4806363846D
:204DC00040F20313A38403230120E3844E4BA4F812B01A78A08322765A78C9F800406276C7
:204DE0009A78DB78A276E37695F82C30237595F82D30637595F82E30A37595F82F30E37553
:204E0000FFF784FB95F8343003F0F002502A20D900221B09053B9B00A91891F83C70C7B145
:204E2000012F05D101329342F6DC12E00C46BEE7022F91F83D000FD104280DD191F83E20E1
:204E400091F83F3043EA0223402B28BF4023E38323842B4B1022D5E40028FAD00244E2E7E4
:204E60001F4BC9F80040187095F835009A4610F0040F06D084F8252020221A7001F0A4FE94
:204E80006FE4338895F83410283B0909A3EB810300999BB201F00F0CBCF1020F338017D161
:204EA00000F03F01122931D00BB983072ED0E96A636999422AD0800706D5BCF1010FC8D08F
:204EC000BCF1020F3FF4E1AB102385F8353038E1BCF1010FE8D100F03F010229E3E700BFCD
:204EE000B82500205C2500201C250020DC270020CC250020342500207C270020B427002048
:204F00002C250020AC230020E51D0020C10654D5A18B002951D004F118000092FFF7CCFA4E
:204F2000BF4B95F8301093F800C0009A8C4544D195F83110587888423FD195F832E09978A7
:204F400071453AD195F833E0DB78734535D1E37694F82730A17684F818C0607694F82410A2
:204F600013BB94F826C094F82230A1EB0C01A1EBD301C9B24FFA81FC0B44BCF1000FD8B244
:204F8000B8BF4B4294F82310B8BF4FFA83FCA1EB910101EB0C03DBB284F8233003EBD003D9
:204FA00084F8220084F8243001219E4B197094F8243084F826300023A38394F82510DFF85C
:204FC00064B201F00F03013B072B3FF6CAAB01A050F823F0F54F000035500000F15000009A
:204FE0003152000087520000B1520000C94E0000075200009BF80030DA0713D5032384F8B4
:20500000253040238BF8003000233088A38320B142238BF80030FFF779FA0022824B1A8049
:20502000FFF720BB95F8353003F03F03022B7FF498AB0EE79BF80030DB074ED595F83530E6
:2050400003F03F03122B48D195F8343003F0F001502921D91B09053B9B00A91891F83CC038
:20506000BCF1000F18D0BCF1010F03D101329342F3DC11E0BCF1020F91F83D0029D1042889
:2050800027D191F83E2091F83F3043EA0223402B28BF4023E3832384032384F8253095F8A1
:2050A0002C300120237595F82D30637595F82E30A37595F82F30E375FFF728FA42238AF8D3
:2050C00000300023584AA38333803B701380FFF7C9BA0028E0D00244C9E720238AF8003088
:2050E00001F072FD0022D9F8003083F82520E8E595F83530D80728D5CA0626D4A38B002BAF
:205100007FF42FAB3088013080B2FFF7FFF99AF8003043F010028AF8002032881AB143F0D8
:2051200012038AF8003001F04FFD0123A383082384F82530002384F8273011223B4B83F8FB
:2051400035203C233380FFF777BB9F0630880FD56B8FD8F800205BBA95F83AC095F83B70C1
:205160009BB21344C8F8003047EA0C23C31A338030889BF8003038B1CA0605D443F0020366
:205180008BF80030FFF7C2F995F8362095F8373003EB0223228C9BB29A4202D3002B18BF13
:2051A0001A469BF80030E2839F073FF4DAAA34E712F0100008D019800123A383042384F87F
:2051C000271084F82530B8E7198851B1D50748BFA083A28B52B9E28B914288BF1A801B8883
:2051E000A383002384F82730FFF713BB1A80F8E70C4B1B789A077FF5B4AA3C2310223380B5
:205200000A4BFFF717BB9BF80030DB077FF5A9AA002384F8253010238BF800302EE600BF58
:2052200020250020B8250020DC2700202C250020308808B1FFF76AF995F8353013F00103B5
:2052400017D09BF80030DF0749BF0723062384F82530002352BF84F8253084F82630A38395
:205260000120FFF753F910238BF8003001F0ACFC2AE69BF80020D00714D50522A38384F800
:205280002520FFF76EBA308808B1FFF73FF995F83530D90706D5072384F82530002384F8C5
:2052A0002630DDE73388002B7FF40EAEFFF759BA9BF80030DA077FF554AA072384F82530A5
:2052C000002384F82630FFF74CBA93427FF449AAFFF7C8BB054BC0F3072203EA0023000CE1
:2052E00040BA134380B240EA0340704700FFFF000D4B1B6883B10D4AD21A9142A8BF114627
:2053000000290FDD0A4A834211800BD08AB2014633B9084805F086BF5029A8BF5021EFE7D3
:205320001846F7E7704700BF1C250020B8250020DC2700206825002010B5044640B101F09C
:20534000CBFE044B2146BDE81040186803F04CBB10BD00BF5801002008B503F023FD034B3C
:2053600003491868BDE8084003F092BA580100203953000070B504460C481E469DF8102044
:20538000059B006803F0B4FA054668B120462B4604F1100250F8041B904243F8041BF9D1C5
:2053A0006E74284601F098FE284670BD58010020024B0146186807F04BBA00BF58010020BA
:2053C00070B50C4D0646286803F076FA044676B90024204670BD10223146204605F0F0FEEE
:2053E0000028F6D02146286807F004FA0446002CF1D1EDE758010020024B0146186807F043
:2054000014BA00BF5801002070B5054610200E4603F01EFC0849044607F049FA58B9324627
:205420002946204603F05CFC324629462046BDE8704001F033BE70BDEFD400002DE9F04F83
:205440008F4C87B0E3798F4FFF2BDFF860A240F012813B7804F12C055A191279FF2A00F04A
:205460000A8104F128010B445A780291002A40F00281854B854E1A6014229846DFF8309228
:20548000327004F1080B387832782C30BAF8003002449A42C0F2868020440430FEF78AFBDE
:2054A0007B4B18609B46002800F0E58023897BB963896BB9A3895BB9E3894BB9238A3BB90F
:2054C000638A2BB9A38A1BB9E38A002B00F0D380704E3046FEF76EFBB046002840F0CB80F4
:2054E00040F2FF23228B06F110099A4240F0B080638B002B40F0AC80A38B002B40F0A88039
:20550000E38B002B40F0A480238C002B40F0A080638CB3F5807F40F09B8094F82430FF2B89
:2055200040F0968096E80F0089E80F003B781D44043595E80F0086E80F00002360223B7072
:20554000554B564EC4E9002388232385E023DBF8002084F82C30931C123235461868596867
:20556000083303C593422E46F7D140F202234C49A4F840300A684B4BC4F842204A685A608D
:205580000022C4F84A209A81628506F06FFB3B78029AC0431A4450235080AAF8003007B0E5
:2055A000BDE8F08FA3185978002964D0A25C012A26D12289C8F8003072B9628962B9A289C7
:2055C00052B9E28942B9228A32B9628A22B9A28A12B9E28A002A4ED053F8020F04AA596886
:2055E00003C25846FFF7ECFE0246C9F8000080B905230190009304A902235846FFF7BAFEBC
:2056000032783B7813442B445B7802EBC302327039E7FFF7CDFE034668B3D8F800001946CC
:2056200008220230039305F0CBFD039B50B1012204A9184607F014F9E8B1D9F8003002222C
:205640005A74DDE7D9F800305A7C002AD8D1F6E71548FEF7AFFADBF8003083420BD198E812
:205660000F0089E80F003B781D44043595E80F0088E80F0061E70023AAF800303B708EE7E6
:205680002C250020EA1D0020800E0020EC1D0020780E00203425002000283AFF5C2500207A
:2056A000242500206E25002044250020182500207C0E0020014804F0F7BC00BF6C01002002
:2056C000B8220C4BF0B502FB0032002340F24C5553821E461A460849CC18A77827B15F5C4F
:2056E000874204BFA67001327133AB42F4D11046F0BD00BF8C0E0020F71D002008B50648C4
:2057000001F0C4F80122054BFD211A70002299705A70DA7008BD00BF59590000ED1D002022
:2057200030B513780446087A83F0020398421FD1487A537898421BD1887A9378984217D1C9
:20574000C87AD378984213D1087B137998420FD1487B537998420BD1887B9379984207D12F
:20576000C87BD379984203D10320A040C0B230BD0E4B08891A681D4660B94889B0F57F4F5E
:2057800008D18889FE2805D1C989022022F8021B1A60EAE701F1080303CB083242F8080CDA
:2057A00042F8041C01202A60DFE700BFFC0F002010B50E4C0220A17903F030FAA379112B64
:2057C00009D1238D618D994228BF1946BDE81040012003F023BA062BF3D03A2B03D1218D6F
:2057E00049BA89B2F2E70021F0E700BF2C25002010B5084C01462378012B08D10822A01C84
:2058000005F0DEFC00280CBF2046002010BD0020FCE700BFED1D002008B50146102003F060
:205820000BFA044B00219B6803489847BDE80840FBF7BCBE60D000003D58000010B50C4691
:2058400011462046FFF7E0FD044B1B6813B19B6820469847024B1C6010BD00BF840E0020D3
:20586000041000202DE9F041002306467122134F02FB03F57C19A078C8B9617003F0F8F872
:20588000DFF840800E4B98F800102670401A1E68A0700E4403F0ECF898F800200335821A45
:2058A0003146781905F0BEFCA078BDE8F08101330C2BDDD14FF0FF30F7E700BFF71D0020AB
:2058C0000C100020432300202DE9F84315090F2D0646984602F00F0431D00F2C34D01DB11E
:2058E0002A46304605F09EFC2A190F2A274605DCC2F110020021701905F06CFDBCB1DFF858
:205900005480C7F11000D8F8009022464946304405F088FC022C05D10A2D9FBFFF23F37287
:20592000FE2333734C44C8F80040BDE8F883002DFBD041463046BDE8F84306F051B90F2CE0
:2059400000D110241025CBE71024002DC8D12746D5E700BFFC0F002000232DE9F04FC04EC8
:20596000C04C87B033702370054603F0FDF803F091F8BD4ABD4B12681860CDE900630AB12A
:20598000FFF716FF04AE002D40F03A81B849304606F088FF019B94F800B0D3F80080B54B1B
:2059A000DFF8D8921A8802933E2A40F26182B24D08F102032B6000230BF1020B08F80B3003
:2059C00009F11800FFF714FF30B909F10800FFF70FFF002800F0168108F103032B608025DF
:2059E00099F8011099F800C00B0943EA0C13DBB29A0842EA831252B211F00F0FD0B20CF0C3
:205A00000F0C9D4FDFF874A240F0FE80B9F80230002B40F0F980BCF1000F03D111F0F00F9D
:205A200000F00F814FF070093B6803F8010B3B609AF80620112A08BF49F0040919F0040FCD
:205A400002BF3B6803F8012B3B609AF80730402B00F0FA80FF2B00F0FA80012B40F0FA8018
:205A600049F00109BAF80830002B40F00B81BAF80A20002A40F00681BAF80C20002A40F01D
:205A80000181BAF80E20002A40F0FC80BAF81020002A40F0F780BAF81220002A40F0F2806B
:205AA000BAF81420002A40F0ED80BAF81620002A40F0E88045F04005DFF8C0A19AF8183003
:205AC000FF2B40F074819AF8190045F008020228BAF81A103B6840F01781002940F05481EE
:205AE000BAF81C10002940F01181BAF81E10002940F00C81BAF82010002940F00781BAF8A2
:205B00002210002940F00281BAF82410002940F0FD809AF82610002940F0F8809AF8272049
:205B200045F00B0503F8012B3B602823009A1370524A9379112B31D14FF2B00E178DB2F8C3
:205B40002AC0390A41EA072189B24FEA1C2747EA0C2721F00F0C48481FFA8CFCF4450368A9
:205B6000BFB240F0628127F00F0EE64540F05D81F3211970118D02330F0A518D090A01EBCE
:205B8000071101F5AA6103F8011C03600368D28D23F8022B03603023009A1370019B1A686E
:205BA000237802F8039013445D70334B1B689B1A23703146102003F03FF8314B1B689847A1
:205BC00030EA200028BF1520009A029B92F800901B882578C0F17D07A3EB0902791B8A42B0
:205BE00040F31982C0F1780893FBF8F502F07CFD01388542C0F26881002007B0BDE8F08F2A
:205C00002946C4E60546EBE63B68BCF1000F0FD111F0F00F0CD122F03F0211431970BAF851
:205C20000220033323F8022C4FF068093B60FFE6DAF800204FF060091A6003F8040B3B60DA
:205C4000F6E64FF07809F3E649F002090AE749F0030907E73A6802F8013B3A6002E700BF4D
:205C60004423002043230020840E00200C100020EFD4000018250020FC0F00202C2500206D
:205C800018D0000089480393FFF7B2FD884A039B106078B1427818F80B30844943EA0213F3
:205CA00008F80B30834A0420FFF73AFD60F03F00C5B201E748F2FE02934210D1BAF81A30B1
:205CC0006BB9BAF81C3053B9BAF81E303BB9794A76490420FFF724FD0543EDB2ECE63A688A
:205CE000DFF8C8E194460EF1100A734603CB5345CCF80000CCF804109E460CF1080CF4D1BC
:205D00006D4B10321A60D7E600293DD16B49B1F81CE08C46BEF1000F36D1B1F81EE0BEF1D5
:205D2000000F1BD1B1F820E0BEF1000F16D1B1F822E0BEF1000F11D191F824E0BEF1000F84
:205D40000CD11A4602F8010B31F8250F45F00A05A3F80100897804339170E5E6BCF81E10DD
:205D600091B9BCF8201079B99CF8221061B91A46534902F8010B086845F00905C3F8010072
:205D8000097906331171CFE61F46DFF838C10CF1100E654603CD754538607960AC4607F131
:205DA0000807F6D1444910330B601546BDE60AF11800FFF71DFD3E4B186080B1427818F8B5
:205DC0000B3000201343324645F0040508F80B300AF11801FFF7A4FC0543EDB2A5E648F2CB
:205DE000FE03BAF818209A420CD1BAF81A304BB9BAF81C3033B9BAF81E301BB932460AF1CE
:205E00001801E7E73A68DFF8BCC017460CF1100E634603CB7345386079609C4607F10807A5
:205E2000F6D1254B10321A607FE607F47F47B7F5704F09D1F1211970118DA3F80110518D41
:205E4000090AD9700433A0E601F47F41B1F5704F07D1F2211970118D090A5970518D59806A
:205E6000F0E7F0211970916A053343F8041C8CE6412388F800300BF10103DBB2984409F13A
:205E800028024B4603CB9342C8F80000C8F80410994608F10808F4D1009B009A1B780BF19F
:205EA000290B283384F800B0137082E634250020880E002024250020FC0F00202C25002008
:205EC0004F2500204425002000225C4B25781A600393019B2A46D3F800900435494609F106
:205EE000040005F015FA029B55491A88EDB2120A62F03F0289F800201A88009B89F80120EF
:205F00000A887F1B501C0880110A89F80210DFF834A1197827F00707DFF82CB189F80320F9
:205F200051443A4609EB05002570CBF8007005F079F9E81980B202F091FD02F0DBFB039B0B
:205F4000054699465F4600283FF456AE3046FFF763FC284602F006FC284602F0EDFBD9F8CD
:205F60000030012B3FF448AE043B012B7FF644AE009B28F007001D78DBF80030CBF80000B5
:205F80001D4405232370019BDFF8C0B01A68029BADB21B881B0A63F01F031370029B1B8884
:205FA0005370BBF80030AB4201D8012025E6019A5B1B1068EA0802713A6894F800809342D8
:205FC000B8BF3B603B680AEB05011A464044009305F028F9009B08EB030080B202F03EFD94
:205FE00002F088FB804600283FF406AE3046FFF713FC404602F0B6FB404602F09DFB3B6800
:206000001D44D9F80030ADB2012B3FF4F5AD043B012BC6D8F0E5019B0A4918684944284478
:2060200005F000F9029B18882844A0EB090080B202F014FD3046FFF7EFFBB6E704100020D9
:206040001E1800202C25002008100020182500202DE9F8438046894617464B4D002A57D0B8
:206060002B8A83420AD16B8A43B10F2002F0F0FD0146284606F01BFC002840D1B5F8C83034
:2060800043453ED1B5F8CA30002B3AD00F2002F0DFFD01463D4806F00AFC90B301245FFA07
:2060A00084F839464046FFF7DDFB00281DDA6E8A4EB15CB3364805F0B2FC064618B1002016
:2060C000FFF7FEFA0646B5F8CA3043B13CB9314805F0A5FC18B10120FFF7F2FA0644002EA3
:2060E0000FDD39464046FFF7BDFB002809DDB82303FB0455AB8A64B21844A88203E00024E9
:20610000CDE74FF0FF342046BDE8F8832646DAE76B8A33BB0024B5F8CA308BB31D4805F060
:206120007EFC10B10120FFF7CBFA631C2AD1B5F8CA30002BE7D10124B8266643AF19A7F831
:206140001290A7F810800F2002F082FD0146384606F0A8FB06F118004021284405F04DFC56
:20616000D1E705F1180005F05AFC28B96B8A002BD0D04FF0FF34CEE73846FFF7A1FAF5E75B
:206180000134D8D00024D7E78C0E0020440F0020A40E00205C0F00202DE9F04F002787B003
:2061A000DFF81C827C4C0F2002F052FD02F0D4FD88F80070277002F06DFC784DA246286058
:2061C000042002F033FD2A68754B168800B276BAB6B21860331203F0F803C02BCDF8008064
:2061E00007D0E02B00F0EE80B946B8466D4C3E4617E050882378C6F30A0640BA04333A4641
:20620000314680B22370FFF723FFB0F1FF3F814600F06E82B8244FF00108634B04FB00349F
:2062200022342B689AF800105A5C02F0E000602840F02882881C18440B445D78DFF86CC1C1
:206240006FB2002FCCF80000BCBF0130CCF80000D006614602F0080C00F150810B68BCF155
:20626000000F40F03881184630F801CFA4F801C08078E07013F8040B0B60830803F00F0118
:2062800041F060012170617803F0300343EA801301F00F010B43637012F00403019305D187
:2062A00042490B6813F8010BA0710B6012F003020BBF3E4A3E4B13689B5C09BF13F8011B0A
:2062C000E3711360E1716B06C5F3011240F14581002FBDBF314B9AF800101B680023BEBF86
:2062E0005B189B781B09002A40F0298104F1080B002A40F02E8111462E4B0F209A5C039156
:20630000029202F0A5FCDDE9022103465846FFF7DBFA05F0030205F0040315F0080500F0C3
:206320002881ABB9244B1B88ADF81430531E012B06D81E490B6813F8010B8DF815000B60E4
:2063400000231E498A5C05A904F11800FFF7BCFA009B009A1878154900F128031370019B08
:20636000002B00F040810B681A7802F0F802F02A40F039811122A2711A7802F0040502F087
:20638000F302F03A032A00F24781DFE812F01B01480155015F0100BF432300200C10002092
:2063A000001000202C2500208C0E0020FC0F0020B0D40000B4D40000A1D40000BCD4000046
:2063C0004423002092F804B05088227840BA0532C6F30A06227031465A4680B2FFF738FE85
:2063E000B0F1FF3F814600F08381B822B1494FF0010802FB0012958A3C46B54234BF002528
:20640000012502F035FB9AF80020824200F2708102F02EFB9AF80010A74A431A01931360C9
:20642000009B019A93F800A00AEBCB0313448C2B00F25E8134B1A14B04EB0A001B681944AF
:2064400004F0F0FE002E00F04D814FB1019B99490AEB0302B82303FB091392B29A821A8403
:20646000002D00F04881B823002403FB09F39149934DCA18223396821944128C9148914F80
:2064800004F0D0FEEB1C29198A7852B1605D814507D14878191907EBC000009304F0C2FEA6
:2064A000009B40F24C5271349442ECD15FFA89F0FFF706F9B8F1000F00F02081824B1E80BE
:2064C000824C236823B1FFF773F923685B68984700F014FA0CE16020207093F800C0033384
:2064E0004FEA9C0000F030000CF00F0C40EA0C00607033F8020C60800B60CDE6BCF1000F97
:2065000012D10B681878C0F3830040F06000207013F801EBA4F802C04FEA9E0000F03000F3
:2065200040EA8E106070E7E76023238000236380B2E690F801C09C4506D10860D6E6644860
:20654000017801296349F4D000250D604746AB4657E7604B19680231CEE65F4B0F2013F8E3
:2065600002B002F075FB5A4603465C4904F10800CDE6F3B1002F07DA504B9AF800101B6855
:206580000B449D7805F00F05514F3B78012B514B02D17978A94202D000251D60D6E71F6014
:2065A0004F4B10209D5C02F053FB2A460346B91CCAE6494B10209D5C02F04AFB2A460346ED
:2065C0004649C1E6B3F801200533228533F8022C62850B6025B90B6833F8022BE2850B60B4
:2065E000009B30301870354A0B6812689B1A8AF80030002E40D102F03BFA9AF80030C01A43
:20660000009B1B7818442838031223716071A379112B01D1A388A3854746002597E7B3F8BE
:2066200001202285DA78A2F5805292B2120242F0F00262850433CCE75A78A2F5805292B20B
:20664000120242F0F00222855A88F2E75A7802331209A2F5756292B2120242F0F0022285ED
:2066600013F8012C02F00F02A2F5756292B2120242F0F0026285ACE7A6F128031A122271FA
:206680006371C4E7412A33D14A1CD2B21344224603F1280053F8045B834242F8045BF9D175
:2066A000009B009A1B78293128338AF800101370B2E700BF8C0E0020081000200C100020C2
:2066C000F71D00202C25002018250020840E0020ED1D0020880E0020B8D40000A3D4000023
:2066E000B4D40000B8F1000F08D0002D7FF4E6AE07B0BDE8F08FB8F1000FF9D1019B9A4477
:20670000014BA3F800A0DBE61825002038B5438804462BB1B72B12D000230320638002E027
:2067200012B94280022038BD4160028284F82030238A13B984F82030EEE7B723638094F861
:206740002030062B04D1144B187810F004050ED0124A238A12686068D18B8B4298BF1946E3
:20676000FEF7C6FD0623002084F82030DBE710F00100D8D0094B228A19686368C88B82427E
:2067800083BF121A2282CA8B9B1887BF9B186360636025820123C9E7B8250020C8250020DB
:2067A000438A6BB990F82020022A09BF0322054B80F8202018461CBF1878C0F3400070478C
:2067C00001207047B825002010B54388044633B1B3F5837F0CD00023032063803BE0838B4E
:2067E000C26803834261638A83B94FF4837363802046FFF7D5FF00282DD0022384F82030BB
:20680000154B1B68A360154B1B886382228B638A0AB9C3B9E7E7002BE5D0A26863691278C3
:206820001A70A368914203F10103A360636903F101036361638A03F1FF336382238B03F1D3
:20684000FF332383E2D1228BA38B9A42C3D1002084F82000608010BDC42500201825002093
:2068600008B5054805F0B8F820B1BDE80840024805F0A9B808BD00BF14100020024B1B6873
:2068800003B118471846704710100020014B1860704700BF10100020002310B4074A9C5AE8
:2068A000D11834B9064B08801B684B6010BCFDF7ADBE0833A02BF2D110BC70472410002030
:2068C000A4090020024B1B68C0E90A31704700BFA409002007B5074B8DF80700186828B101
:2068E000054B0DF107021978FDF762F803B05DF804FB00BFAC270020CD2A002008B50022B3
:2069000002210448FDF754F80023034A1380034A137008BD7801002018250020EA1D002013
