:020000040000FA
:2000000000500020E9000000E1000000C9000000E5000000E5000000E5000000000000002E
:20002000000000000000000000000000E5000000E500000000000000E5000000E50000002C
:20004000C1170000E50000002DAE0000E50000007D0F000055140000E5000000E500000064
:20006000E500000055AE0000E5000000E5000000E5000000E5000000E5000000E50000003A
:20008000E5000000E5000000E5000000E5000000E5000000E5000000E5000000E500000038
:2000A000E5000000E5000000E5000000E5000000E5000000E5000000E5000000E500000018
:2000C000E5000000A12A0000044B1A68B2F5806F03D01B689B0500D4FEE7704728ED00E0AE
:2000E000FEE700BFFEE700BF08B508F0D3FC0F4B0F4A93420CD2181D0332121A22F0030221
:200100000C49024451F8040B43F8040B9342F9D109480A494FF000028842B8BF40F8042B76
:20012000FADB00F0E5F8FFF7CFFF08BD000000209802002050DC000098020020642F002021
:2001400010B50B4800F0BAFF0A4B01205C68A0470146094802F0EAFC0220A047BDE810404F
:20016000C0EB401100EB81014911044802F0DEBC58D7000084D9000084D7000094D7000092
:2001800070B5058882B004469DB1B5F5C17F0BD1882941D0324B1B788B4227D04FF4C17310
:2001A0000120238002B070BD00230320238002B070BD2C4800F082FF2B4800F07FFF2B4B98
:2001C00001219B68812098472949284601F0B6FC01F0D6FC27484FF4206103F019FBFFF704
:2001E000AFFF4FF4C17301202380DBE7224B9A4226D155680020A84706460120A847314675
:2002000002461E4802F092FC0120A847802813DC012000F04FFAC1E7164B9A42BED1022019
:20022000019200F047FAFFF78BFF019A4FF42061104603F0EDFAB1E7114800F03FFFE7E7FE
:20024000104B9A4205D00132A8D10F4800F036FFA4E7032000F01AFA00F024FF9EE700BF61
:20026000602F0020A8D70000B4D7000084D90000B8D70000C002002058D90000CCD7000023
:20028000FCD7000068D9000010D80000F0B5002706463C463D4683B0304600F0F7F9019526
:2002A000019B9C4206DD00BF019B01330193019BA342F8DB304600F0F3F90195019BC4F52D
:2002C000C8749C4206DD00BF019B01330193019BA342F8DB0137B7F5487F06D0B7F5C87F36
:2002E000CCBFC7F548743C46D6E703B0F0BD00BF2DE9F041744C86B02368012173485B6835
:2003000098470122236811461B687048984708F099FA01F06DFA01F005FA00F0E5F901F04D
:200320003DFA00F0A9F9012369496A486A4A03600B6018461368FFF7A9FF08F087FA00F00A
:2003400091FD00F0FDFC03F027FC00F05BFE03F073FB41F2342002F0B5FA01F047F803F01B
:20036000BDFC5E4800F0AAFE4BF2AC7200215C4802F0DCFB5B4800F0A1FE08F06BFA5A4C68
:200380005A4D10F0040F14BF27462F4608F06AFA01280CBF26462E4608F05CFA10F0020F5F
:2003A00014BFA046A84608F055FA10F0080F08BF2C4632464346009439464D4802F0B6FBB3
:2003C00000214C4803F014FB03F0CEF803F080F80220FFF75BFF484802F0A8FB474B484C85
:2003E000186800F06BFE474802F0A0FB464B186800F064FE454802F099FB2168444802F08B
:2004000095FBE469A04720B1A0470146414802F08DFB00260A2000F049FE09F0D9F904A818
:2004200008213D4D3D4F039600F080FE9DF816209DF8174004AB03CB44EA0224D7F82C8073
:200440002860696002204AF6CD31C04721460320C04719210120C047082204A97B6B0B2009
:200460009847BB6A03A90120984703992C4802F05DFB2C4B21462C481C8002F057FB2B4BCA
:200480006A6829685A60196008F076FD3146284803F0AEFA0220FFF7F9FE3146254803F0F3
:2004A000A7FA254803F008F800F0BAFD0120FFF7EDFE03F0DBFA044600F0E6FD14F0FF0F9B
:2004C000F7D100F0FBFFF4E7D801001000400340080009400C4009402C20094030D80000A0
:2004E00058D80000B8D7000028D800002CD8000070D8000024010020A4D8000028DB00002D
:2005000098DB0000ACD8000074DB0000B4D80000BCD80000C0D80000C42D0020CCD9000027
:20052000E4D80000A0240020F8D80000E4240020500100201000002050D700002DE9F04114
:2005400004880646772C2FD07E2C26D024B1002303203380BDE8F08103F042FA2D4F2E4B79
:200560002E4D3A6818702C6082B12346A0462C4C04F8038093680021802098472B6801336F
:2005800057F823202B60002AF2D1DAB2254B1A70772333800120BDE8F0811F4B1B788B427D
:2005A0001CD00120BDE8F081DFF878801B4D98F800201D4F00233B602B60002AE8D0184C36
:2005C000E256002A18DB2B6898F80020013393422B60F5DB3B68002BECD1D9E70F4D104C1C
:2005E000DFF84080104F2B683A68E15C013201F07F01E1543A60E7E7064A074952F8232025
:200600000978002003F08EFA0028ECD17E23012033809FE734000020602F0020D4020020E5
:20062000D4240020B0240020D002002010B40E4B1C78B4B10D4A136898424FF0000304D1E3
:2006400006E052F8041F884202D00133A342F8D107490848CA5C62F07F02CA5410BC03F053
:200660008DBA2346F4E700BFB024002034000020D42400201000002008B500F07BF800225E
:20068000014B1A7008BD00BFB1240020034A137803431846137000F087B800BFB124002029
:2006A000034A137823EA00031846137000F07CB8B1240020034A137843401846137000F02C
:2006C00073B800BFB124002010B5064C042023685B699847236804205B6B98470128F9D18B
:2006E00010BD00BFB8010010F0B593B008F0AAF80746FFF7E9FF194B4FF4A0601B68DB698A
:2007000098470121164B174A196013689907FCD500F0FEF9144800F0F9FF48226846134912
:200720000CF0C6FE009C621C0FD06D46104E336820469B6B9847336820469B694FF4005170
:20074000984755F8044F631CF1D10FB113B0F0BD13B0BDE8F04008F079B800BFB801001060
:2007600028200860282008402000002010D90000B4010010094B1A687AB9012210B5084C06
:200780001A6023680620DB6B984723680720DB6B9847C022034B1A6010BD7047D80200200A
:2007A000B4010010A0200240C022074B074908701A60C20744BF402243F8102C830702D5F6
:2007C0008022034B1A607047A0200240B2240020902002408138012808D808B5044B0D2013
:2007E0001B685B689847C0F3804008BD00207047B40100108138012808D808B5044B0E2004
:200800001B685B689847C0F3804008BD00207047B401001028B1012806BF054BD868002068
:200820007047044B18686FEA503000F001007047DC020020C020024028B1012806BF054B7A
:20084000D86800207047044B18686FEA903000F001007047EC020020C0200240802870B5F4
:2008600014460AD0812807D1E1B9BDE87040184B10461B685B6B184770BD0123144D154963
:2008800093402A680B60936B204698472B6820460021114A1B689847E0B21049BDE870402E
:2008A00000F066BF01230A4D0A4993402A680B60936B204698472B6820461B68064A002155
:2008C00098472B682046BDE870401B6B184700BFB4010010E020024000400720F9080000D8
:2008E00008B50D22FFF7BAFF012008BD08B50E22FFF7B4FF012008BD0D2838B51BD00E28B8
:2009000000D038BD1B4C204603F088F90028F8D00421204603F06EF9174B1D68C5F38035A8
:20092000C5B100F05BFAA368C31AE3601348BDE83840FFF77BBE124C204603F06FF90028E3
:20094000DFD00421204603F055F90B4B1D68C5F3403525B900F042FAC4E9020538BD00F071
:200960003DFAA368C31AE3600648BDE83840FFF75DBE00BFEC020020C020024068D9000069
:20098000DC02002058D9000030B5042100244FF480151A4A1A4B126883B0ADF80040019234
:2009A0000DEB01001D6000F0CFF8E0B10221684600F0EAF8134B1D60D0B19DF80030EF2B9B
:2009C00004D0C22B02D0204603B030BD9DF80100A0F11103012B0ED9143801288CBF002050
:2009E000012003B030BDFF20064B1D6003B030BDFF2003B030BD0120F8E700BF80D90000D2
:200A0000A02002409020024030B505224FF4801583B0114B02AC04F8042D1D6000F0DAF855
:200A20002046012100F090F820B910E09DF80730DB0706D501210DF1070000F0A5F8002888
:200A4000F4D14FF48012054B1A6003B030BD034B1D6003B030BD00BFA02002409020024074
:200A600030B583B0FFF7D0FF08B903B030BDB9224FF480150A240C4B02A800F8012D01210E
:200A80001D6000F061F8094B1D60FFF77DFF631E0028EAD013F0FF04F7D14FF48012034BF9
:200AA0001A6003B030BD00BFA02002409020024010B50A2182B0124800F09EF8114B1420D7
:200AC0001B68114CDB6B98474FF48013AB210F4A02A8236000F8011D1360012100F034F822
:200AE00008B1FFF791FF4FF48012074B1A60FFF74BFFA0F10100B0FA80F0400902B010BD62
:200B000000093D00B401001090200240A020024008B5FFF7CDFFFFF7A3FFBDE8084000F0E2
:200B2000C7B800BF08B5064B02201B685B6B9847012809BF034B0020186800F0010008BD8A
:200B4000B801001078200840F0B583B004460E46FFF7E8FF074688B186B10A4D26442B6888
:200B600014F8011B5B684FF0804098472B6801A9DB684FF080409847B442F0D1384603B066
:200B8000F0BD00BFC4010010F0B583B004460E46FFF7C8FF0746B8B1B6B10D4D264409E017
:200BA0002B684FF08040DB689847019B04F8013BB44209D02B6800219B684FF08040984749
:200BC00001A90028ECD10746384603B0F0BD00BFC401001010B582B0FFF7A4FF40B1054CF5
:200BE000236801A91B694FF0804098470028F7D102B010BDC4010010F0B5254D07462B6823
:200C000085B002205B690E4698472B6802205B6B984701280446F8D12B684FF48070DB69E6
:200C200098471C4B1C4A1C6013689B07FCD54FF0030C08250023194919480A68044622F06F
:200C40000F0200680A60C1F80CC0CDE900751A46076814494FF08040B847134B29461B6887
:200C600000965D6C09224FF0FF334FF08040A8470E4A136843F002031360236803A91B6952
:200C80004FF0804098470028F7D105B0F0BD00BFB801001028200860282008401400004008
:200CA000C4010010006CDC02B40100100400004010B5174B4FF480701B681B6A98470121A9
:200CC000144B154A196013689B07FCD5134C082023689B6B984723684FF400519B690820AD
:200CE0009847236809209B6B984723684FF400519B690920984723680A209B6B984723682C
:200D00004FF40051BDE810409B690A20184700BFB80100102820086028200840B401001030
:200D200010B5064C042023685B699847236804205B6B98470128F9D110BD00BFB8010010AE
:200D40000020002170B51B4A1B4BC2E900011B6804205B6B9847012801D0FFF7E1FF164B39
:200D600000201B68DB6998470121144B144A196013689B07FCD5134A13491368096823F4AB
:200D8000807323F00103114C13600B682046104998470423312640F22120012223600D4D77
:200DA0000D4903F1864303F510132E6008601A6070BD00BF98020020B80100102820086076
:200DC000282008400C000140C801001000000140002100043C0001400800014010B409491B
:200DE000094A0B68146808688342FAD1DA010023064902EB5462C1E9002310BCD1E900016D
:200E0000704700BF082009400C2009409802002010B50B490B4A0B68146808688342FAD15F
:200E2000DA010023084902EB5462C1E9002302F017FD00B910BDBDE8104002F0E3BC00BF22
:200E4000082009400C2009409802002010B507F0F9FC034B1C6808B907F0F8FC204610BD90
:200E6000082009402DE9F04107F0ECFC0124002580464FF480314FF480701A4E1A4B1B4F6D
:200E800032683D601C60186019601368284623219847336820461B68242198473368252119
:200EA0001B6802209847124A1249136843F4E02313600D6007F084FC0F4B1049104A1B685B
:200EC00000F50070086014603C601B6914209847B8F1000F01D0BDE8F081BDE8F04107F032
:200EE000B5BC00BF8401001004200940000024430020094008200940B00100101C20094039
:200F0000A0022443431E012B10B419D9042801D010BC704700231A4610F004001CBF0E4C49
:200F2000216013B101210D4B196012B101220C4B1A600028ECD001220A4B1A6010BC704769
:200F4000012803BF084A03461160002310F00202E2D0064C2160DFE72020094080022443B6
:200F6000A0022443C0022443182009401C200940014B1868704700BFFC02002008B509F023
:200F800015FC184B1860FFF743FF174B1B686BB9164B1B68E3B9164B1B6833B100204FF479
:200FA00080321449144B08601A6008BD4FF48072114B1A6007F004FC00F205200F4B20F495
:200FC000FF7020F001001860084B1B68002BE2D0002001220A49084B08601A6002F0F6FDB6
:200FE000D9E700BFFC020020A000244380002443C0002443C0022443042009401C20094024
:2010000080022443012203490348044B08601A60704700BF00000840FFFF0F00000C0840DD
:2010200038B507F00FFC124AB0FA80F01368012B0BD001230F4C104D1049114A400925606B
:201040000B601360C3070FD438BD0E4C09490A4D146040090D60094C094940F00200236087
:201060000B601360C307EFD5BDE8384007F0EEBB000C084000000840FFFF0F000C0008404A
:201080000401004351E5CC1A012203490348044B08601A60704700BF00000840FFFF0F0036
:2010A0000C00084008B5FFF7BBFFFEE710B50446C0B200F0AFF9204610BD00BF70B506460E
:2010C0000024451E04E015F8010F00F0A3F9013430460CF00FFBA042F5D80A2000F09AF9EF
:2010E00000F0ACF90128FBD0204670BDF8B50646B0B10078B0B1B9B101317518741C04E004
:2011000014F8010B30B1AC4204D000F083F9A71B002CF5D100F092F90128FBD03846F8BD52
:201120000746F7E70746F5E70F46F3E710B40B4B0B4C1A780133FF2A0DD1A342F9D1094AEC
:2011400039B11144013801390B78914200F8013FF9D110BC7047014AF2E700BFC8FF010057
:20116000D0FF0100F012005080280BD0812806D141B9084A084B1160084619607047064B6B
:2011800018687047012303200249034A0860184613607047005009400003002081380128AB
:2011A0009ABF024B18680020704700BF00030020064B1B6833B1012806D0022812BF00237B
:2011C000034B1B681846704707F0DABB000300202850094038B50C4D02202B685B6998471B
:2011E0002B6802205B6B984701280446F8D12B684FF40070DB699847044B054A1C6013685B
:201200009B07FCD538BD00BFB801001028200860282008402DE9F04340F2F275DFF8DC8089
:2012200083B0FFF7D7FFD8F800302A4EDB682A4898473368294C5B69152098472368DFF859
:20124000C090274F23F4FE63D9F8002023F0020323603D60D36B0320984708201222214921
:20126000D9F8003008600092D3F840900322132302211948C847D8F800206023D2F8048029
:2012800019494FF4E1321448C047142140F2011340F2013C154A164811600268154942F021
:2012A000100202600868144A002818BF634613603D600B6853B115202368326843F05003DD
:2012C0002360136903B0BDE8F043184703B0BDE8F08300BFB0010010001000403810004002
:2012E0004410004090200240006CDC02341000402C1000400403002030100040D001001096
:20130000B401001008B5064B02201B685B6B9847012809BF034B0020186800F0010008BD1B
:20132000B80100106C20084038B50446FFF7EAFF18B1244A13681907FCD4032C03D0224BE9
:201340001B6803B138BDFFF7DDFFA0B11F4B20481B68DB6898471F4B15201B685B69984702
:2013600040F2F2701C4A1D49136823F4FE6323F00203136008601A4D4FF400702B681B6AF5
:201380009847032C09D12B684FF400709B6A98472B684FF400701B6B98470121114B124AB6
:2013A000196013689B07FCD5032000F0CBF9022000F0C8F9132000F0C5F9BDE838401220EC
:2013C00000F0C0B91810004004030020D001001000100040B0010010381000404410004007
:2013E000B8010010282008602820084010B507F029FA0446054800F089F90022044B1A6011
:2014000004B110BDBDE8104007F020BA400000200403002010B50446FFF774FF08B9FFF7CE
:20142000F9FE044B2146BDE810401B680248DB69184700BFD00100100010004008B5FFF7F7
:2014400061FF18B1024B1868C0F3C00008BD00BF1810004070B5FFF7BDFE40F2F2710C4B75
:201460000C4A1B68116013F0500F0DD00A4C0B4E0B4D06E0336828461B699847094B1B68B3
:201480001BB92368DB06F5D570BDC0B29847EFE7401000404410004018100040D001001081
:2014A0000010004004030020034A136823F00403136030BF704700BF10ED00E070B507F002
:2014C000C1F902F025FB18B1BDE8704007F0BEB97F4802F019FC0225044648B1636823B1DD
:2014E0009847854228BF0546EDB22468002CF5D109F05CF9774B06461B6843B1764B1B68E0
:201500001B1A022B38D4A3F28F23002B3DDB02F0A7F9F8B102F0ACF90446FFF75FFC241A28
:20152000002CD1DDFFF724FD00EB4420831BA3F28F23002B31DA013D012DC5D8831B082B76
:2015400000F1B58006F580310B1A11EA230138BF014604E0012D40F0AD8006F580310220FA
:20156000FFF7D0FC5D4A136823F00403136030BFBDE8704007F06AB9002D00F0A38002F06A
:201580006FF90028A0D00025C4E7022DBFD102F067F90028E1D00125BCE7012DCED0022DCD
:2015A00092D101462846FFF7ADFC494802F0ACFB0446002870D00625A3680BB102209847A5
:2015C0002369246825EA0305002CF5D1FFF75CFD6B0764D425B1424B28461B689B699847BA
:2015E00000F060F9002009F017F93E493E4A0B683B4823F003030B601368016843F00F03C7
:2016000013608B69392098470023384A38491360184613600B6007F0EBFA062D43D0354CB3
:20162000354D364E2B682368326823F0030323605368032132489847294B1B689B6B98473C
:201640002B6807F0F1FB00212E4A336811602C485B6801219847012123682B4A43F00303DC
:20166000236011602B6807F011FC09F0A1F8FFF7CFFBFFF709FD164802F046FB044628B1DD
:20168000E36803B198472468002CF9D107F0DEF8BDE8704007F0DAB8FFF7F6FC062500220A
:2016A000194B1A6097E7022007F072F8B7E706F1080154E7022D7FF407AF711E2846FFF727
:2016C00021FC72E702F0CCF800287FF423AFFBE608030020800224431820094010ED00E01E
:2016E000B801001000100940081009404010094020042243242208402C200940D801001039
:2017000000400340800104430C4009400146014802F0FCBA080300200146014802F03CBB0D
:201720000803002010B5054802F0EAFABDE81040034B20211B6803201B681847080300205F
:2017400084010010431C0ED010B5074B04461B684FF4C0421B68002198470022034B43EA6E
:2017600084031A6010BD7047B4010010001A444238B504460D4607F065F801230549064ADF
:20178000A3400B6042F8245000B138BDBDE8384007F05CB8E02002400C0300200021064B9C
:2017A00003F1800243F8041F9342FBD1034B10201B681B69184700BF08030020B001001025
:2017C000F8B500240126084B084F1D681D6006FA04F32B42E0B203D057F8243003B1984766
:2017E0000134202CF3D1F8BDE02002400C0300200022412300B585B002A8CDE9022308F091
:20180000EBFF042007F0A8FB032810D00321042007F07AFB042007F09FFB0328FAD1009026
:201820001C234FF040520021044807F099F902A809F028F805B05DF804FB00BF00A00C402B
:201840000022412300B583B06846CDE9002308F0C3FF012007F080FB012803D00121032005
:2018600007F052FB684609F00DF803B05DF804FB0022412300B583B06846CDE9002308F084
:20188000ABFF012007F068FB012803D0044B986B06F0C4FF684608F0F5FF03B05DF804FB7B
:2018A0004800001010B54123002482B06846CDE9004308F091FF0320214607F025FB012060
:2018C00007F04AFB18B1044B986B06F0A7FF684608F0D8FF02B010BD4800001040F2051278
:2018E0002DE9F04F03888BB0934204462AD040F27B12934206D0CBB10023032023800BB02A
:20190000BDE8F08F814801F0A1FF002800F091807F4E804F33680133092B33603BDD06F0E0
:2019200091FF00233B7008B906F090FF7A4B7748196801F06DFF40F20513012023800BB0D8
:20194000BDE8F08F71480D4601F080FF00286ED0832D72D0714D00213E22A81C0BF080FE13
:201960004FF481721A232A80AB706D480BF0C2FE07460923421CEA70681D3A4668492B713C
:201980000BF096FD0022DFF8AC81614E7B1D614FC8F80030326006F055FF01233B700028D9
:2019A0004FD008F0AFFF8246002800F0A5805D4B9B6998470028B2D109F024FA04A840F62E
:2019C0000202182109F00AFA49F230314FF000099DF82030544A03F0F8036FF3C303ADF8AB
:2019E000221004A803A98DF820308DF81E90099208F090FF01282FD002A94C4808F08AFF4B
:201A0000BAF1000F20D009F007FA0C213F4801F0FFFE06F017FF00233B70D0B13368082B57
:201A20003FF779AF40F27B130120238067E7832D03D001200BB0BDE8F08F0023022023800B
:201A40005DE706F003FFACE709F0B0F8FFF72AFFDBE706F0FBFEE1E704A808F0A7FF01280B
:201A6000CAD125222D4DDFF8CC800195DFF8C8B0154607E004A808F099FF0128BCD1013598
:201A8000282DB9D041F605020120CDF81A909DF81D10ADF81020264A60F30301D8F800303C
:201AA000CBF81020019ACBF818908DF81D108BF81B00CBF81C0003A904A8CDF81E90CDF86E
:201AC0002290CBF80490CDF81290CDF81690ADF82690CBF80090CBF80C90CBF81490CDF8F2
:201AE00020B08DF81E50CBF808208BF8063008F011FF002880D0BDE7FFF7A2FE09F0F6F8DE
:201B000001287FF40CAFFFF7B3FE57E78C030020BC030020B324002054000020C4030020A9
:201B200058000020CCD900007800002001000204CA2D0020C00300209C03002038B50546F8
:201B4000A9B10B780C4623B108460BF0D3FD1F2800D938BD2022002107480BF081FD2046C3
:201B60000BF0C8FD2146024603480BF0A1FC002DEFD0024B1D6038BD58000020540000207C
:201B800008B506F067FE10F0020002D0064B187900B908BD0023054A19460548137001F067
:201BA00027FF012008BD00BF54000020B324002094000020014B1878704700BFB3240020F2
:201BC00008B508F09FFE30B1044B5B88022B14BF0220012008BD022008BD00BF04040020CA
:201BE00030B583B008F08EFE18B1134C6388022B08D001A9104808F08DFE012805D000208E
:201C000003B030BD012003B030BD08F0CFFD0A4C00F1400504E008F0C9FD401B002809DA0B
:201C200060880228F7D1A0F10200B0FA80F0400903B030BD6088F6E70404002010B501245D
:201C400088B002A840F60202182109F0C7F8114A9DF81830126803F0F80391880E4A6FF304
:201C6000C303ADF81A1002A801A98DF818308DF81640079208F04EFEA04202D0002008B06A
:201C800010BD02A808F092FE001BB0FA80F0400908B010BDE4000020B800002008B5FFF7B3
:201CA000CDFF012801D0002008BDFFF799FFC0B208BD00BFF8B50E4D00200E4F2C680E4E80
:201CC00006E02379022B06D024682B68A34209D02379032BF5D13B782BB124682B68012043
:201CE000A342F5D1F8BD304601F048FF0120EBE70C070020B6240020FC01002008B5B429FF
:201D00000A46014628BFB42202480BF0D1FB002008BD00BF1A07002030B583B009F058F818
:201D2000044608F0EFFD08B903B030BD01A90A4808F0F0FD0128F7D108F038FD00F14005DF
:201D400004E008F033FD401B0028EDDA638803F44063002BF5D0E7E7010001040B280BD0D6
:201D60000C2801D001207047042A07D131B10B4B00201B680B607047082A01D002207047A7
:201D80000029FBD0064A4B1E073112F8010903F8010F8B42F9D10020704700BF8C04002062
:201DA0003304002010B542F20343002484B001A902A8CDF80A40ADF80E40ADF8083008F00A
:201DC000A9FD20B19DF90A30803302D0204604B010BD9DF80C0000F00C00A0F10400B0FA74
:201DE00080F0400904B010BD30B583B008F08AFD18B1184C6388022B05D0012003B030BD37
:201E0000FFF7D0FF18B108F07DFD0028F8D101A9114808F07FFD08F0C9FC00F1400507E080
:201E20006088022809D108F0C1FC401B002803DA08F068FD0028F3D1608842F2024398421D
:201E4000DBD042F20743C01AB0FA80F0400903B030BD00BF04040020010001040B2810B597
:201E600002D00124204610BD082A13D191B1114A01F1080313F8010D8B4202F8010BF9D1D2
:201E800008F040FD18B10C4B5B88022B05D00024204610BD0224204610BDFFF7A5FF012895
:201EA00014BF03240024FFF79BFE012818BF0324D8E700BF2C0400200404002030B585B03E
:201EC00008F020FDF0B1114B5B88022B1AD14FF00002002442F2034563F301028DF80C200A
:201EE0009DF80C0000F00303022B0CD101A902A8CDF80A40ADF80E40ADF8085008F00AFDEF
:201F00000028EDD1FF2005B030BD00BF040400202DE97848044608F0F5FC20B1184B5B8813
:201F2000022B02D00020BDE8788806F08BFC05463CB1144A144B12681A609DB10120BDE863
:201F40007888104B4FF0000C1E6800230E4C16F1804022684CF10001994208BF904205D3FD
:201F60002660EAE706F072FC0120DCE708F01EFC064A07491368086001331360F0E700BFF0
:201F8000040400200430044094040020980400209004002008B5FFF70DFE012806D008F0C4
:201FA000B1FC18B1094B5B88022B01D0002008BD08F0A8FC18B1FFF7F5FE0028F6D1FFF75E
:201FC0007DFFFF28F2D0C0F3801008BD0404002008B502E0FFF7E6FE18B108F093FC00287B
:201FE000F8D1FFF701FF08F0E1FDFFF75BFC00220C4B0D4819794280022908BF1A710B4B0A
:202000001A79022A04BF00221A71094B1A79022A04BF00221A71074B1A79022A04BF002218
:202020001A7108BDCC040020040400205C050020EC0500207C06002008B5FFF7BBFD012870
:2020400001D0FFF7C5FF012008BD00BFF8B5FFF7B1FD01282ED0FFF7F3FB08F053FC18B1E4
:202060001D4B5B88022B25D0012588241B4A1C48577946791B491C4B65F3830765F383063B
:20208000577146714F795E7965F3830765F3830610600160C480D480CC804F710B601A6005
:2020A000DC805E71FFF7E4FB08F020FEA84203D00020F8BD0120F8BD0C4B1878003018BFB4
:2020C000012008F02DFEFFF7B9FD0128F0D1BDE8F840FFF785BD00BF04040020CC0400203A
:2020E0005C050020EC0500207C060020B624002030B585B0072800F2A980DFE800F0101F68
:202100002A2D305A5F04524C217708F0FBFB10B16388022B79D00024204605B030BD0129DF
:2021200000F08480019100296BD1FFF743FD0128F1D0FFF74DFF01990C46EDE7A1F10B03F2
:202140000F2B5ED8424CC9B2A37B8B42E3D0A173DBE73F4C6186D8E73D4C2186D5E731F054
:2021600007024ED13A4CC1F34005237E394861F30003DBB243F0020365F38203657E03F0C7
:20218000870362F3C71362F3C7150278C1F380019142657623760170B7D1228B2E4B03A994
:2021A00018465A8008F0B6FB002814BF00240324B2E731F0010324D1CCB2ADE701F1150329
:2021C0001A2B1ED86FF014030C24244A01E052F83430994230DD14F1FF34F8D208F092FBB2
:2021E000002898D010221D4B02A903EBC404A38803A8ADF80E30ADF80C20002408F08AFB29
:202200008AE70224204605B030BDFFF7EDFD012814BF0324002408F077FD012812D0FFF78B
:20222000DFFC01283FF478AF032475E7FFF70EFF01283FF470AFF7E7084B094A03EBC40306
:202240001360CBE70020FFF763FEE8E7012463E704040020B6240020840400200CDA0000F4
:20226000E4000020002900F0A380F0B50C4685B0102800F29F80DFE800F00E1B20252A4119
:20228000444A5081879D9D8C90940900052300200B6005B0F0BD08F035FB30B1524B5888CA
:2022A000A0F10200B0FA80F0400920600020F0E74D4B00209B7B0B60EBE74B4B00205B8E07
:2022C0000B60E6E7484B00201B8E0B60E1E70023454A0B60137E03F001030B60127E52073E
:2022E00044BF43F002030B60404B1B78002B5DD00B68002043F004030B60CAE70020086051
:20230000C7E73B4B00201B681B680B60C1E7364B002093F91C300B60BBE708F0F3FA0028BD
:202320004AD0314B5B88022B46D100274FF000030222002562F38303CDE9025542F20346C9
:202340008DF80C300BE001A902A8CDF80A50ADF80E50ADF8086008F0DDFA002837D09DF8BB
:202360000C3003F00C03082BEDD0002F34D19DF90A302360803319D103208AE71D4B0020EF
:202380001B785BB20B6084E71B4B00201B780B607FE70B2300200B607BE71A2300200B60FA
:2023A00077E76FF0140300200B6072E7002070E70220704701206CE7FFF748FE012808BF75
:2023C0000746B3D06FF07F030320236061E780238DF80A30002FF5D0FFF7ECFB0128C6D06C
:2023E000FFF7F6FDC3E700BF04040020B6240020E4000020B5240020B424002070B588B017
:20240000064608F07FFA002848D03A4B5B88022B44D1002508F0CAF96FF01F04241A07E08E
:20242000FFF7C0FC012843D108F0C0F9C44241D508F068FA0028F3D102A842F6014218213C
:2024400008F0CCFC00222C4B2C4CF6B28DF817602178069304929DF81430891A18BF0121CA
:2024600062F3030301208DF8143008F091FC02A801A908F04FFA30B3207801E0002836D073
:20248000BDF80A3003F44063002BF7D0BDF80A40A4B2B4F5105418BF012416E0FFF7D6FDA4
:2024A000012803D00124204608B070BD0546B1E70028C1D01DB1FFF77DFB012813D10224A5
:2024C000204608B070BD20780124003018BF012008F072FC002DE6D0FFF76CFB0128E2D04B
:2024E000FFF776FDDFE7FFF773FD0224E8E7FEF7DBFFC1E7040400201A070020B624002078
:2025000010B50C46B42C2246014628BFB42204480AF0CEFF2046BDE81040FFF76FBF00BF07
:202520001A07002010B5FFF745FB01281CD008F0E9F918B11B4B5B88022B1BD0FFF786FDCD
:20254000012804460AD1FFF7B9FCFF2822D1FFF731FB012809D0FFF73BFD06E0FFF72AFB15
:20256000012801D0FFF734FD0124204610BDFFF719FC18B108F0C6F90028F8D1FFF79EFCD6
:20258000FF28F1D000F0030010F1FF3418BF0124204610BD00F0030010F1FF3418BF0124DA
:2025A000D5E700BF040400202DE9F047594E80460F46356808F0FAF8574C241A03E008F026
:2025C000F5F8C44208D52B79022BF8D0032B06D000242046BDE8F0872B79032BF8D1D6F87F
:2025E000009099F80820032A06D999F80850EDB2A5F10804BC420ADD0024D9F8003089F8D1
:20260000084089F8044033602046BDE8F0874046224609F109010AF04BFFEB1C19F8033017
:202620003E4F5BB23B70043519F805203C4D02F03F0209EB0403D3F80D802A7008F062F9EA
:2026400018B1384B5B88022B60D0FFF7FFFC4FF0010908F057F978B1324B5B88022B0BD1DA
:202660000020FFF755FCB9F1000F05D0FFF7A2FA012801D0FFF7ACFC2B4BB8F1404FD3F8C2
:20268000009036D86FF4BF704FF0FF3100224B46DFF8A4C0DCF800C0B0EB0C0961EBEC7AB7
:2026A00019EB08004AF1000110EB020841EB03094FEA092143F60952002341EA18614FEA9E
:2026C00008200AF041FD194B194A1B7810604BB93978042049B289B207F050F829780320BE
:2026E00007F04CF80022336819681A7231601A716FE708F05BF80F4B1B68C3F17E4303F5CE
:202700007203C34248BF09F1FF39BBE74FF000099FE700BF14070020FAFEFFFFB5240020AD
:20272000B42400200404002098040020B62400208C04002090040020D41C002010B508F092
:20274000E1F818B1144B5B88022B1DD0FFF77EFC012811D10020FFF7DBFB0446FFF72AFAB0
:20276000012816D144B1BDE8104000230B4A4FF487310B4800F032BF0023BDE81040074A4F
:202780008021074800F02ABF0020FFF7C1FB0446E8E7FFF71DFCE5E7040400203D2700001E
:2027A0009C0400202DE9F0470025354F3548FEF7ADFF08F079FA3846902229460AF050FFF2
:2027C0009022294630480AF04BFF902229462F482F4C0AF045FF902229462E480AF040FFFB
:2027E0002D4E2E4B29467E22A01C4FF0070A4FF002091F60C6E900750AF032FFA623FF21C9
:2028000001224FF0190E4FF0B90C42F601086F2742F202002661224E84F8199084F818A0CE
:2028200066612377268B1F4BA4F8008084F80EE084F80FC0E776A1765E801971627384F81E
:2028400037201880FFF702FC012803D02C462046BDE8F0870446144808F0CEFA2046FFF7E3
:2028600057FB2B46114A4FF48731114800F0B6FE2946104801F0BCF82046BDE8F08700BF95
:20288000CC040020A40000205C050020EC050020040400207C0600200C07002014070020BA
:2028A000BC0400208404002004DA00003D2700009C040020FC01002008B500F08BF880B20F
:2028C00008BD00BF00F014B938B50C4D04202B685B6998472B6804205B6B98470128044648
:2028E000F8D12B6840F20140DB699847044B054A1C6013689B07FCD538BD00BFB801001061
:202900002820086028200840034B1B68002B14BF01200220704700BFD0070020F8B50388C0
:202920000446002B2ED0B3F5847F05D1184B1B788B4205D00120F8BD002323800320F8BD97
:20294000144D2B6873B1144B144A1B6812685B68022017460026984730182B6847F100014A
:2029600098472E600E4B40F201401B689B6A984701210C4B0C4A196013689B07FCD50B482E
:20298000FEF7CAFE4FF4847323800120F8BD00BF96020020D0070020CC01001004800240B6
:2029A000B80100102820086028200840E800002008B5064B04201B685B6B9847012809BFBB
:2029C000034B00201868C0F3400008BDB80100103C2008402DE9F041284B1B68D3B12848B3
:2029E0000023024612F8011B49B90133042BF9D100274FF0000838464146BDE8F08100216D
:202A0000204AC15402EBC303D3E9007838464146BDE8F081FFF7CCFF00282BD01A4A1B4B87
:202A200012681A420ED11A4A0121134611601A68002AFCD110464FF4807105F0D3FE0122A5
:202A4000144B1A6005F0FEFE06460F4A1368DB07FCD5114B114A1B6812685B6802201546E5
:202A600000249847271845F10008002EC3D105F0EDFEC0E7FFF728FFD0E700BFD007002003
:202A8000D4070020A00200200880024001000080F09F0240A8025042CC010010048002407E
:202AA00038B500240D4D0E4A2C6013680D4923F00103096813604B69312098472246204649
:202AC0004FF4807105F08EFE0122074B2A6019782246BDE83840054801F024B8A8025042D6
:202AE0000C800240B001001096020020FC00002010B5074C2378802B00D010BD00F070FF19
:202B0000002120700348BDE8104000F071BF00BF96020020FC0000200AB90020704708B5BA
:202B200008461146FEF7E2FA002008BD0FB400B583B004AB53F8041B04481A46019300F046
:202B400027F803B05DF804EB04B070470C010020102970B50C46054613D90C4E01E0102C69
:202B600008D92B681022314668689847103C0028F5D070BD2246D5E90030BDE8704003492C
:202B800018470029F6D1084670BD00BF90DA00002DE9F04F8246894690464FF0000B8FB0F7
:202BA00099F80030002B00F0D980252B08BF4D461BD04C4603E0252B00F0D4802C466378F5
:202BC000651C002BF7D14D4500F0C880DAE90030A5EB0906494632469847002840F04F8117
:202BE0006378B344002B00F0B9806A7805F10109002A00F0B3800021A2F12003102B1BD87B
:202C0000DFE803F0171A1A141A1A1A1A1A1A1A111A0E1A1A090041F0100119F8012FEBE71A
:202C200041F00101F9E741F00601F6E741F00801F3E741F00201F0E7A2F13103082B40F221
:202C400095802A2A00F0C18000242E2A00F09D804FF0FF336C2A00F0A580682A00F0AB8088
:202C6000782A00F29B81DFE812F0790099019901990199019901990199019901990199015E
:202C8000990199019901990199019901990199019901990199019901990199019901990194
:202CA00099019901990199019901990199019901990199016F01990199019901990199019E
:202CC000990199019901990199019901990199019901990199019901990199019901990154
:202CE000990199019901990199019901680199019901990161015A01530199019901990122
:202D000099019901990199019901990199019901990199019901990199014C019901990160
:202D2000990199019901990199019901450199013E01370130010F01DB0099013701990118
:202D4000990199019901D20092018B0199019901840199017D0199019901760158460FB0DB
:202D6000BDE8F08F4D457FF431AF3EE7002404EB840402EB440419F8012F303CA2F13003E2
:202D8000092BF4D92E2A7FF463AF99F8012009F10100A2F13003092B24D92A2A00F0AF813D
:202DA000814655E799F801206C2A29D009F1010941F0600154E799F80120682A00F09881B1
:202DC00009F1010941F040014AE7D8F8004099F80120002C08F10408B8BF41F0010109F1B5
:202DE000010932E7002303EB830302EB430310F8012F303BA2F13005092DF4D9814629E7A1
:202E000099F8022041F0800109F1020928E709F10109D8F8003008F10408C3F800B0BFE620
:202E200001F4E06242F4007241F48137B2F5806F09F1010933D040F2B580B2F5C06F00F0FC
:202E40004A81B2F5E06FE4D0B2F5A06F7FF4A8AE012C38BF0124D8F80030013C8DF8203023
:202E6000FB0708F1040840F10883DAF80030012208A9DAF804009847002800F0F8814FF034
:202E8000FF300FB0BDE8F08F01F4E06242F40072B2F5806F41F4007709F10109CBD1D8F88F
:202EA000006008F10408002E00F0DE8135782DB1354615F8012F002AFBD1AD1B002BC0F252
:202EC000A8809D4228BF1D46A3E001F4E06242F4007241F40247A9E701F4E06242F48072D2
:202EE00041F42457A2E701F4E06242F4A06241F4A0679BE701F4E06242F4007241F4C13760
:202F000094E701F4E06242F4807241F4B2478DE701F4E06242F4007241F4A13786E701F4E7
:202F2000E06242F4007241F484477FE701F4E06242F4007241F4424778E701F4E06242F4D8
:202F4000007241F4E13771E701F4E06242F4C06241F4C0676AE701F4E06242F4807241F48A
:202F6000C85763E701F4E06242F4807241F410675CE701F4E06242F4806241F4806755E7F3
:202F800001F4E06242F4407241F440774EE701F4E06242F4807241F4885747E70F4601F406
:202FA000E06243E7B2F5807F4ED0B2F5407F7FF4F7ADBC4BD8F8001017F4804FBA4E08F1A2
:202FC000040818BF1E460A4600230DF1330E002900F09E807146100940EA03704FEA131CEC
:202FE00002F00F0563460246705D01F8010D52EA0300F0D1BEEB010500F08B80033578208C
:203000003022232301F8010C01F8022C01F8033CCE1EAC428CBF641B0024FA0740F1F08148
:203020003146DAF800302A46DAF80400984700287FF425AF21465046AB44FFF789FD0028F3
:203040007FF41DAFA344ABE5002BB4BF012327F0100717F400520393069207F0E0035ED037
:20306000402B00F0F18100F20D81002B00F0B681202B40F0EF8198F9002008F10408D31726
:20308000002A73F10001C0F2B381CDE904230023079307F4C053B3F5805F59D10DF136032B
:2030A0000193DDE90423134300F0BF81DDE90423019DD00840EA4370DE0802F00701334670
:2030C0000246303105F8011D52EA0301F1D1019B5B1B019348E0DAF8003001227349DAF8A9
:2030E0000400984700287FF4CAAE0BF1010B57E599F8022041F0200109F10209B0E599F866
:203100000220D8F8003009F1020908F10408A1E571463023042501F8013C01396FE7402B99
:2031200000F09B8100F2CE80002B00F04C81202B40F083810023069A08F10408079218F86B
:20314000042CCDE9042307F4C053B3F5805FA5D0B3F5C05F00F00781B3F5006F00F0DB80B7
:2031600000230DF13605019341F60803019903983B40814241F20802C0F0B980934200F0BF
:20318000178100220391029241F60802934240F0AB80DDE90423134300F0A680444A17F4EA
:2031A000804F444B08BF134602260493069B7BB1079B002B40F0F88007F00603022B00F073
:2031C00038813D4A062B049B04BF134601260493039B33449C428CBFE41A002417F001039A
:2031E000039306D1F90640F1E680029A22441C460292DAE900303EB10499324698470028D6
:203200007FF43DAEDAE90030029F019A102F934440F22D81102229499847103F00287FF4BE
:203220002EAEDAE90030102FF4D83A462349984700287FF424AEDAE90030019A2946B34488
:20324000984700287FF41BAE029B5B449B46039B002B3FF4F7AE21465046FFF779FC0028DD
:203260007FF40DAEA3449BE4154E062526E6214650460BF1010BFFF76BFC00287FF4FFAD77
:20328000A3448DE4602B00F0A980802B40F0E28008F1070323F0070303F10808D3E90023F2
:2032A000EEE600BFB0DA0000C4DA0000F0DA0000DCDA0000D8DA0000E4DA0000A0DA0000E9
:2032C000E8DA0000602B7ED0802B40F0B68008F1070323F0070303F10808D3E90023CDE989
:2032E0000423069B07932EE7002604965EE7039901989342A1EB000102917FF445AF002998
:203300000B4608BF012302930026DDE901321344CDE903364AE70DF13605DDE9042352EAE4
:203320000301019500F08180CDF808B01646BB461F46304639460A22002309F005FF303220
:203340003046394605F8012D00230A2209F0FCFE06460F4656EA0703EBD15F46DDE9013BBD
:203360005B1B019300E7504B17F4804F4F4E0DF1360518BF1E46DDE9042352EA0301019513
:2033800053D0110941EA03714FEA131C02F00F0063460A46315C05F8011D52EA0301F0D146
:2033A000019B5B1B0193DFE6414B012604930FE701230293A8E721465046FFF7C9FB00283B
:2033C0003FF417AF5BE5D8F8003000221946069B08F10408CDE904120793B4E6D8F800209D
:2033E00008F10408D317002A73F10001BFF64DAE524263EB4303CDE9042301230793A2E654
:2034000021465046FFF7A4FB00287FF438AD3146DAF800302A46DAF80400984700287FF461
:203420002EADAB44A344FFF7BBBB0023019D01939AE6204B01260493CAE6002300220793E2
:203440000023CDE904237EE6B8F9002008F10408D31715E60022002317E60023069A08F14F
:203460000408079238F8042CCDE904236BE6029A002A3FF4E2AE1746D7E621465046FFF783
:2034800067FB00287FF4FBAC0122DAF8003008A9DAF804009344984700287FF4F0ACA34408
:2034A000A344FFF77DBB00BFB0DA0000C4DA000080D70000E0DA000010B50446006830B1A7
:2034C000002100F095FA54F8040F0028F8D110BD704700BFF0B5038883B005465BB14A2B8A
:2034E00004D188291BD0012003B0F0BD002303202B8003B0F0BD194800F006FC044630B10B
:20350000A168201D00F084F92468002CF8D10122134B1A704A2301202B8003B0F0BD0F487C
:20352000019200F0F1FB04460028F3D0019A031D9A4205D02468231D002CEBD09A42F9D122
:20354000084E2146054800F027FCD4E90523376832600BB1E06998473760DBE7D8070020FC
:20356000B72400206409002010B50024054B06481C7000F0C5FB2146BDE81040034800F069
:2035800037BA00BFB7240020D80700201401002070B504460D48049D0078C4E906236561D3
:2035A00030B9A1600A482146BDE8704000F0AEBB084D094B2E68201D2B6000F029F92E6013
:2035C0002146BDE87040024800F0A0BBB7240020D8070020640900201401002010B5044CC9
:2035E00082B024680094FFF7D3FF02B010BD00BF6409002070B5094B04461B783BB1084D4F
:20360000084B2E6804302B6000F00CF92E602146BDE87040044800F079BB00BFB724002099
:203620006409002014010020D807002070B5094B04461B783BB1084D084B2E6804302B608A
:2036400000F0FAF82E602146BDE87040044800F05DBB00BFB724002064090020140100206E
:20366000D807002010B50A4B04461B783BB9C0E903332146BDE81040064800F08DBB04306B
:2036800000F000F92146BDE81040024800F084BBB7240020D807002010B5FDF79FFB0B4BC9
:2036A0001B689A68D3E900142144091A4AB1D2E9003423441B1A9268994228BF1946002A62
:2036C000F5D1034B0844186010BD00BFE0070020DC0700202DE9F8430388054673B3592BAB
:2036E00027D1872930D082291ED14FF000092D4FDFF8B8803C68BCB1002603E0A368264624
:2037000093B11C46204600F089FA0028F6D022468821E06800F006FA30B3404600F02EFA72
:20372000A3682646002BECD1592301202B80BDE8F88300232B800320BDE8F883194A01202D
:20374000136059232B80F2E7164F39680029EBD0CB689A4203D014E0CB68934210D189685C
:203760000029F9D13960DFE7E060A368BEB1B3603B68C4F808907BB1FFF78EFF3C68BAE73F
:2037800039608B68002BCFD0D3E90204944214BF194688600346F5E7034A1360C4E73B60F6
:2037A000E7E700BFE0070020DC0700202401002010B50446104800F0E1F91049E3680A68E6
:2037C0004BB142B194420FD0134601E09C420BD09B68002BFAD10A4BA2601B680C60E360D0
:2037E000BDE81040FFF758BF054B1B68E360BDE81040FFF751BF00BF24010020E0070020AB
:2038000064090020014800F0B9B900BF2401002010B5044600F0EEF92046BDE81040FFF735
:20382000C7BF00BF10B5044600F0ECF92046BDE81040FFF7BDBF00BF10B5044600F0E8F9F3
:203840002046BDE81040FFF7B3BF00BFC068B0FA80F04009704700BFD0E900201044704701
:20386000024B1868003018BF01207047E0070020024B186808B1024B18687047E007002084
:20388000DC07002010B5114B04461A68824213D072B19368984208BF134605D043B19A68AE
:2038A000A24201D01346F9E7A2689A60FFF7F4FE0023C4E9023310BD82681A60002AF5D108
:2038C000034B1A600023C4E9023310BDE0070020DC0700202DE9F843234F3D68854208D03D
:2038E000002D38D02B4601E0002B34D01B689842FAD180B31D4E837B89460446D6F80080E7
:20390000D3B10023837365B1AC4207D0AB7BDB0704D522468721284600F02AF82D68002DFC
:20392000F2D1A3683BB14C4505D034600022832104F10C0098473D68A54212D04DB12B682E
:20394000A3420AD02BB11A68A24207D01346002BF9D1C6F80080BDE8F8832B4622681A606E
:20396000F7E72B683B60F4E7680900206409002070B586687EB1044602200A4BA0731C60B0
:2039800004F10C000D46B0470238012804D9832D02D00123A37370BD21462046BDE8704091
:2039A000FFF798BF64090020002238B50A490B4B0C681A707CB1012501E024685CB1E37B4C
:2039C000002BFAD0E581204600228221FFF7D0FF2468002CF3D138BD68090020BB2400209B
:2039E000024B1878421C1A70704700BFB924002070B50F4D2C68844206D034B1234600E0B0
:203A00001BB11B689842FBD170BD0028FCD003460A46012000211C60064C98732668998134
:203A2000184681212B60FFF7A3FF266070BD00BF680900206409002030B48A250023064ACD
:203A4000064815700649074A074C03700B601360237030BC704700BFB9240020BA2400205F
:203A60006809002064090020B82400202DE9F041224D2B780BB1FFF797FF214E3378BBB105
:203A80002048214F0278013B02EB4201890001327C1802F01F020270A068DBB233707F5C80
:203AA000D4F8048040B1812F1DD0827BD2071CD428781844BDE8F081144A14682CB9F7E7B3
:203AC000A37BD90709D424689CB12B78002BF7D0FFF76AFFA37BD907F5D542463946204609
:203AE000FFF746FFEFE70123837342463946FFF73FFF337828781844BDE8F081BB240020A4
:203B0000BA240020B8240020E407002068090020024A034B10781B7818447047BA24002049
:203B2000BB24002070B40C4D2C78202C11D00B4B0B4E1B78234403F01F0303EB43039B00AB
:203B400001342C70F418C4E90120F154002070BC7047012070BC7047BA240020B824002074
:203B6000E407002038B5837B034CDB07256801D5FFF7FEFE256038BD6409002018B1837BFB
:203B8000013B012B00D970470123024AC3731370704700BFBB24002006F002BE38B50A4C96
:203BA000049D22682AB1C0E9013501602060002038BD0246C0E9013501600846226006F0DC
:203BC000F1FD002038BD00BF6C09002010B5084C206858B1D0E901310022226098472368EB
:203BE00023B1BDE81040186806F0DCBD10BD00BF6C09002010B541600446FDF7EFF82060C1
:203C000010BD00BFD0E9003213440360704700BF10B50446FDF7E2F8206010BD10B50446C4
:203C2000FDF7DCF8D4E90032C3F10103184482422CBF0020012010BDF8B504880746672CE3
:203C40000BD0792C04D0D4B100233B800320F8BD852936D11C4E002333601C4D1A4C05E04C
:203C60000A282646236811D07E2B25DD284600F0C5F8431CF4D167233B800120F8BDFFF73F
:203C8000AFFE134A104B10701C60E6E70025114A0F49D5540978013328462360FFF742FF18
:203CA0000D4B2A4618688521FFF73CFF0028D2D179233B800120F8BD06495A1CC85422608A
:203CC000D4E70120F8BD00BFF0090020F4090020612F0020700900206409002008B505497D
:203CE0000548802200F082F8BDE8084000210348FFF77EBEFC090020F40900203401002049
:203D000000230360704700BF0068704710B404685CB1A1421CD023680BB906E01346994213
:203D200012D01A681C46002AF8D100230B6002680AB906E01A461368002BFBD1116010BC1A
:203D40007047016010BC70470B6814B12360ECE70B680360E9E700BF30B4046864B1A1428D
:203D600017D0236825460BB906E01346994207D01A681D46002AF8D10C60016030BC704769
:203D80000B682B6000230B6004680C60016030BC70470B680360F5E710B404685CB18C42FE
:203DA00011D023680BB906E013468B421A6804D01C46002AF8D110BC704734B12260002210
:203DC0001A6010BC7047234622680260F7E700BF03682BB100201B680130002BFBD170472B
:203DE0001846704700B10068704700BF0023013A0160027143718371704700BF10B4817911
:203E000042790479521A224207D003464A1C00682240405C9A7110BC70474FF0FF30FAE7D1
:203E2000F0B4561E0E44B14219D2023A22F001070B1D1F448C1C14F8025C14F8013C0234C8
:203E400003EB05239BB2184480B2834284BF013080B2BC42EFD122F00102023211448E42DA
:203E600007D133781B02184480B2834284BF013080B2F0BC704700BF30B5124B124D1C7852
:203E80002A796B79C4EB0222134483B09BB2ADF80630BDF8063005F108011844202280B25C
:203EA000FFF7BEFF04F12801BDF806202944FFF7B7FF18B140BA80B203B030BD4FF6FF70F4
:203EC00003B030BDBD240020EC24002002204FF0000CF8B52D4D2E4F2A782E4C2832BB18B7
:203EE0005E782070F6000736864242DB1318F95C3B44012912D018D3632907D1BCF1000F2E
:203F00003ED102F039FD98B90120F8BD01F0C001802918D0C02925D040291ED05B780230C6
:203F20001844C0B24FF0010CDEE70130C0B2F9E722782B78184913440B445B7802321A4476
:203F400022700020F8BDBCF1000F17D102440221042007F0F1F80220F8BDBCF1000FD3D0B3
:203F60002070D1E7BCF1000F0ED13B7EFF2BCBD0ECE7BCF1000F05D10020F8BD2070E5E74A
:203F80002070BEE72070F7E72070EEE7BD240020EC240020BE2400201425002070B4C4782D
:203FA000134A0C44E4B2D47083780E0A3344DBB2937045789E4255700078107003D90135F4
:203FC000EDB2557085B1C9B28C420BDA0133DBB293703BB953780133DBB2537013B91378BB
:203FE0000133137070BC704701301070EBE700BFE024002010B5084C014620681430FFF79F
:20400000CDFF064A2368507814789178D2781C7558759975DA7510BDE4280020E02400207A
:204020003A20FFF729BF00BF08B507F0DDFB07F07FF901F04DF900210E4B03F1280223F8A4
:20404000021F9342FBD100210B4B03F5F07283F8251030339342FAD14FF480600021074A85
:20406000074B108003F5A072198220339A42FBD108BD00BFCE2A0020E8280020A22400200C
:20408000FC2A0020F8B5114D2C7844B1104F04F127033E88B34203DB00233B802B70F8BDF1
:2040A0000C4BA6F128021919121B184609F076FA03460021341BA4B2A4F1280210123C8016
:2040C00003F8232C03F8240C2970F8BDBD240020D82400201425002010B4084C0023224604
:2040E00002E00133142B06D032F8021B8142F8D1002224F8132010BC704700BFD02A0020F5
:204100002DE9F04F042885B07ED0AA4ADFF8D0B2DFF8C892DFF8CCA20328DBF80050C9F8C9
:204120000020CAF8002013D0022800F0B58005287DD012F83C3CA2F13C0403F0F003602B0B
:2041400000F056819C4F9D4E9D4BDFF89C8265E095F8250000F00F0003287FD00228964F66
:20416000964E58D1A2F13C04402360223380954B84F8350084F83420E3632B7DDFF86CC273
:2041800084F830306B7D84F83130AB7D84F83230EB7D84F833302B7E84F82C306B7E84F84B
:2041A0002D30AB7E84F82E30EB7E84F82F302B8A23856B8A638595E80F008CE80F0061466B
:2041C000ACF1100007F066FA95F82530D9064CBF00234FF48043E3860622002133887A48B7
:2041E000283B057963711B1223711046E571A271A163FFF741FEC04320876023236000237E
:204200003B7005B0BDE8F08F6B4F6C4E6F4C2388002B40F09B806A4BDFF8CC81002232801D
:204220001A7088F800203A7005B0BDE8F08F684B1B681B8A002B85D000230821634C5F4ECE
:204240005D4F0C3AC9F80020CAF80020CBF8003023803380397002F09BFAD8E7AB8B002B10
:204260007FF470AF0823544F544E3B70574C02F08FFA3B7813F0200200F0AE820023142222
:204280002380544C85F8253084F835203C233380502384F8343070E700274F49474ECA78E6
:2042A000474B0132494CD2B2CA7037801F70278062B98A780132D2B28A703AB94A78013243
:2042C000D2B24A7012B90A7801320A7095F8252002F0FD0105292CD0A2B3A98B002900F018
:2042E000E68095F826104F1E85F8267051BB95F82710082900F0E982571E012F40F2E2827E
:2043000004298C464FF0030728BF4FF0040C02F00F02013107FA0CF7013A85F8271085F87A
:204320002670072A0ED8DFE802F0A3A7AA9D0D9D0D9D95F826200132D2B2782A85F8262043
:2043400000F089801C4FDFF8A08067E7002011251F4A204C126803F1080149BA92F814C0B1
:20436000A185E085118A303321859BB2508AA3F1280184F807C04FEA212C338084F804C06E
:2043800060856171A57104F118060FCA86E80F00314604F1080007F07DF9104B04F13C0278
:2043A00028461A60FFF768FDC04380B2002849D0E08522E728250020D4280020D824002031
:2043C000BD24002002040040F42D0020F82A0020DC280020EC2400207C0A0020E0280020F1
:2043E000E4280020DC240020BC240020042500202379844E61791B0230885D18854225DCCE
:20440000207A28310B44FF2833801FD000217E4D363A7E4BDFF810822A60A279197088F855
:204420000010002A58D10122009388F80020FFF74DFD0128009B00F0448143D302284BD1AE
:20444000734FDCE64FF6FF73E385D6E6704F6F4BDFF8D481E2E600226D4F85F82520DFF819
:20446000C881DBE66A4F6B4C112384F835300DE7674F684C122077E6654F664C74E60423D9
:20448000634F3B7002F084F92388DAF80020C9F80020002B00F0B881AB8B002B00F0B481F8
:2044A00018225C4C3C33338084F83520F0E602F00F02032A7FF446AF0823554F3B7002F04D
:2044C00067F9D6E61A7802F1280121444878083202EBC00229601A704F48009306F0BCFF16
:2044E000009B002800F0A8811F462A6811783C2900F26B81DFE811F05501690169016901C1
:2045000069016901E70069016901690169016901690169016901690169016B00690169017D
:204520006901690169016901690169016901690169016901690169016901690169016901DB
:20454000690169016901690169016901690151004E006901690169016901690169016901F0
:20456000690169016901690169016901DB004E003D0098F80030980740F1C481590600F134
:20458000248143F0400388F80030FFF79FFC012840F014813B461E4F40E698F8003013F0FA
:2045A000040C40F01281387843F0040300F128022244D17888F80030002940F062845178BC
:2045C00000F1080303EBC1032A603B708EE70097FFF758FD1120E28DA071009B002A40F0FB
:2045E000AF81658D002D6CD00C490D4F208D0D4A0B460090116001F5A07407F1040C07F11F
:20460000080818E0D8240020D8280020BD240020D4280020EC24002004250020FC2A00207A
:20462000F4240020DC280020BC2400202033A342136080F06C81198A0029F7D08D42F5D1EE
:20464000598A11B100988142F0D1196829B9596819B9996809B9D968B1B138681968884252
:20466000E4D1DCF80000596803F1040E8842DDD1D8F800105EF8040F8142D7D1A748DEF8F9
:20468000041000688842D1D1002202213388A44C303B3380A34FA44BCBF800202280397015
:2046A000C9F80030CAF8003002F072F8AFE53A200097FFF7E1FB4FF6FF729042009B00F051
:2046C0004981984FAAE50097FFF7DCFC06221046A271FFF7D1FB4FF6FF729042009BF0D1FE
:2046E000628D0192002AECD0228D0292002AE8D08E4FCDF80C803D46984604E08C4B30357E
:204700009D4200F26D8195F825300093002BF5D02A8A019B9A42F1D16A8A029B9A42EDD15C
:2047200010222946834808F091FE0028E6D10246019094F835007B4F41074346CBF800505F
:20474000DDF80C803A7000F10784318894F834C0009A4FEA1C1C2839A1EB8C0102F00F0C07
:2047600089B2BCF1020F318000F00084BCF1010F00F0D18111B9820700F0D3816969E26A67
:204780008A4200F0CE81830707D5BCF1010F3FF471AEBCF1020F00F06983102384F83530EB
:2047A00074E598F80030D9070FD443F0010388F80030FFF78BFB01283FF4ECAEC0F09780FD
:2047C00002283FF43DAE2A6890E6121B0121042006F0B2FC534F12E513F010010CD00120C8
:2047E000042111232280544C85F82720A88385F8251084F8353049E5228882B9DAF8003087
:2048000085F82720C9F800303B789B077FF503AD3C221023484C328084F8353038E5D807B6
:2048200060D5A983EB8B9A4288BF23802388AB83002285F8272028E64048009306F0C4FE3B
:20484000009B00287FF450AE207E2189FF2800F0998048F2FE05228BAA4200F0BD80A942BE
:2048600000F0198179B9618969B9A18959B9E18949B9218A39B9618A29B9A18A19B9E18AF6
:2048800000293FF41EAF82B9628B72B9A28B62B9E28B52B9228C42B9628C32B9A28C22B951
:2048A000E28CB2F5807F3FF40CAF3388B3F5A06F00F2F780E379012B40F22581013BE3712B
:2048C000184F9CE405297FF41BAD00228023154F85F825203B7001F05BFF1423164C84F892
:2048E0003530D3E4AB8B002B9CD02380A0E73B7803F1280222445178083303EBC1032A602E
:204900003B70F3E543F0020388F800303DE600220421012006F010FC92E500BF0025002024
:20492000F82A0020D42800201C250020E8280020982A0020F4240020EC24002004250020F5
:204940000093FFF799FA4FF6FF729042009B7FF4B8AE46E61A78B5490093885C01F0ACFD72
:20496000009B1A782832A1184978A05C06F0C0FB0128009B3FF4A5AE3288AD4F002A7FF4EC
:204980003EAC4BE448F2FE0291427FF49AAE228B002A7FF496AE628B002A7FF492AEA28BB1
:2049A00062B9E28B52B9228C42B9628C32B9A28C22B9E28CB2F5807F3FF483AEFF283FF407
:2049C00080AE9C48009306F027FD0246002800F05182974F009B21E491427FF472AEF0E722
:2049E00094F83520434602F03F02022ADDF80C8060D08F4F94F8352050073FF50FAC4FF019
:204A00003C0C41F2504094F8333094F8325094F82F1094F82E20013184F82F30A6F800C07E
:204A200094F82D3094F831C0A08684F82E5094F82C0094F83050C9B284F8331084F8322024
:204A400084F8313084F82DC084F8300084F82C5061B90132D2B284F832203AB90133DBB219
:204A600084F8313013B9013084F83000714DB4F82880B4F82AE0A5F1100C9CE80F00A4F807
:204A80002A80A4F828E085E80F006046294606F001FEFFF7A1BB002A93D1628B002A8DD1ED
:204AA0007DE74FF4A0620021022006F045FB604FFFF7A5BB0022604901E0142A99D031F853
:204AC0001200019D0132A842F7D100254FF0300E2A4602E00A2A00F029820EFB02F0391832
:204AE00091F825C00132BCF1000F00F0D381BCF1070FEFD12DB191F826C095F826108C45B1
:204B0000E8D93D18E6E700220320114606F014FB474FFFF774BB00F03F0EBEF1020F7FF4E6
:204B200029AEC00601D5A98BC1B90CF1FF3CBCF1070F3FF673AB01A252F82CF07B4F000033
:204B4000E34B0000834D0000534D0000254D00000D4D00009B470000B14B000005F11800FF
:204B60000093FFF71BFA354994F8300091F800C0009B844566D095F8252002F00F0101396C
:204B8000009207293FF64AAB01A252F821F000BFFB4B0000CF4B0000834D0000534D00009C
:204BA000254D00000D4D00009B470000B14B00003A78D4077FF532AB0021102285F8251068
:204BC00000933A7001F0E4FD009BFFF727BB3978CA0706D594F8351001F03F01122900F0C9
:204BE000D581202200933A7001F0D2FD0021DBF80020009B82F82510FCE63A78D10740F125
:204C0000BC81032140220023308885F825103A70AB8318B142233B70FFF7ECF90023084C41
:204C2000238001F0B5FDFFF724BB00BF14250020D428002004250020D02A0020E02400209E
:204C4000F82A002094F831E04878704593D18A7894F832E0009272458DD1C97894F833E075
:204C6000714588D195F827E0687685F818C0AA76E97695F82400BEF1000F21D195F82610BB
:204C800095F822C0411AA1EBDC01C9B20CEB01004FFA81FCBCF1000FBCBF49424FFA81FC20
:204CA00095F82310C0B2A1EB91016144C9B285F8220001EBD00085F8240085F82310C0B266
:204CC0004FF0010E4FF0000C95F8252085F8260002F00F010139009287F800E0A5F81CC020
:204CE00007293FF69BAA01A252F821F0034C0000CF4B0000834D0000534D0000254D0000C1
:204D00000D4D00009B470000B14B00003A78D0077FF584AA0721002285F8251085F8262071
:204D2000FFF77CBA3088002840F0848094F83520D2077FF573AA0722002385F8252085F85D
:204D400026300120FFF756F910233B7001F020FD23E5308818B10093FFF74CF9009B94F82D
:204D60003520397812F0010201F0010176D0002970D00023072285F8263085F82520AB8377
:204D8000DFE794F83520D00720D50099C9061DD4AA8B002A7FF442AA3088013080B2FFF778
:204DA00029F93B78328843F01001397012B143F012033B7001F0ECFC012108220023A9834D
:204DC00085F8252085F82730FFF74EBB9006318810D5628F94F83AE094F83BC0D9F800001B
:204DE00052BA92B24CEA0E2C1044A1EB0C02C9F80000328030883A7848B10099C90606D4ED
:204E000042F0020200933A70FFF7F4F8009B94F8360094F83720298C02EB002292B2914222
:204E200002D3002A18BF11463A78E98394073FF4F5A9F3E60093FFF7DDF894F83520009B08
:204E400012F0010F7FF477AF3288002A7FF4A5ACFFF7E4B9062385F8253072E70029F3D02C
:204E60000521AA8385F82510FFF7D8B940F00200FFF77AB90221012006F05EF96B4FFFF70A
:204E8000BEB900F12A026146042006F055F9674FFFF7B5B90D464FF4806040F20311032274
:204EA0004FF0010C019F624B2F82029F68846F82604FA984EA840FCB85E80F007978BA7867
:204EC000FB7897F800E0697694F82C7094F82D10AA76EB7694F82E2094F82F306046AA7515
:204EE000A5F81CC085F818E06975CBF800502F75EB75FFF77FF894F8343003F0F002502A13
:204F000011D900221B09053B9B00A11891F83C704FB1012F1ED0022F91F83D000AD010B1E8
:204F200002449342F1DC414FFFF7A4BA002DB2D1FFF7C7BB0428F2D191F83E2091F83F30AF
:204F40003A4F43EA0223402B28BF4023EB832B84FFF790BA0132E4E7202185F825200093D0
:204F6000397001F015FC009BFFF758B900F03F0EBEF1120F7FF4FEABD3E594F8352002F030
:204F80003F02022A7FF44AA9FFF774BA94F8341001F0F000502817D909090539019A89008D
:204FA000A01890F83CE0BEF1000F0DD0BEF1010F39D0BEF1020F90F83DC025D0BCF1000F3C
:204FC00002D062449142EBDC032194F82C2094F82D0085F825102A7594F82E1094F82F2014
:204FE0006875A975EA7501200093FFF703F800224221114C009BAA8332801A702280397081
:2050000001F0C6FBFFF735B9BCF1040FD6D190F83E1090F83F2042EA0122402A28BF4022D4
:20502000EA832A84D0E70132CCE700BFD4280020F42400207C0A0020F82A0020054A030C5F
:2050400002EA00225BBAC0F307209BB2104343EA0040704700FFFF002DE9F04F8F4C85B02C
:20506000E3798F4DFF2B06D08E4E002333802B7005B0BDE8F08F2B7803F12C002044027930
:20508000FF2AF1D0884A1A445278002AECD14FF0140C844E854F3188DFF8248240338B42CA
:2050A00087F800C0C8F8002069DA23445A78002ADBD0DFF8109204F1080A1A78012A2BD147
:2050C0002289C8F8003042B9628932B9A28922B9E28912B9228A002A46D053F8020F02AA34
:2050E000596803C2504606F08DFE0246C9F8000028B306F07FFE83460028B6D0D8F8000075
:2051000008220230594608F0A1F908BBD9F800305A7C0AB902225A7428783A782C3083186A
:2051200023445B78318802EBC302D2B213188B423A7023DA23445A78002ABED195E7052311
:2051400002A9CDE900300223504606F037FEE3E75846012202A904F0B7F9002885D002225D
:20516000D9F800305A74D7E7628A002AB5D1A28A002AB2D1E28A002AAFD176E72044043022
:2051800006F06AF94A4F386000283FF46EAF23897BB963896BB9A3895BB9E3894BB9238AC0
:2051A0003BB9638A2BB9A38A1BB9E38A002B3FF45CAFDFF81481404606F04EF900287FF489
:2051C00054AF40F2FF23228B9A420BD1638B4BB9A38B3BB9E38B2BB9238C1BB9638CB3F593
:2051E000807F48D0DFF8E490484606F035F93B68844698427FF439AF98E80F0089E80F00EA
:205200002B784B4418330FCB88E80F0060208821E0224FF0000E40F20228264B218584F851
:205220002C20636020605CF8020F234FDCF80410DCF80820DCF80C3085F800E00FC71F4B77
:20524000A7F80EE019685B68C4F84210C7F80630A4F82AE0A4F84080C4F84AE0FEF7E0FEBF
:205260005022C0432B783280A7F1180202EB030BABF80200FCE694F82430FF2BB2D198E823
:205280000F0008F1100C8CE80F002B78D7F800C0434428330FCB88E80F00B7E7EC2400202C
:2052A000BD240020D824002014250020BF240020800A002000283AFF1C250020E4240020E1
:2052C000880A0020840A0020F424002004250020014805F02BBF00BF4401002008B5034899
:2052E00001F0E4F8024B034A1A6008BD595D00008C0A00200100FD0070B413780C7A83F0F6
:2053000002039C4220D0214D0B892C681BB94B89B3F57F4F0CD0012201F10803824004F153
:20532000080603CB2E6020606160D0B270BC70478B89FE2BEFD10223CA8903FA00F024F8DF
:20534000022B2C60C0B2F1E74C7A53789C42DAD18C7A93789C42D6D1CC7AD3789C42D2D188
:205360000C7B13799C42CED14C7B53799C42CAD18C7B93799C42C6D1D379CA7B9A42C2D109
:20538000032303FA00F0C0B2D0E700BF5C11002010B5124C0220A17904F0F0F9A379112BF1
:2053A00009D0062B07D03A2B0FD0BDE810400021012004F0E3B9238D618D0120BDE810404D
:2053C000994228BF194604F0D9B9218D0120BDE8104049BA89B204F0D1B900BFEC240020B7
:2053E0000E4B1A78012A01D00020704710B459880288914202D0002010BC7047428899888D
:2054000002309142F7D1D98830F8022F9142F2D1428819899142EED11846EDE78C0A002089
:2054200008B50146102004F0B7F9044B00219B6803489847BDE80840FBF726BEC4DB000095
:205440004554000010B50C461146204606F00AFD044B1B6813B19B6820469847024B1C603B
:2054600010BD00BF980A0020641100202DE9F843184D00222B469C78713334B101320C2AFA
:20548000F9D14FF0FF30BDE8F883C2EBC20402EB041405EB040888F80110074604F0C8F8AE
:2054A000DFF838900C4B99F800101E68401A88F802002F550E4404F0BBF899F8002003348E
:2054C000821A3146281907F0F3FF98F80200BDE8F88300BFA00A00206C110020C0240020B3
:2054E0002DE9F04780461646002A3DD1664D89462E46738A17464FF0020A4FF0FF342BBB12
:20550000631C2ED0BAF1010F06F1B80619D1621C14D0B82606FB04F6AF190F20A7F8129041
:20552000A7F8108004F044F90146384604F06CF906F1180028444021FEF75CFB2046BDE8BA
:20554000F087738A4FF0010A002BD9D006F11800FEF764FB002843D1611CD3D1738A002BD1
:20556000D0D1CAF10204CDE7474D2B8A834208D0B5F8C830434524D04FF0FF342046BDE891
:20558000F0876B8A002BF3D00F2004F011F90146284604F03FF90028EAD00024E7B2384686
:2055A0003146FFF763FF00282BDB0028E4DDB82303FB0455AB8A64B21844A8822046BDE8F7
:2055C000F087B5F8CA30002BD6D00F2004F0F0F801462E4804F01EF901240028CCD0DDE75C
:2055E0002B4BCAF10200778203F24C51C0B29A781AB11A78824208BF9F7071338B42F6D13A
:205600007EE76B8AE3B1002C39D02248FEF706FB0028B1D0002210461D4B6A8203F24C5100
:205620009A781AB11A780AB99A70013071338B42F6D10028A0D031463846FFF717FFB4E791
:20564000B5F8CA30002B97D0002C95D11248FEF7E5FA002890D00022104694460C4BA5F883
:20566000CA2003F24C519A782AB11A78012A04BF83F802C0013071338B42F4D1D9E7B5F830
:20568000CA30002BE2D177E7EC0F0020A4100020A00A002004100020BC1000202DE9F843AA
:2056A00015090F2D0646994602F00F0422D00F2C0DD022462F46C5BBA046C2F11002F01945
:2056C000002107F0CDFF9CBB15BBBDE8F88335BB1024DFF88490D9F8007038687968BA68AC
:2056E000FB6830607160B260F3603C44C9F80040BDE8F8830F2C11D01027A0463A463D46A4
:20570000304607F0D5FE07EB08020F2ADBDCD4E749463046BDE8F84306F046B810254FF055
:2057200010082A4644462F46EAE72A46A046E7E7DFF82490C8F11000D9F800703044394665
:20574000224607F0B5FE022CCFD10A2DCDD8FF22FE23F2723373C8E75C1100202DE9F04FB0
:20576000002589B00F20DFF83493C04C04F020F804F0F0F889F80050257003F045FFBC4E63
:205780003060042004F002F83368BA491A8800B252BA92B20860111201F0F801C02964D093
:2057A000E0290FD02278A846995C009501F0E0006028AB46B04F76D0412900F0168109B0B6
:2057C000BDE8F08F588893F804A02378C2F30A0B40BA053380B2524659462370FFF780FE8F
:2057E000B0F1FF3F8046EAD0B823A44A2F4603FB00239B8A01225B4534BF00230123009237
:20580000019303F015FF23788342D8D803F010FF237899F80090C41A09EBCA0A984AA244B1
:20582000BAF57A7F1460CAD837B1316807EB09001944224607F03CFEBBF1000F40F032819A
:20584000009B002B00F04081019B002BB7D08D4BA3F800B08C4C236823B1FFF799FD236812
:205860005B68984700F03CFEA9E758882378C2F30A0B40BA043380B22A4659462370FFF78C
:205880002FFEB0F1FF3F804699D0B8277B4A336807FB00270122009222782237995C01F0D7
:2058A000E000602888D19818457802321344DFF8F0A16AB2002ACAF80030BCBF0133CAF81E
:2058C0000030C806019201F0080200F1B780DAF80030002A00F0018160223A7093F800C0FF
:2058E000D81C4FEA9C0202F030020CF00F0C42EA0C027A70B3F80130CAF800007B8011F0E4
:205900000403029306D1DAF8003013F8012BBA71CAF8003011F0030100F0FD805B4B5B5CEF
:20592000FB716A06C5F3011340F11281019A002AC0F22F810022002B40F0E581194607F19A
:2059400008020392524A0F20D25C0591049203F02FFFDDE9042103460398FFF79FFE05F00B
:20596000030205F0040315F0080500F0DC80B3B94849531E0988012BADF81C1007D8DAF81B
:20598000003013F8011B8DF81D10CAF80030424900238A5C07F1180007A9FFF77FFE99F8B4
:2059A0000020DAF8003002F1280189F80010029929B1197801F0F801F02900F00D813268F7
:2059C0009B1A2370BBF1000F00F0D780ABF128031A127B713A71BB79112B4FF0000300F051
:2059E000C5800193009D9A460BE73946501CC0B2034403F12000D3F800A0D3F804E0D3F8C2
:205A000008C0DD6810338342C1F800A0C1F804E0C1F808C0CD6001F11001ECD10025019552
:205A200018685B6808604B6099F8003029322833AA46227089F80030009DE2E6002A47D1BF
:205A4000DAF8003018461B78C3F3830343F060033B7010F801CB7A804FEA9C0303F030030A
:205A600043EA8C13CAF800007B7048E7C02400206C11002060110020EC240020EC0F002001
:205A800068110020D8240020980A002040DB000044DB000020DB00004CDB0000C12400202E
:205AA0005C11002045B1B822A14909EB040302FB08129BB293821384019B002B40F0DE803F
:205AC000009B002B7FF47BAE9A4B4C441C80C1E6602200233A807B8011E7184633F8012FA1
:205AE0009B78A7F80120FB7010F804EB97F801C04FEA9E0303F030020CF00F0C42EA8E123F
:205B000003F00F0343F0600342EA0C02CAF800003B707A70F3E6DAF8003013F8012BFA71DC
:205B2000CAF80030FDE6002B49D0019B002BC0F2E3802B46804D2978012902D169789942D8
:205B40002DD000237D4A9A4601931360009D58E67B4A0F20D25C039203F02AFE039A0346E4
:205B6000784907F10800FFF799FDF8E61A460193BB889246BB85009D43E603F059FD237801
:205B800099F80020C31A1344283B1A127B713A7121E7217832680A4492781209CBE66A49E8
:205BA000664B8A5C102001921D6003F001FE019A0346A91C07F11800FFF770FDEFE6604B80
:205BC00010209D5C03F0F4FD2A4603465D4907F11800FFF763FDE2E61121B971187800F04F
:205BE000F301F03900F00400032900F29C80DFE801F03B322302597802330909A1F575618C
:205C000089B2090241F0F001398513F8011C01F00F01A1F5756189B2090241F0F001798563
:205C2000CAF8003020B933F8021BF985CAF80030303289F80020C2E659780433A1F58051C7
:205C400089B2090241F0F001398533F8021C7985CAF80030E6E7B3F801100433398513F85C
:205C6000011CA1F58051D6E7B3F801100533398533F8021C7985CAF80030D3E7B82303FB65
:205C800008F32B4F314D03F122013B441A8C39442F48A3F814B0EE1E07F00AFC06F24F5AD8
:205CA00002E07135554510D015F8012C002AF8D015F8033C9845F4D115F8020C244B2946CF
:205CC00003EBC00007F0F4FBEBE7B82300225FFA88F803FB087711467A821E4AB3781BB159
:205CE0003378434508BFB17071369642F6D1009B002B3FF4E9AEAAE5217833680B449B788E
:205D000003F00F0316E70C48017801297FF419AF417891427FF415AF084A811C106007F135
:205D2000080203920EE60023009D01939A4668E5EC0F0020D82400208C0A00209C0A00209C
:205D400048DB000024DB000044DB0000A30A0020EC240020EC0F002000232DE9F04FDFF89B
:205D60000CA3B64D89B08AF800302B70044603F091FC03F049FCB24BB24F1B6838600BB114
:205D8000FFF706FB06A80190002C00F00E81214603F03AFDDFF8D8B2D7F80090BBF80030EE
:205DA00095F800803E2B31D9002308F10208A64E09F80830A54809F102033360FFF710FB90
:205DC000002800F0578109F103033360802303939F4C617822780B0943EA0213DBB2980826
:205DE00040EA83135BB2080702F00F025FFA83FC5CD16088002859D1002A40F0778111F032
:205E0000F00F40F07381782302935BE0904C4123A44608F10106F6B24E4404F1200E89F8EC
:205E20000030E146B9E80F00F14530607160B260F3600CF1100C06F11006F2D1BCE80300CF
:205E4000306071609AF8003008F12908283385F800808AF800300199102003F09DFC7D4BCD
:205E60001B6898470028B8BF4FF06808BBF800309AF800902E78A8BFC0F17D08A3EB090291
:205E8000A8EB0601B8BF15208A4240F33681C0F1780293FBF2F6029203F07CF80138864269
:205EA000C0F29281002009B0BDE8F08F3068002A00F0B38003462268026003F804CB3360A9
:205EC00060230293A379112B73D1029B43F004030293E379402B73D0FF2B00F03482012B9C
:205EE00000F0D080326802F8013B32602389002B6DD163892BB9A3891BB9E389002B00F094
:205F00007D825548FFF76CFA544B1860002800F00782417819F80830514A43EA011309F8F2
:205F200008304D490420FFF7E7F960F03F00C3B20393237EFF2B40F0F580637E039A022BE4
:205F400042F00808D6F80090628B00F00182002A40F0AA80A28B002A40F0A680E28B002A79
:205F600040F0A280228C32B9628C22B994F82420002A00F07882228C002A40F0958094F8E0
:205F80002220002A40F090804A46364902F8013B0B680398C9F801300B7909F1060C40F050
:205FA00009081371C6F800C08EE02F4903F02CFCF0E6326802F8013BE3793260402B8BD172
:205FC000029B43F0020302932389002B91D02249059308460491FFF703FADDE904131F4A00
:205FE0001060002895D148F2FE02934240F09981638B002B40F09581A38B002B40F0918150
:20600000E38B002B40F08D81154A0420FFF774F9039B0343DBB203938BE711F0F00F7FF4D7
:2060200049AF23F03F031943C31C33606823017062880293A0F8012044E700BFC024002023
:20604000980A00206C1100205C11002004250020EC24002068DB0000F42400209C0A00209A
:20606000E42400200F25002060DB0000C1240020D8240020CA48FFF7B3F900287FF4A3AEA8
:206080000390A5E6029B43F0010302932EE748F2FE03228B9A4203D1638B002B00F0C3817F
:2060A000DDF80C80D6F80090DFF8F8E209F1100CBEE80F00C6F800C0C9F80000C9F8041091
:2060C000C9F80820C9F80C302822A3798AF80020112B49D03B682A780298ACEB030C991847
:2060E000985485F800C081F80180B4E670223368029203F801CB3360E4E6386804EB090165
:20610000304407F0D5F9BBF800003044A0EB090080B203F073FA0198FFF782F9012009B015
:20612000BDE8F08F9F48FFF75BF99F4A10600028ADD0417819F80820039B0A4343F00403F5
:2061400009F808209749019A00200393FFF7D4F82822039BD6F800C01843A3795FFA80F865
:20616000112B8AF80020B5D14FF2B00E238D608D1A0A42EA032292B222F00F01030A89B2FC
:2061800043EA002371459BB200F0168103F47F43B3F5704F00F0258102F47F42B2F5704F52
:2061A00000F05481F0238CF80030A26A0CF10503CCF801209C463022E38D8AF800202CF8F3
:2061C000023BC6F800C085E700232E78D7F8009032460396754E494609F10400336007F085
:2061E000DDF9BBF80030039E1B0ADFF8C4C163F03F0389F800300436BCF80020F6B2BBF815
:206200000000A8EB06089AF8001028F0070389F8010089F80320100ADFF898810132ACF812
:20622000002021441A4689F8020009EB06002E70C8F80030039307F03BF9039BF01880B2D5
:2062400003F0DCF902F0ACFE064600283FF42AAE0198FFF7E5F8304602F0EEFE3046534E84
:2062600002F0D4FE3368012B3FF41CAE043B012B7FF618AE0522BBF8003038681B0A63F0CE
:206280001F0303709AF80060D8F8003002991E44BBF8003021F00701B6B2C8F800102A70AC
:2062A000437033E0D8F800A03B685245B8BF924695F80090B8BFC8F8002003EB090083F839
:2062C00004C0524607F0F4F809EB0A0080B203F095F902F065FE814600283FF4E3AD01982E
:2062E000FFF79EF8484602F0A7FE484602F08EFE2E4AD8F8003012681E44012AA2F10403C8
:20630000B6B23FF4CFAD012B7FF6CCADBBF80030A119B3424FEAD60CA3EB0602C2D8FDE68C
:206320001F498C46D6F800E0BCE80F000EF1100CCEF80000CEF80410CEF80820CEF80C3017
:20634000C6F800C0F5E5029B43F003030293CDE5002A7FF4A9AEA28B002A7FF4A5AEE28B4A
:20636000002A7FF4FBAD228C002A7FF4F7AD628C002A7FF4F3ADA28C002A7FF4EFAD94F8CB
:206380002620002A7FF4EAADCC4694F82730039A0CF8013B42F00B08C6F800C094E600BFB5
:2063A000F4240020042500209C0A002064110020A42400206811002023F00F0088427FF421
:2063C000E5AEF3238CF80030228D638D120A1B0A03EB021303F5AA638CF801300CF10203C1
:2063E000E8E6F1238CF80030228D0CF10403ACF80120628D120A8CF80320DBE6238A002B44
:206400007FF47FAD638A002B7FF47BADA38A002B7FF477ADE38A002B7FF473AD039B43F03F
:206420004003039385E5A38B002B7FF439AEE38B002B7FF435AE019A1349FEF75DFF039B91
:20644000D6F800C003435FFA83F83DE6F2238CF80030228D0CF10403120A8CF80120628D45
:20646000ACF80220A6E64A46084902F8013B08888B78039909F1040CA9F8010041F00A0895
:20648000C6F800C093701FE6042500201125002008B50548FDF7DAF900B908BD0248BDE899
:2064A0000840FDF7C9B900BF74110020014B1860704700BF7011002000B5074B83B08DF820
:2064C0000700186828B1054B0DF107021978FDF749FB03B05DF804FBC82A0020632F002071
:2064E00008B5002202210448FDF73CFB00230349034A0B80137008BD50010020D824002007
:20650000BD24002038B52B4C2388002B31D0B3F5A06F2AD8284D2B8B6BB96B8B5BB9AB8BF7
:206520004BB9EB8B3BB92B8C2BB96B8C1BB9AB8C0BB9EB8CCBB100F0CFFAB0B12B7EFF2BAC
:2065400018D01E4804F068FFF8B91C4805F0A2FA0546F0B105F008FA00B305F053FCB0B1B1
:2065600005F048FC164B1B684BB90023154A2380137038BD124B1B68002BF6D0002098478D
:206580000023104A23801370F3E70C48E5E7208038BD05F0B9FB0028DFD1E6E7EB6923B153
:2065A0001B6A93F8940001F07FFA2846BDE8384005F036BBD8240020EC24002004250020C7
:2065C00070110020BD2400202DE9F041038882B00546CBB140F24B3083420FD1022949D0B8
:2065E00034D8002957D0012929D142B35B4B05201A60FDF785FDFFF785FF20E000230320AB
:206600002B8002B0BDE8F0811946554A22F833100133142BFAD1534B1B68C2F8A030FDF7CF
:20662000DFF9514B1870FDF7DBF9504B402118704F48FDF7EDF8FDF7F7FC00F07FFB40F21F
:206640004B3301202B8002B0BDE8F08187292ED08829F4D1464B9A425BD0464B9A42EED140
:206660001046FDF7F3F80028E9D004F0E7FFFFF749FFE4E7404C2388002BE0D03F4B9A7972
:20668000062A64D00120FDF73BFD2388002BD6D0FFF738FFD3E7002AD1D0394B03201A60FA
:2066A000FDF72EFDFFF72EFFFFF7F2FEC7E7354C002704F1A00602E00834A6420ED054F891
:2066C000043C9A42F8D134F8080C0192FDF704FD24F8087C44F8047C019AEDE700242A4BA9
:2066E00003F5C070996A30338A4204BF43F8084C03F80B4C8342F5D30024244B03F5A07074
:20670000996920338A4208BF23F8104C8342F7D395E710460192FDF799F800288FD0019A7F
:20672000194C9046164F04F5C07602E03034B44285D094F82530002BF8D04046FDF77CF837
:2067400002203C60FDF7DCFCFFF7DCFEEEE793F835309B0796D5FFF79BFE93E7DC280020E0
:206760008411002064090020622F0020632F002074110020502F0020D8240020EC240020E4
:20678000E42800208C110020E8280020FC2A002010B5164B1A6822B302F12804144B1B780C
:2067A0005B0614D5134B118A03F1A00002E0083383420AD033F8082C8A42F8D153F8042CD7
:2067C000002AF4D00023C4E90023FFF761FE206830B1094B62681978BDE81040FDF7C2B907
:2067E00010BD064B1C681834D8E700BFE4280020D42800208C110020622F0020DC28002053
:20680000002270B52F4D304CAB79267822701BB995F82A30632B02D00120267070BD95F859
:2068200029301BB995F82B30042B01D0002070BD95F82D0001F0B6FC28B390F8953013B3AB
:20684000C3689A7DFAB1998B23780A0A2A3342EA01222B449A8090F89420DA7090F897207E
:20686000012AD9D993F9023005F11800002B0CDB05F010F923782A331D44AB78E8B163F0F7
:206880007F03AB70C8E72670D0E705F003F90028C2D123780F202A331D44AB7843F02003B2
:2068A000AB7002F085FF01F063F80028BED00022064900F0A3FF002070BD03F07F03AB7065
:2068C000AAE700BFEC240020BD240020042500202DE9F84F0025DFF89880244CB8F80060FD
:2068E0002778B6F5787F257003D927702846BDE8F88FDFF88090A6F128028A4683464946E5
:2069000009F1080006F04AFE40F26342C9E9005519F8221CA9F1280383F8281009F8225C13
